:100000009BC00000B5C00000B3C00000B1C000003C
:10001000AFC00000ADC00000ABC00000A9C0000030
:10002000A7C00000A5C00000A3C000000C94670A90
:100030000C94120B9DC000009BC0000099C00000F2
:1000400097C0000095C0000093C0000091C0000060
:100050008FC000008DC000008BC0000089C0000070
:1000600087C0000085C0000083C0000081C0000080
:100070007FC000004003780075006D00310035003E
:1000800034003100200066006C006F0070007000CA
:100090007900200061006400610070007400650058
:1000A0007200200028004F004C0049004D00450020
:1000B0005800290000003A034E00610074006500FA
:1000C00020004C006100770073006F006E0020007C
:1000D00061006E00640020004F00700065006E003B
:1000E000430042004D0020007400650061006D0077
:1000F0000000040309040902200001010080320904
:1001000004000002FF000000070583022000000732
:1001100005040220000012011001FF000008D016A3
:100120000405070301020301000801098088818991
:1001300040484149C0C8C1C911241FBECFEFD2E019
:10014000DEBFCDBF11E0A0E0B1E0EAE1FEE102C018
:1001500005900D92AE31B107D9F711E0AEE1B1E0F3
:1001600001C01D92AE33B107E1F7EFD00C940B0F35
:1001700047CF80912E01089581E06CD510922E0119
:1001800081E080931E01089510921E0110922C01AF
:1001900080E060C50F931F93CF93DF93CDB7DEB799
:1001A00028970FB6F894DEBF0FBECDBF8091360101
:1001B0008076803291F58E010F5F1F4F88E0F80145
:1001C00011928A95E9F7B8018091370143D28F3FA8
:1001D00019F484E03FD521C09091E800977F909377
:1001E000E8009091360197FF0BC0682F772767FDD5
:1001F0007095C801CDD78091E800982F9B7F08C0EB
:100200008091E80080FFFCCF8091E800982F9E7FCE
:100210009093E8008F778093E80028960FB6F894C3
:10022000DEBF0FBECDBFDF91CF911F910F9108951B
:10023000E9EEF0E08081877091E090932E0194E0E8
:100240009083ABEEB0E09C9190629C9393E090839E
:100250009C9190629C9380830895A89580912E0133
:10026000811105C012D5882321F005D502C080E098
:10027000089581E008954091E9004770E0E0F1E0E1
:1002800081E090E01CC02093E90031969C010C9025
:1002900002C0220F331F0A94E2F72093EA00109263
:1002A000EA002091EB0028602093EB002091EB0006
:1002B00025FF05C02091EB0020612093EB00DF01BA
:1002C00020812111E0CF4093E9000895D4DF46E278
:1002D00061E883E012D646E260E884E00ED682E070
:1002E000B9D481E080932C01089524E02093E900A3
:1002F00049EB50E070E0FED680912E0181110BC0D9
:100300008091E800982F9B7F9093E8008F778093EF
:10031000E80081E0089580E0089523E02093E9005B
:1003200049EB50E070E098D680912E0181110BC00E
:100330008091E800982F9E7F9093E8008F778093BC
:10034000E80081E0089580E00895CF93DF93CDB772
:10035000DEB727970FB6F894DEBF0FBECDBF90E093
:1003600080E80FB6F89480936100909361000FBE0F
:100370002EE088E190E00FB6F894A8958093600095
:100380000FBE209360000E94480A01C0A89580918A
:100390001E018823D9F32DD480E05CD47CD0A895AD
:1003A00032C080913501843049F58093E900809115
:1003B000E80085FF23C064E0CE01019696DF81113D
:1003C00003C084E047D41AC01D821E821F82BE0172
:1003D0006B5F7F4FCE010196DDD1181634F48D830B
:1003E00063E0CE01059699DF09C0882339F084E0E7
:1003F00031D48091EB0080628093EB002EDF81117D
:1004000002C010922E0180912C018111CACF01C02F
:10041000A89580911E018823D9F3C1CF809129012D
:10042000811102C00C949E0E88E8089590912901D4
:10043000992351F0E0912201F09123018193F093EF
:100440002301E0932201089590912A01943081F4D0
:10045000982F9350933040F08B3031F0833121F05E
:10046000843111F0863199F491E0909329010FC005
:10047000E92FF0E0E65EFE4F2081281302C09F5F67
:1004800003C0811104C091E090932A0102C0109230
:100490002A010C94C60E10922101BAD30C94420D7D
:1004A000613011F423E003C061110DC024E02093FA
:1004B000E9009093200180931F01609303018091D4
:1004C000E80085FFFCCF089580910301813079F425
:1004D0008091F200811106C080911F01909120014E
:1004E000892BE9F08091E800982F9E7F13C081113D
:1004F00016C080911F0190912001009719F069EBBF
:1005000070E074D58091E80085FD09C08091E80015
:10051000982F9B7F9093E8008F778093E8008FE07F
:10052000809303011092200110921F01089580937F
:10053000F10080911F01909120010197909320017B
:1005400080931F018091E80085FF05C080912E01F6
:10055000811113C008958091E800982F9E7F909399
:10056000E8008F778093E8008091E80085FDEECF6A
:1005700080912E018823C1F3E9CF8FEF08950F9367
:100580001F93CF93DF938C01EB0161E0CE0188DFF5
:1005900006C0F8010995CBDF2197811102C0209791
:1005A000C1F792DF80E0DF91CF911F910F91089505
:1005B0002091E80025FF05C020912E01222399F00B
:1005C00021C02091E800322F3B7F3093E8002F7745
:1005D0002093E8002091E80025FDEECF20912E0128
:1005E0002223C1F3E9CF2091F100FC012083809107
:1005F0001F019091200101979093200180931F018A
:1006000080E008958FEF0895EF92FF920F931F936C
:10061000CF93DF931F92CDB7DEB77C018B0160E0F3
:10062000C8013EDF0AC0CE010196C2DF01501109A8
:10063000811106C08981F70109950115110599F706
:1006400043DF80E00F90DF91CF911F910F91FF90DA
:10065000EF900895CF93DF93EB01823009F484C0CB
:1006600038F4882309F438C0813009F08BC037C0D2
:10067000833009F474C0843009F084C08091E800AC
:10068000877F8093E8008091E80080FFFCCF809115
:10069000E800982F9E7F9093E8008F778093E80082
:1006A0002FEF80E792E0215080409040E1F700C0BA
:1006B000000088E10FB6F89480936000109260000B
:1006C0000FBED7D6F8941092810010928900109234
:1006D00088000C9400185AC0188281E058C084E247
:1006E00091E0909323018093220183E0B3D2809123
:1006F0002F0190913001892B29F4CDDE90933001A8
:1007000080932F0180912F0190913001892BD1F19D
:1007100087E0888383E08983809121018A83909197
:100720002801992379F081608A8381E080932801F0
:10073000E0912F01F09130010190F081E02D80E0F7
:10074000099576DD80912801806880932801809149
:100750002C01811119C08A8182608A8315C0109290
:10076000280182E077D212C08091280180FD0EC05E
:10077000E0912F01F09130010190F081E02D80E0B7
:10078000099504C08FEF03C088E001C080E0DF91CD
:10079000CF910895CF92DF92EF92FF920F931F9324
:1007A000CF93DF9300D000D0CDB7DEB77C016B01D3
:1007B000809128018E7F80932801D7019C91129609
:1007C0000D911C91139783E09C8344D29C819A31B4
:1007D00009F47AC188F4973109F437C130F49830BC
:1007E000E9F0993009F08EC19BC0983109F439C104
:1007F000993109F087C160C19D3109F44EC138F4C7
:100800009B3109F441C19C3109F07CC12DC19E315D
:1008100009F465C19F3109F075C16AC18091210158
:1008200084FD17C0F7018181807F803421F140F47D
:100830008032C9F08033D9F0803109F063C109C03A
:10084000803699F1803709F466C0803509F05AC1C5
:1008500028C0E0912F01F09130010480F581E02D56
:10086000C8010995F0C0B80185E89DE057C0B801FE
:100870008AEF9DE053C061E0C80112DE0EC0CE01D8
:1008800001960E94510E898152DE8111C7C08A8172
:100890004EDE8111C3C0025011090115110579F70F
:1008A000BDC0B80185E89EE039C06801E894D7F87A
:1008B000C114D10409F4C7C01092290161E0C60136
:1008C000EFDD5B988FE19EE40197F1F700C0000037
:1008D0000E949E0EE12CF12C00271078B701617068
:1008E0007727CE0103960E94B70E87FDACC08B819F
:1008F0001EDE81110CC00115110519F08B818535A3
:1009000031F09FEFE91AF90AEC14FD0439F7DCDD48
:100910000E949E0E98C0B8018EE092E030DE93C037
:100920008091210184FD18C0D70111968C91807FA0
:10093000803441F140F48032E9F08033F9F08031C5
:1009400009F0E0C009C08036C9F1803709F477C0EA
:10095000803509F0D7C02EC0E0912F01F091300111
:10096000D70111966C916F700280F381E02DC80160
:10097000099573C0B8018DE49DE064C0B80188ECAE
:100980009DE060C060E0C8018BDD10C0CE01019623
:100990000FDE811143C0CE0102960ADE81113EC0F6
:1009A000CE0101960E942F0E02501109011511056A
:1009B00069F734C0B8018FE69EE044C00115110507
:1009C00009F441C01092290160E0C80169DD5B981B
:1009D00084E2E82E81E0F82E05C0D7018D917D01DB
:1009E0000E94C60E8091220190912301E816F9061B
:1009F000A1F784E291E09093230180932201E12CFE
:100A0000F12CCE010396D4DD882351F0B70161703B
:100A1000772780E00E94E20E0E949E0E55DD13C0F3
:100A2000B701617077278B810E94E20E87FD0BC0B2
:100A3000BFEFEB1AFB0AE016F10619F7E7CFB80192
:100A400086E192E0E1DD80E05EC020912D0181E051
:100A500090E0211102C080E090E0F6019283818352
:100A60004FC010922D014CC0E0912F01F091300148
:100A70000680F781E02DD70112966C91129711969E
:100A80008C9109958823F9F2E0912F01F0913001C2
:100A90000084F185E02D099527C0E0912F01F091A8
:100AA00030010284F385E02DD70112966C911297E4
:100AB00011968C91099524C08091210184FD22C05A
:100AC00014B815B883B110C08091210184FD1AC0FB
:100AD000D70111968C919FEF94B985B911C080917F
:100AE000210184FD0FC09ADCF6018183128208C0C7
:100AF0008091210184FD06C0D70111968C9196DC6E
:100B000082E001C08FEF0F900F900F900F90DF9158
:100B1000CF911F910F91FF90EF90DF90CF900895AC
:100B20000F931F93CF93DF93EA018901D9011C92A0
:100B3000692F77276230710541F06330710551F0FC
:100B40006130710509F444C048C0E0E2F0E086EF8E
:100B500090E047C099278130910579F038F08230D4
:100B6000910591F0039709F038C015C0E2EFF0E06D
:100B7000E491F0E082EF90E034C0E6EBF0E0E49145
:100B8000F0E086EB90E02DC0E4E7F0E0E491F0E0E7
:100B900084E790E026C080E090E00E94030F8095FB
:100BA00090E0ECE0F1E02AE030E007C0B9010E94FB
:100BB000EF0EC09692938293CB010097B9F7E09124
:100BC0000401F0E082E0D8018C9384E091E009C058
:100BD000E2E1F0E086E191E004C0E0E0F0E080E0F6
:100BE00090E099838883CF01DF91CF911F910F917E
:100BF000089518B884E087B98DE093E09093890058
:100C000080938800E1E8F0E080818D608083089522
:100C100018B81BB884E887B989E58AB915B814B83B
:100C2000089539B159B199B146B186B1569551700F
:100C30003072232F30E035952795252B9470990F2E
:100C4000922B4074440F492B807890E095958795BE
:100C5000842B089580932B01823049F018F4882367
:100C600041F00895833029F0843021F402C0429885
:100C70000895429A089580912B018350823020F488
:100C800088B194E0892788B90895B19B03C0B19ACF
:100C900081E0089580E008950F931F93CF93DF9331
:100CA00000D01F92CDB7DEB7E6E3F1E08091F1000E
:100CB000819381E0EE33F807C9F780913601909176
:100CC0003701953009F480C038F4913091F170F01B
:100CD000933009F008C12DC0983009F4C7C099308D
:100CE00009F4DAC0963009F0FEC090C0803821F0D7
:100CF000823809F0F8C008C080913101909132012A
:100D0000992369F082600BC080913A018093E900D9
:100D10008091EB0085FB882780F91092E900909183
:100D2000E800977F9093E8008093F1001092F10023
:100D3000A8C0882319F0823009F0D5C08F7121F046
:100D4000823009F0C1C00BC080913801813009F0B8
:100D5000BBC0933009F080E0809332012FC08091B6
:100D6000380181112BC080913A0190913B0187702D
:100D70009927009709F4A8C08093E9002091EB001F
:100D800020FF1CC020913701233021F48091EB001B
:100D9000806212C09091EB0090619093EB0021E093
:100DA00030E001C0220F8A95EAF72093EA00109202
:100DB000EA008091EB0088608093EB001092E900DC
:100DC0008091E800877F64C081118DC00091380157
:100DD000109139018091E800877F8093E800B7D0B7
:100DE00005C080913501882309F46EC08091E80028
:100DF00080FFF7CFC8018F779927009719F023E07C
:100E00002093350180688093E3005EC08058823073
:100E100008F069C09E012D5F3F4FAE014F5F5F4FED
:100E200060913A01809138019091390179DEBC01DD
:100E3000009709F449C08091E800877F8093E8001B
:100E40002B8189819A81211102C003D205C02130F2
:100E500011F463D201C09CD18091E800982F9B7F50
:100E60009093E8008F778093E8002EC08038D9F502
:100E70008091E800877F8093E80080913301809320
:100E8000F1008091E800982F9E7F9093E8008F7783
:100E90008093E8005CD018C0811125C09091380182
:100EA000923090F48091E800877F8093E8009093DF
:100EB00033014DD080913301882311F084E001C0CB
:100EC00083E08093350102DA8091E80083FF0DC052
:100ED0008091EB0080628093EB008091E800877F37
:100EE0008093E80002C056D9EFCF0F900F900F907B
:100EF000DF91CF911F910F9108958093E900EBEE60
:100F0000F0E0808181608083EDEEF0E010826093FC
:100F1000EC0040838091EE00881F8827881F089589
:100F20001092F40080E08093E9001092F00010929B
:100F3000E8009091ED009D7F9093ED009091EB0083
:100F40009E7F9093EB008F5F853069F708958091C5
:100F5000360187FD05C08091E80080FF0FC013C0F7
:100F60008091E80082FD05C0809135018111F8CFA4
:100F700008958091E800982F9B7F09C080913501EA
:100F80008111E9CF08958091E800982F9E7F90937A
:100F9000E8008F778093E800089585E69091EC0053
:100FA00090FF05C09091E80090FF05C019C0909196
:100FB000E80092FD15C090913501992399F0909128
:100FC000EB0095FD11C09091E10092FFE7CF909169
:100FD000E1009B7F9093E100815001F783E0089549
:100FE00080E0089582E0089581E00895FF920F93D4
:100FF0001F93CF93DF93EC018B01CFDFF82E882373
:10100000E9F023C08091E80085FD15C08091E800DB
:10101000982F9B7F9093E8008F778093E8000115CD
:10102000110521F4BADF882349F00BC0F8010995B6
:101030008130C1F708C08091F1002197209711F706
:1010400004C0F82E02C064E0F62E8F2DDF91CF9100
:101050001F910F91FF900895AF92BF92CF92DF92B0
:10106000EF92FF920F931F93CF93DF931F92CDB711
:10107000DEB7C82E8B017A0199838FDFD82E998134
:1010800081112BC0AC2CB92E20C08091E80085FDC9
:1010900015C08091E800982F9E7F9093E8008F778D
:1010A0008093E800E114F10421F477DF882369F0EC
:1010B00010C0F70109958130C1F70DC0F50181918C
:1010C0005F018093F1000150110901151105E9F646
:1010D00004C0D82E02C074E0D72E8D2D0F90DF9162
:1010E000CF911F910F91FF90EF90DF90CF90BF9025
:1010F000AF900895AF92BF92CF92DF92EF92FF929E
:101100000F931F93CF93DF931F92CDB7DEB7C82EF7
:101110008B017A01998341DFD82E998181112BC0EF
:10112000AC2CB92E20C08091E80085FD15C08091BF
:10113000E800982F9B7F9093E8008F778093E800DA
:10114000E114F10421F429DF882369F010C0F701CC
:1011500009958130C1F70DC08091F100F5018193AF
:101160005F010150110901151105E9F604C0D82EDF
:1011700002C014E0D12E8D2D0F90DF91CF911F91E1
:101180000F91FF90EF90DF90CF90BF90AF900895B8
:1011900020913C0130913D012617370768F0611519
:1011A000710559F42091E800322F3E7F3093E8001A
:1011B0002F772093E80001C0B9019C0180E03AC07C
:1011C0009091E80093FD41C09091E80092FF06C025
:1011D0008091E80082FF34C080E00895909135014D
:1011E0009923A9F19091E80090FF24C08091F2002A
:1011F00090E0F901821B930B05C021912093F1002F
:10120000615071099F01280F391F6115710519F08F
:101210002830310590F381E02830310509F080E075
:101220009091E800292F2E7F2093E8009F779093DC
:10123000E8009F016115710519F68111C1CFC8CF72
:10124000809135018111C4CF02C081E0089582E010
:10125000089520913C0130913D012617370768F031
:101260006115710559F42091E800322F3E7F3093CB
:10127000E8002F772093E80001C0B901AC0120E01D
:101280003CC08091E80083FD44C08091E80082FF6B
:1012900006C08091E80082FF37C080E00895809109
:1012A00035018823C1F18091E80080FF26C020919C
:1012B000F20030E0CA01241B350B06C00196E49110
:1012C000E093F10061507109FC01A901480F591F19
:1012D0006115710519F04830510580F321E048305F
:1012E000510509F020E03091E800432F4E7F4093F4
:1012F000E8003F773093E800AC016115710509F013
:10130000C0CF2111BECFC5CF809135018111C1CF92
:1013100002C081E0089582E00895EF92FF920F935A
:101320001F93CF93DF93EB0120913C0130913D015E
:101330002617370760F0209759F42091E800322FE4
:101340003E7F3093E8002F772093E80001C0E90149
:101350009C0140E037C08091E80083FD40C080914F
:10136000E80082FD33C0809135018823D1F180915E
:10137000E80080FF27C00091F20010E0C901021BC5
:10138000130B09C07C012FEFE21AF20A3CD58093BF
:10139000F1002197C7019C01200F311F209719F000
:1013A0002830310578F341E02830310509F040E07C
:1013B0002091E800322F3E7F3093E8002F77209372
:1013C000E8009C01209739F64111C5CF8091E800D3
:1013D00082FD09C0809135018111F8CF02C081E002
:1013E00003C082E001C080E0DF91CF911F910F9197
:1013F000FF90EF90089565D067D01092350110925C
:101400003301109232011092310119BC89B582600A
:1014100089BD09B400FEFDCF8091D800982F9F7739
:101420009093D80080688093D800809163008E7F6D
:10143000809363008091D8008F7D8093D800809145
:10144000E0008E7F8093E0008091E1008E7F8093AA
:10145000E1008091E20081608093E2008091E100F0
:10146000877F8093E1008091E20088608093E200B2
:101470000895C1DFE0EEF0E0808181608083E8EDD7
:10148000F0E080818F77808319BC10923401089539
:10149000B2DF81E080933401789408950895CF936A
:1014A00080913501882359F0C091E900C7701092EE
:1014B000E9008091E80083FDEFDBC093E900CF9164
:1014C00008951092E20008951092E10008951F928D
:1014D0000F920FB60F9211242F933F934F935F9368
:1014E0006F937F938F939F93AF93BF93EF93FF93EC
:1014F0008091E10080FF1DC08091E20080FF19C053
:101500008091E1008E7F8093E1008091E2008E7FE8
:101510008093E2008091E20080618093E2008091FC
:10152000D80080628093D80019BC109235010E94C7
:10153000C4008091E10084FF2AC08091E20084FF12
:1015400026C019BC89B5826089BD09B400FEFDCFF3
:101550008091D8008F7D8093D8008091E1008F7EAC
:101560008093E1008091E2008F7E8093E200809181
:10157000E20081608093E20080913301882311F0C2
:1015800084E001C081E0809335010E94BC0080911D
:10159000E10083FF28C08091E20083FF24C0809196
:1015A000E100877F8093E10082E080933501109213
:1015B00033018091E1008E7F8093E1008091E20011
:1015C0008E7F8093E2008091E20080618093E20050
:1015D000A7DC42E060E080E090DC8091F000886071
:1015E0008093F0005BDF8091E10082FF0AC0809170
:1015F000E20082FF06C08091E1008B7F8093E100D2
:101600004DDFFF91EF91BF91AF919F918F917F91AE
:101610006F915F914F913F912F910F900FBE0F905F
:101620001F9018951F920F920FB60F9211241F93BF
:101630002F933F934F935F936F937F938F939F93DA
:10164000AF93BF93CF93DF93EF93FF93C9EED0E0B7
:101650001881177024DFE8EEF0E08081877F8083B7
:101660001883FF91EF91DF91CF91BF91AF919F913F
:101670008F917F916F915F914F913F912F911F912A
:101680000F900FBE0F901F901895CBDA982F83FB09
:10169000882780F921E0822790FF826097FF84608D
:1016A00008951F93CF93DF93D82F162FC9EC04C052
:1016B0008AE18A95F1F700C0B4DA8D23811302C064
:1016C000C150B1F7AEDAD82381E0D11301C080E078
:1016D000DF91CF911F910895CF93DF93E82FF0E032
:1016E000E85DFE4FD491611102C0C0E00AC0CD2F69
:1016F00008C00E942D01882351F08AE18A95F1F7F4
:1017000000C08FDA8D238C17A1F381E001C080E047
:10171000DF91CF9108951F93CF93DF93182F4798B0
:101720009BB1967F9BB95E9A2FEF80E792E02150A4
:1017300080409040E1F700C000005E98CCE4DDE11D
:1017400047989BB1967B9BB925E82A95F1F7000055
:101750004A9905C08BE291E00197F1F70AC095E83C
:101760009A95F1F700004A9907C087EC90E001973D
:10177000F1F700C0000014C0479A87EC90E0019791
:10178000F1F700C000004A9B02C0479809C0479883
:1017900087EC90E00197F1F700C000004A9908C07B
:1017A0000E942D01882321F0219751F61111C8CFF5
:1017B000DF91CF911F910895CF92DF92EF92FF9228
:1017C0000F931F93CF93DF937C0161E00E9450023F
:1017D000C0E0D0E0CC24C39401E513EC10C001506C
:1017E000110921F00E942D01811105C00E9464029F
:1017F000C0E0D0E059C085E38A95F1F70000499B2D
:10180000EECF80912D018111F1CF5B9889EC04C05E
:1018100095E09A95F1F70000499B02C08150C1F70D
:10182000499B08C0C0922D015B9A8AEB8A95F1F71B
:1018300000C05B98F89461E081E033DF182F88E006
:10184000D82E00E00FC060E081E02BDF182F882346
:1018500039F006954A99006861E081E022DF182F8F
:10186000DA9411F01111EFCF7894112359F05B9AAB
:10187000802F0E949702811115C0219695E89A95B4
:10188000F1F70000A895CE15DF0541F0112341F0D6
:1018900080912D01882309F49FCF04C0111102C04B
:1018A000C0E0D0E00E946402CE01DF91CF911F9191
:1018B0000F91FF90EF90DF90CF900895CF92DF923D
:1018C000EF92FF920F931F93CF93DF931F92CDB7A9
:1018D000DEB78C01D62E10922D01009709F40AC0B4
:1018E00060E00E94500260E080ECDBDE811105C008
:1018F0000E94640200E010E088C05B9892E0C92E6C
:10190000CD20D1FC479A589A25E02A95F1F700009E
:1019100068E088E0C6DE811103C047985898E8CF98
:101920008AE68A95F1F700C078014A9B03C000E07F
:1019300010E041C0589804C00E942D018823B9F3DB
:101940004A9BFACF5CC0C11006C068E088E0A9DEFF
:1019500060E088E0A6DE589ACE0101960E94D80287
:101960008111E5CF998188E028EC2A95F1F790FD67
:1019700005C05B9A25E02A95F1F70000589825E309
:101980002A95F1F70000589A5B989695815061F777
:1019900068E088E086DE882351F281E0E81AF108E9
:1019A00087EC90E00197F1F700C00000A895E114E2
:1019B000F10409F0BACF0E94640201151105C1F0CB
:1019C000D0FE14C05B9A479892E09A95F1F700C058
:1019D000589825E02A95F1F7000005C00E942D01D6
:1019E000882309F487CF4999F9CF0FC047980DC0D4
:1019F00085E38A95F1F700004798589806C091E072
:101A0000E916F10409F0A7CF9ECFC8010F90DF912E
:101A1000CF911F910F91FF90EF90DF90CF9008959D
:101A200061110FC0E82FF0E0E85DFE4FE491E7FFA1
:101A300002C0479AEF77EE2321F18BB18E2B8BB941
:101A4000089570E0FB01E85DFE4F6491811101C0D3
:101A50000EC0E82FF0E0E85DFE4FE491E7FF02C022
:101A6000479AEF77EE2319F08BB18E2B8BB967FF76
:101A700002C047986F77662321F08BB16095682389
:101A80006BB9089547988BB1867B8BB98AE18A95AB
:101A9000F1F700C08EE091E00895CF93DF93C82F57
:101AA000D8E0C7FF02C05B9A01C05B9885E08A95C9
:101AB000F1F70000589885E08A95F1F7000004C01E
:101AC0000E942D018823F1F04999FACFC7FF02C087
:101AD0005B9806C05B9A04C00E942D01882391F098
:101AE000499BFACF589A5B9885E08A95F1F70000F8
:101AF00004C00E942D01882329F04A99FACFCC0F07
:101B0000D15079F6DF91CF910895FF920F931F93F3
:101B1000CF93DF9318E0C0E0FF24F39406C00E9447
:101B20002D01811102C0CFEF2CC04A9BF8CF5898ED
:101B300085E08A95F1F70000D9B1D695D170DF25FF
:101B400011F000E801C000E05B9A04C00E942D0182
:101B5000882349F389B1869581708F25D817B1F311
:101B60005B9885E08A95F1F7000004C00E942D0182
:101B70008823C9F24A99FACFC695C02B589A1150BA
:101B8000A1F68C2FDF91CF911F910F91FF900895B7
:101B9000CF93DF93D82FC4E0D0FF02C05B9A01C07F
:101BA0005B9885E08A95F1F70000479804C00E9491
:101BB0002D018823E1F0499BFACFD695D0FF02C0D2
:101BC0005B9A01C05B9885E08A95F1F70000D69595
:101BD000479A04C00E942D01882349F04999FACF01
:101BE000C150D1F65B9885E08A95F1F70000DF914E
:101BF000CF9108951F93CF93DF93D4E0C0E006C048
:101C00000E942D01811102C0CFEF24C0499BF8CF63
:101C100085E08A95F1F700004A9902C010E801C0FA
:101C200010E0479804C00E942D01882369F3499968
:101C3000FACF85E08A95F1F700008C2F8695812BED
:101C400086954A9902C0C0E801C0C0E0C82B479AF7
:101C5000D150E1F68C2FDF91CF911F910895CF9352
:101C6000DF93EC0104C00E942D018823B9F04A994A
:101C7000FACF88819FEF94B985B900C000C0589809
:101C800004C00E942D01882349F04A9BFACF898124
:101C90009FEF94B985B900C000C0589ADF91CF91E9
:101CA0000895CF93DF93EC0104C00E942D01882397
:101CB00099F04A99FACF14B815B883B18883589827
:101CC00004C00E942D01882339F04A9BFACF14B832
:101CD00015B883B18983589ADF91CF9108959FEF0A
:101CE00094B985B900C000C0589804C00E942D0165
:101CF000882351F04A9BFACF589A04C00E942D01C4
:101D0000882311F04A99FACF0895CF93589806C0C6
:101D10000E942D01811102C0CFEF0DC04A9BF8CF68
:101D200014B815B8C3B1589A04C00E942D01882375
:101D300099F34A99FACF8C2FCF910895479A8BB196
:101D4000867F8BB98DE08A95F1F700004A9BFECF24
:101D500092E09A95F1F700C014B815B883B147988E
:101D60004A99FECF9DE09A95F1F70000089531E081
:101D700029B122FB222720F923272613F9CF14B8F3
:101D800015B823B1FC01208380E00895479A9BB1E8
:101D9000967F9BB99DE09A95F1F700004A9BFECF94
:101DA0009FEF94B985B982E08A95F1F700C0479812
:101DB0009AE19A95F1F700C04A99FECF14B815B888
:101DC00083B1089521E099B192FB992790F9922768
:101DD0009613F9CF9FEF94B985B980E00895AA1BB7
:101DE000BB1B51E107C0AA1FBB1FA617B70710F006
:101DF000A61BB70B881F991F5A95A9F78095909538
:101E0000BC01CD010895F999FECF92BD81BDF89A2C
:0A1E1000992780B50895F894FFCFDC
:101E1A000304000F080330003000300000008B0B71
:0E1E2A005E0CDC0B6C0B450B100D0055AAFF77
:00000001FF
