:100000009FC000000C94A20FB7C00000B5C0000054
:10001000B3C00000B1C00000AFC00000ADC0000020
:10002000ABC000000C94710FA7C000000C94C51564
:100030000C947116A1C000000C94D60F0C944F10B4
:100040009BC0000099C000000C94241095C00000D3
:1000500093C0000091C000008FC000008DC0000060
:100060008BC0000089C0000087C0000085C0000070
:1000700083C000004803780075006D003100350032
:1000800034003100200066006C006F0070007000CA
:100090007900200061006400610070007400650058
:1000A0007200200028005A004F004F004D0046000B
:1000B0004C004F00500050005900290000003A0346
:1000C0004E0061007400650020004C006100770064
:1000D00073006F006E00200061006E00640020005D
:1000E0004F00700065006E00430042004D0020008C
:1000F0007400650061006D0000000403090409023A
:10010000200001010080320904000002FF0000000D
:1001100007058302200000070504022000001201E9
:100120001001FF000008D0160405070201020301B8
:10013000000801098088818940484149C0C8C1C977
:1001400011241FBECFEFD4E0DEBFCDBF11E0A0E091
:10015000B1E0E6ECF5E302C005900D92A833B107DB
:10016000D9F711E0A8E3B1E001C01D92A637B107AD
:10017000E1F7F4D00C94E11A43CF80916601089521
:1001800081E0C0D61092660181E080933801089525
:10019000109238011092640180E0B4C60F931F934F
:1001A000CF93DF93CDB7DEB728970FB6F894DEBFB5
:1001B0000FBECDBF80916E018076803299F58E01A1
:1001C0000F5F1F4F88E0F80111928A95E9F7B80197
:1001D00080916F019CD28F3F19F484E093D622C0A6
:1001E0009091E800977F9093E80090916E0197FFBF
:1001F0000CC0682F772767FD7095C8010E942514F1
:100200008091E800982F9B7F08C08091E80080FFD4
:10021000FCCF8091E800982F9E7F9093E8008F7725
:100220008093E80028960FB6F894DEBF0FBECDBFCE
:10023000DF91CF911F910F910895E9EEF0E0808159
:10024000877091E09093660194E09083ABEEB0E00C
:100250009C9190629C9393E090839C9190629C937C
:1002600080830895A89580916601811105C065D6A7
:10027000882321F058D602C080E0089581E00895D7
:100280004091E9004770E0E0F1E081E090E01CC0BF
:100290002093E90031969C010C9002C0220F331F7D
:1002A0000A94E2F72093EA001092EA002091EB0012
:1002B00028602093EB002091EB0025FF05C02091E2
:1002C000EB0020612093EB00DF0120812111E0CFC2
:1002D0004093E9000895D4DF46E261E883E00E949C
:1002E000DA1246E260E884E00E94DA1282E00AD67E
:1002F00081E080936401089524E02093E9004DEBB0
:1003000050E070E00E94D7138091660181110BC00C
:100310008091E800982F9B7F9093E8008F778093DF
:10032000E80081E0089580E0089523E02093E9004B
:100330004DEB50E070E00E948913809166018111BD
:100340000BC08091E800982F9E7F9093E8008F77F4
:100350008093E80081E0089580E00895CF93DF93D3
:10036000CDB7DEB727970FB6F894DEBF0FBECDBF6F
:1003700090E080E80FB6F89480936100909361005C
:100380000FBE2EE088E190E00FB6F894A895809318
:1003900060000FBE209360000E94A61501C0A895C2
:1003A000809138018823D9F37CD580E0ABD5A5D0E6
:1003B000A89532C080916D01843049F58093E900A1
:1003C0008091E80085FF23C064E0CE01019694DFB0
:1003D000811103C084E096D51AC01D821E821F823F
:1003E000BE016B5F7F4FCE01019634D2181634F4F4
:1003F0008D8363E0CE01059698DF09C0882339F02C
:1004000084E080D58091EB0080628093EB002ADF4E
:10041000811102C010926601809164018111CACFDE
:1004200001C0A895809138018823D9F3C1CF80916C
:100430004301811102C00C94121A88E8089580913A
:100440004301811102C00C94631A88E808959091C9
:100450004301992361F0E0913C01F0913D018193CA
:10046000F0933D01E0933C0120E030E029C0909101
:100470004401943081F4982F9350933040F08B30A6
:1004800031F0833121F0843111F0863189F481E03B
:10049000809343010DC0E92FF0E0EC5CFE4F20811A
:1004A000281304C09F5F9093440108C0882319F06B
:1004B0001092440103C081E08093440121E030E0C8
:1004C000C9010895CF93C82FC2DF892B21F08C2F4B
:1004D000CF910C943A1ACF910895CF93C82FB7DFDC
:1004E000892B21F08C2FCF910C94801ACF910895F5
:1004F00090933A01809339010895CF93DF9300D010
:10050000CDB7DEB71A82198210923B010E94E40A2D
:10051000029761F4CE0101960E94020B80913B018B
:10052000806280933B0129813A8110C094D79C015D
:100530009A838983009731F080913B018061809399
:100540003B0104C0BDD40E94B0189C01C9010F90AA
:100550000F90DF91CF910895613011F423E003C033
:1005600061110DC024E02093E90090933A0180933B
:100570003901609303018091E80085FFFCCF089565
:1005800080910301813079F48091F200811106C0DD
:100590008091390190913A01892BF1F08091E80026
:1005A000982F9E7F14C0811117C0809139019091BE
:1005B0003A01009721F06DEB70E00E945313809197
:1005C000E80085FD09C08091E800982F9B7F9093FB
:1005D000E8008F778093E8008FE08093030110920A
:1005E0003A011092390108958093F1008091390108
:1005F00090913A01019790933A018093390180914B
:10060000E80085FF05C080916601811113C008953F
:100610008091E800982F9E7F9093E8008F778093D9
:10062000E8008091E80085FDEECF80916601882387
:10063000C1F3E9CF8FEF08950F931F93CF93DF930B
:100640008C01EB0161E0CE0187DF06C0F80109955E
:10065000CBDF2197811102C02097C1F791DF80E0A5
:10066000DF91CF911F910F9108952091E80025FF10
:1006700005C020916601222399F021C02091E80055
:10068000322F3B7F3093E8002F772093E8002091B2
:10069000E80025FDEECF209166012223C1F3E9CFCA
:1006A0002091F100FC0120838091390190913A0161
:1006B000019790933A018093390180E008958FEF7C
:1006C0000895EF92FF920F931F93CF93DF931F92A2
:1006D000CDB7DEB77C018B0160E0C8013DDF0AC009
:1006E000CE010196C2DF01501109811106C0898136
:1006F000F70109950115110599F742DF80E00F9088
:10070000DF91CF911F910F91FF90EF900895CF93BC
:10071000DF93EB01823009F487C038F4882309F4B1
:100720003BC0813009F08EC03AC0843031F008F40B
:1007300076C0853009F086C07BC08091E800877F55
:100740008093E8008091E80080FFFCCF8091E80072
:10075000982F9E7F9093E8008F778093E8002FEF8B
:1007600081EE94E0215080409040E1F700C000000D
:1007700088E10FB6F89480936000109260000FBE7D
:100780000E949715F894109281001092890010929F
:1007900088000C94001C5AC0188281E058C08EE377
:1007A00091E090933D0180933C0183E0ABD3809135
:1007B000670190916801892B29F49FDE909368016D
:1007C000809367018091670190916801892BD1F135
:1007D00087E088838BE1898380913B018A839091B4
:1007E0004201992379F081608A8381E080934201FC
:1007F000E0916701F09168010190F081E02D80E0C7
:1008000009951BDD809142018068809342018091AF
:100810006401811119C08A8182608A8315C0109297
:10082000420182E06FD312C08091420180FD0EC070
:10083000E0916701F09168010190F081E02D80E086
:10084000099504C08FEF03C088E001C080E0DF910C
:10085000CF910895CF92DF92EF92FF920F931F9363
:10086000CF93DF9300D000D0CDB7DEB76C017B0112
:10087000809142018E7F80934201D6019C91129615
:100880000D911C91139783E09C833CD39C819F31F5
:1008900009F460C228F5993109F443C278F499301B
:1008A00009F41BC120F4983009F084C23BC0973191
:1008B00009F402C2983109F07DC207C29C3109F4E3
:1008C00007C238F49A3109F434C29B3109F072C27C
:1008D00010C29D3109F416C29E3109F06BC234C2B8
:1008E000943409F452C260F4913209F445C208F418
:1008F0003AC2923409F453C2933409F05BC253C232
:10090000973409F448C238F4953409F440C2963457
:1009100009F050C23EC2983409F43FC2993409F03C
:1009200049C23FC280913B0184FD28C0F60181810C
:10093000807F803609F44EC078F4803369F130F45A
:100940008031E1F0803209F035C222C0803441F1BB
:10095000803509F02FC23AC0803909F4B5C038F4A7
:10096000803709F46CC0803809F024C26EC0803A28
:1009700009F4AEC0803B09F01DC2ADC0E091670133
:10098000F09168010480F581E02DC80109955BC0F4
:10099000B80183EF98E156C0B80188E699E152C0EA
:1009A00061E0C801D9DD0EC0CE0101960E94C319D5
:1009B00089811ADE811120C18A8116DE81111CC154
:1009C000025011090115110579F716C1B80189EF17
:1009D00099E138C06801E894D7F8C114D10499F1BD
:1009E0001092430161E0C601B7DD5B988FE39CE99B
:1009F0000197F1F700C000000E94121AE12CF12CBF
:100A000000271078B70161707727CE0103960E9406
:100A10002B1A87FD18C08B81E7DD81110CC00115F1
:100A2000110519F08B81853531F09FEFE91AF90A2C
:100A3000EC14FD0439F7A4DD0E94121A04C0B801B9
:100A400087E192E0F9DD80E0B6C10115110509F4F6
:100A5000FACF1092430161E0C8017EDD47988BB167
:100A6000867E8BB9AFE3BCE91197F1F700C00000B7
:100A70000E94631A589AE12CF12C6801B2E0CB1A5B
:100A8000D10898E080E04D99FECF4D9BFECFE2E08B
:100A9000EA95F1F729B1880F22FB222720F9822B52
:100AA000915089F7EC14FD0409F458989DDD8823D2
:100AB00021F066DD0E94631AC6CFFFEFEF1AFF0A2E
:100AC000E016F106F1F6F5CFB8018FE192E0BACF6A
:100AD0000E94F51069C114D6EAC080913B0184FDE3
:100AE00029C0D60111968C91807F803609F454C0BC
:100AF00078F4803389F130F48031E1F0803209F00C
:100B000059C126C0803461F1803509F053C140C01D
:100B1000803909F4C3C038F4803709F47EC08038C6
:100B200009F048C17EC0803A09F4BDC0803B09F09D
:100B300041C1BCC0E0916701F0916801D6011196F6
:100B40006C916F700280F381E02DC8010995AFC0F0
:100B5000B8018BEB98E1A5C0B80186E399E1A1C08B
:100B600060E0C801F9DC10C0CE0101967EDD811184
:100B700043C0CE01029679DD81113EC0CE010196BF
:100B80000E949D19025011090115110569F734C021
:100B9000B80181EE99E185C00115110509F453CF23
:100BA0001092430160E0C801D7DC5B989EE3E92E18
:100BB00091E0F92E05C0D7018D917D010E943A1A6E
:100BC00080913C0190913D01E816F906A1F78EE372
:100BD00091E090933D0180933C01E12CF12CCE01FA
:100BE000039643DD882351F0B7016170772780E0D9
:100BF0000E94561A0E94121AC3DC25CFB7016170F9
:100C000077278B810E94561A87FD1DCFBFEFEB1A05
:100C1000FB0AE016F10619F7E7CFB80182E692E089
:100C200040C00115110509F40ECF1092430160E098
:100C3000C80192DC47988BB1867E8BB98EE3E82E93
:100C400081E0F82E05C0F70181917F010E94801A92
:100C500080913C0190913D01E816F906A1F78EE3E1
:100C600091E090933D0180933C01E12CF12CCE0169
:100C70000396FBDC882319F00E94631ABDCFB701ED
:100C8000617077278B810E94A31A8111DCCEFFEF60
:100C9000EF1AFF0AE016F10651F7EECFB8018DE624
:100CA00092E00FDDD0CE0E9432117EC0F2D4F70167
:100CB0009283818382E07FC02091650181E090E092
:100CC000211172C080E090E06FC010926501F2CFF8
:100CD000E0916701F09168010680F781E02DD6016F
:100CE00012966C91129711968C910995882309F4AC
:100CF000AACEE0916701F09168010084F185E02DB2
:100D0000099536C0E0916701F09168010284F3858E
:100D1000E02DD60112966C91129711968C9109953F
:100D2000C9CF80913B0184FD45C014B815B883B18B
:100D30001FC080913B0184FD3DC0D60111968C916E
:100D40009FEF94B985B9B6CF80913B0184FD32C045
:100D50006EDB0EC080913B0184FD2CC0D601119644
:100D60008C91B0DBA7CF80913B0184FD23C067DB72
:100D7000F701818312829ECF80913B0184FD1AC0CE
:100D8000D60111968C91A9DB95CFE0D490CF4BD5AD
:100D90000BC0D0D58CCFE7D507C014D688CF51D49F
:100DA00003C063D484CF86D3D70112969C938E93CD
:100DB000119780CF8FEF0F900F900F900F90DF91D2
:100DC000CF911F910F91FF90EF90DF90CF900895FA
:100DD0000F931F93CF93DF93EA018901D9011C92EE
:100DE000692F77276230710541F06330710551F04A
:100DF0006130710509F444C048C0E0E2F0E08EEFD4
:100E000090E047C099278130910579F038F0823021
:100E1000910591F0039709F038C015C0EAEFF0E0B2
:100E2000E491F0E08AEF90E034C0EEEBF0E0E49182
:100E3000F0E08EEB90E02DC0E4E7F0E0E491F0E02C
:100E400084E790E026C080E090E00E94D91A809567
:100E500090E0ECE0F1E02AE030E007C0B9010E9448
:100E6000C51AC09692938293CB010097B9F7E0918F
:100E70000401F0E082E0D8018C9384E091E009C0A5
:100E8000E2E1F0E08EE191E004C0E0E0F0E080E03B
:100E900090E099838883CF01DF91CF911F910F91CB
:100EA000089518B884E087B98AE196E090938900A4
:100EB00080938800E1E8F0E080818D608083089570
:100EC00018B81BB884E887B989E58AB915B814B889
:100ED000089539B159B199B146B186B1569551705D
:100EE0003072232F30E035952795252B9470990F7C
:100EF000922B4074440F492B807890E0959587950C
:100F0000842B089580934501823049F018F488239A
:100F100041F00895833029F0843021F402C04298D2
:100F20000895429A0895809145018350823020F4BB
:100F300088B194E0892788B90895B19B03C0B19A1C
:100F400081E0089580E0089514B88FEF85B947983F
:100F50003F9A3E98469A3C98449A3D98459A5E98A6
:100F6000569A57985F9A5C98549A55985D9A3A9811
:100F7000429A5B98539A52985A9A5898509A519814
:100F8000599A10924A0110924701109246018FEF30
:100F90009FEF90934D0180934C01089589B182FB9E
:100FA000882780F991E08927499B8260369B84607D
:100FB0004F9B8860349B8061359B8062089581E0FF
:100FC0000895089585E38A95F1F7000080914B011B
:100FD0008F5F80934B01843688F010924B01809193
:100FE000480190914901892B49F0809148019091E5
:100FF000490101979093490180934801A895209158
:1010000048013091490181E0232B09F080E00895E7
:101010003C98449A499B0AC04A9B08C080914A0167
:10102000806880934A0181E00895A895499BFDCF8F
:1010300014B8982F909595B984B98AE18A95F1F7FB
:1010400000C044983C9A81E490E0909349018093D9
:1010500048010AC0B7DF882339F080914A018160D6
:1010600080934A0181E003C04A9BF4CF80E03C9822
:10107000449A14B89FEF95B90895CADF811103C04F
:1010800091E09093470147980895BF92CF92DF92E5
:10109000EF92FF920F931F93CF93DF937C0161E058
:1010A0005BDAC0E0D0E081E4C82ED12CBB24B3943D
:1010B00080916501882321F063DAC0E0D0E054C05C
:1010C00005E110E080914A018D7F80934A01809173
:1010D000650181112EC05B9A5898D0924901C09247
:1010E0004801349B0BC06EDF8823D9F380914A01FD
:1010F000826080934A015B9A589A1BC085E08A956A
:10110000F1F7000083B18095359907C090914A01AD
:10111000906490934A01B0926501589A95E09A952F
:10112000F1F700005B9801C0A895349BFDCF5B9A56
:1011300001C080E090914A0191FF08C0015011095F
:1011400009F4BACF8FD88111BDCFB6CF4DDA811156
:101150000AC02196A895CE15DF0529F0809165017A
:10116000882309F4A5CF0CDACE01DF91CF911F912E
:101170000F91FF90EF90DF90CF90BF900895CF93A5
:10118000C82F58985B9820914C0130914D0137FD44
:101190000EC045983D9A80914C013ADF3D98459AA2
:1011A0002FEF3FEF30934D0120934C0112C02FEFF2
:1011B00030E0309349012093480109C003DF8823C0
:1011C00031F080914A01846080934A010EC0349BC3
:1011D000F5CF479A87E691E00197F1F700C000004C
:1011E0008C2F16DF882319F0479881E001C080E03A
:1011F000CF9108958FE3C3DF4798E7E6F1E0319799
:10120000F1F700C00000109247010895FF920F937C
:101210001F93CF93DF93F82E97DE5E9A22E330E0A0
:101220003093490120934801CDDE8823E9F35E988D
:101230000CE41DE185E38A95F1F70000499B02C0AB
:101240004A9905C087EF92E00197F1F70EC0479ADF
:1012500095E39A95F1F70000499B0AC04A9B08C0A4
:1012600047988FEC92E00197F1F700C000002DC085
:10127000479887EC90E00197F1F700C00000499B88
:1012800002C04A990EC08FE891E00197F1F700C0C3
:101290000000499B02C04A9904C090EA9A95F1F770
:1012A00014C087E092E00197F1F700C00000499B6D
:1012B00008C089B182FB882780F9C82F90E0D92F18
:1012C00002C0C0E0D0E0CD2B51F40E94320188234F
:1012D00031F00150110909F0ADCFF110ABCFDF9122
:1012E000CF911F910F91FF900895DF92EF92FF929F
:1012F0000F931F93CF93DF9300D01F92CDB7DEB72C
:101300007C01D62E1092650110924A0160E024D92A
:10131000D1FE60C0E114F10409F43CC0CE01029694
:10132000A4D9882319F0E12CF12C89C08701015040
:10133000110921F08A818F718F3191F48A8186FFA2
:101340000BC08FE51CDF479887E691E00197F1F726
:1013500000C00000109246018A8185FF6CC038C031
:10136000CE01019682D98111DECFD0FE16C019813F
:101370008A818F71806403DF81110CC0812F8F708F
:10138000806646DE811105C0589A5B9A81E08093A1
:101390004601479800E010E04EC0015011090330AB
:1013A000110508F048C0D9808D2D807F803E31F036
:1013B000803F91F0803609F03EC017C08A818F715E
:1013C0008062DDDE811104C08D2D8F70806E55DE50
:1013D00011DF31C087012FC08A818F718062CFDE1B
:1013E000811129C08D2D806F09C08A818F71806223
:1013F000C6DE811120C08D2D8F7180663EDE1BC040
:10140000CE01039632D9882319F0E12CF12C16C0B5
:10141000DB8080914C0190914D0197FF08C0D092E4
:101420004C0110924D0101501109A89504C0F0DD46
:101430008823A9F3EACF0115110511F7A1D8C70137
:101440000F900F900F90DF91CF911F910F91FF9010
:10145000EF90DF900895CF93DF9376DD8FE891E0F2
:101460000197F1F700C0000044983C9A45983D9AD6
:101470003C9844983D9845988FE891E00197F1F7A2
:1014800000C00000349B08C086B185FB882780F926
:10149000C82F90E0D92F02C0C0E0D0E0CD2B21F0C2
:1014A00053DD2EE031E002C020E030E0C901DF91E1
:1014B000CF91089581E090E0089580916301806864
:1014C000809363010895489904C08091630187FF68
:1014D00004C0F3DF2EEF30E002C021E030E0C901AC
:1014E00008958091630180FD0AC08091630181FFAE
:1014F00003C025E030E005C02DEF30E002C024E05D
:1015000030E0C9010895809163018E7F809363016B
:10151000809163018D7F80936301089580916301C1
:1015200080618093630182E084B98DEF85B917B83B
:101530008FEF88B91AB88BB90895109280008AE1AC
:1015400096E090938900809388008DE080938100DD
:101550000895E8E6F0E080818E7F8083EFE6F0E09A
:1015600080818C7D8083EBE6F0E080818E7F8083BC
:10157000E8988FEF86BB8BBB81E08CBB089585B765
:101580008F7E85BF5098519A589A599808951F9305
:10159000CF93DF931F92CDB7DEB71FB7F89489833F
:1015A000B2DF8981823039F080916301806180935C
:1015B0006301219A29983E98C0DFCBDF1FBF0F90AF
:1015C000DF91CF911F9108950F931F93CF93DF93D6
:1015D000CFB7F8941AB10BB1D5B710926301CFDF32
:1015E00072DF0BB91AB9D5BFCFBF019719F422E04A
:1015F00030E002C023E030E0C901DF91CF911F91BC
:101600000F9108951F93CF93DF93EC011FB7F894C8
:1016100080916301806480936301809163018F7D79
:10162000809363017BDFABDF88DF93DF209721F0BE
:101630008CE191E0998388831FBFDF91CF911F9147
:10164000089541DF8E3F910529F481E0A0DF2EEF60
:1016500030E009C080916301806180936301219A29
:10166000299A28E030E0C90108952DDF8E3F9105C9
:1016700029F481E08CDF2EEF30E009C08091630116
:10168000806180936301219A299829E030E0C901A3
:1016900008951F93CF93DF931F92CDB7DEB71FB787
:1016A000F894A89560E08FEF9FEF0E94AC028FE363
:1016B0009CE90197F1F700C00000CE0101960E945D
:1016C0003503882331F00E94C0021FBF28EF30E0AD
:1016D00011C0809163018F798093630190916301C0
:1016E00089818076892B809363010E94C0021FBF8D
:1016F0002CE030E0C9010F90DF91CF911F91089548
:10170000CF93DF93D0916301CFB7F894A89561E0B0
:101710008FEF9FEF0E94AC028FE39CE90197F1F7F6
:1017200000C000008D2F0E94F402882331F00E9437
:10173000C002CFBF29EF30E005C00E94C002CFBF7A
:101740002DE030E0C901DF91CF910895CF93DF9371
:10175000DFB7F894A89510925001C3DE059711F4F5
:1017600082E015DF81E090E090931B0180931A01E5
:10177000D5DE80916400877F8093640010928000A2
:1017800080918100877E80938100809181008068B4
:10179000809381008091630186FF04C08091810065
:1017A0008F7B03C080918100806480938100809151
:1017B000810081608093810080918100897F809386
:1017C0008100C1E0C0936F003F98479A2098289A03
:1017D00085B78F7E85BFC093680010926B00CFDE07
:1017E000E898809169008360809369008FEF86BBE1
:1017F0008BBBCCBB26DF8E3F910521F4DFBF2EEFE4
:1018000030E00DC0809163018B7F809363018091F4
:101810006301816080936301DFBF24E030E0C90190
:10182000DF91CF910895CF93DF93CFB7F894A89528
:101830001092500156DE049711F482E0A8DE81E098
:1018400090E090931B0180931A0168DE8091640000
:10185000877F809364008091630185FF09C0809138
:101860008000806C8093800081E080934E010CC0EA
:1018700080918000806880938000809180008F7BC1
:101880008093800010924E01809182008068809346
:10189000820010924F01809180008C7F80938000A5
:1018A00088E080938100809181008F7E8093810009
:1018B0008091810081608093810080918100897F87
:1018C0008093810082E080936F003E9A2098289A4E
:1018D00085B78F7E85BFD1E0D093680010926B00F2
:1018E0004EDEE898809169008360809369008FEFF5
:1018F00086BB8BBBDCBBA5DE8E3F910521F4CFBF41
:101900002EEF30E013C080916301877F80936301E5
:1019100080E89BEB9093890080938800809163011D
:10192000826080936301CFBF25E030E0C901DF9181
:10193000CF910895D6DD8D3F910589F0C4DD8E3FAE
:10194000910529F481E023DE2EEF30E00AC0189BD8
:1019500003C027E030E005C026E030E002C02DEFF4
:1019600030E0C9010895CF93DF93DFB7BADD8D3F33
:101970009105E1F07894C0E003C0C3B1C170A895AF
:10198000A2DD8E3F910531F0C11104C0809150015C
:10199000882399F3DFBF8091500181110AC0C111E2
:1019A0000BC081E0F4DD2EEF30E008C02DEF30E019
:1019B00005C027EF30E002C027E030E0C901DF9129
:1019C000CF910895CF93DF93DFB78BDD8D3F9105E6
:1019D000E1F07894C1E003C0C3B1C170A89573DD94
:1019E0008E3F910531F0CC2321F080915001882366
:1019F00099F3DFBF8091500181110AC0CC2359F0C7
:101A000081E0C5DD2EEF30E008C02DEF30E005C0ED
:101A100027EF30E002C026E030E0C901DF91CF912E
:101A2000089523DEEFE6F0E080818E7D8083EBE693
:101A3000F0E080818E7F8083E8988FEF86BB8BBB40
:101A400081E08CBB809163018B7F8093630108955B
:101A500048DD0497C1F537DD8E3F910529F481E01B
:101A600096DD2EEF30E031C021E02CBBE89A1092D9
:101A700085001092840010925F0110926001109214
:101A800061011092620110925C0110925B019FEF64
:101A900096BB8091630184608093630120936B0007
:101AA00080916F00806280936F009BBBB59A42DF8C
:101AB000069721F0B6DF2BEF30E007C020911A0126
:101AC00030911B0102C02DEF30E0C9010895CDDD3A
:101AD00010924F01EBE6F0E080818E7F8083E898E2
:101AE0008FEF86BB8BBB81E08CBB80E09DE7909342
:101AF00089008093880080916301877F80936301D0
:101B00000895CF93CFB7F89481E0809350018091EE
:101B1000630182FD86DF8091630183FDD8DFFEDCF7
:101B200081E035DD2CDD87EF90E090931B01809301
:101B30001A01CFBFCF91089580915F01909160010C
:101B4000A0916101B0916201809357019093580177
:101B5000A0935901B0935A0180915D0190915E016B
:101B600020915B0130915C01821B930B9093560195
:101B70008093550120915D0130915E0180915B0160
:101B800090915C012817390798F480915701909142
:101B90005801A0915901B0915A010197A109B109C9
:101BA0008093570190935801A0935901B0935A0123
:101BB00010925F0110926001109261011092620117
:101BC00080915D0190915E0190935C0180935B0137
:101BD0008091570190915801A0915901B0915A01FB
:101BE000892B8A2B8B2B31F48091550190915601D2
:101BF00097FF26C06091570170915801809159015B
:101C000090915A0180680E94F40281112AC080914B
:101C1000570190915801A0915901B0915A01892F13
:101C20000E94F40281111DC08091570190915801CA
:101C3000A0915901B0915A010E94F402811111C082
:101C40008091550190915601892F0E94F4028111D3
:101C500008C080915501909156010E94F40288239A
:101C600039F0DFDE89EF90E090931B0180931A0139
:101C70000895CF93DF9300D0CDB7DEB7CE010296A3
:101C80000E943503811186C0CE0101960E94350362
:101C9000811180C02A8127FD26C010925701109221
:101CA00058011092590110925A0130E030935601B8
:101CB0002093550180915501909156012981982FCB
:101CC0008827820F911D9093560180935501809132
:101CD000510190915201A0915301B091540102978A
:101CE000A109B10977C0822F8F7790E0A0E0B0E022
:101CF0008093570190935801A0935901B0935A01D2
:101D00008091570190915801A0915901B0915A01C9
:101D10002981BA2FA92F982F8827820F911DA11DE5
:101D2000B11D8093570190935801A0935901B0932E
:101D30005A01CE0102960E94350381112BC0809179
:101D4000570190915801A0915901B0915A012A81EF
:101D5000BA2FA92F982F8827820F911DA11DB11D81
:101D60008093570190935801A0935901B0935A0161
:101D7000CE0102960E94350381110CC08A8190E049
:101D80009093560180935501CE0102960E9435032F
:101D9000882341F09CDE88EF90E090931B018093B4
:101DA0001A0120C080915501909156012A81982FE7
:101DB0008827820F911D9093560180935501809141
:101DC000510190915201A0915301B0915401059796
:101DD000A109B1098093510190935201A09353013D
:101DE000B09354010F900F90DF91CF910895CF934E
:101DF00078DB059709F070C066DB8E3F910529F40A
:101E000081E0C5DB2EEF30E069C08091630188601E
:101E100080936301C1E0CCBBE89AC0936B0029DFDB
:101E20001092850010928400809157019091580182
:101E3000A0915901B0915A01892B8A2B8B2B19F54E
:101E4000809155019091560190938900809388006C
:101E5000C0934F0180914E01811108C08091800094
:101E6000806C80938000C0934E0127C080918000D9
:101E7000806880938000809180008F7B80938000B9
:101E800010924E011AC010924F018091550190910D
:101E9000560197FD0CC080915501909156019058C4
:101EA000909356018093550180E090E802C08FEF37
:101EB0009FEF90938900809388008FEF86BB8BBB48
:101EC00039DD069721F003DE2CEF30E007C02091CA
:101ED0001A0130911B0102C02DEF30E0C901CF91F2
:101EE00008951F920F920FB60F9211242F933F93D4
:101EF0004F935F936F937F938F939F93AF93BF9312
:101F0000EF93FF938091630182FD8BDD80916301EC
:101F100083FF07C0DCDD8AEF90E090931B01809384
:101F20001A01FF91EF91BF91AF919F918F917F9196
:101F30006F915F914F913F912F910F900FBE0F9036
:101F40001F9018951F920F920FB60F9211242F9386
:101F50003F934F935F936F937F938F939F93AF9331
:101F6000BF93EF93FF93E89881E08CBB809163016E
:101F700082FD57DD8091630183FDA9DD9EDA8EEF3E
:101F800090E090931B0180931A01FF91EF91BF9114
:101F9000AF919F918F917F916F915F914F913F9101
:101FA0002F910F900FBE0F901F9018951F920F92B8
:101FB0000FB60F9211242F933F934F935F936F931C
:101FC0007F938F939F93AF93BF93EF93FF938091F2
:101FD00086009091870090935E0180935D018091CF
:101FE000810090E489278093810080915D01909128
:101FF0005E0181159E4FB0F4B09B14C080915F01CB
:1020000090916001A0916101B09162010196A11DC2
:10201000B11D80935F0190936001A0936101B09323
:102020006201B09A89DDFF91EF91BF91AF919F91CD
:102030008F917F916F915F914F913F912F910F9071
:102040000FBE0F901F9018951F920F920FB60F9210
:1020500011248F939F93AF93BF938091630182FF6D
:1020600014C080915F0190916001A0916101B091D5
:1020700062010196A11DB11D80935F0190936001E3
:10208000A0936101B093620101C0A895BF91AF9187
:102090009F918F910F900FBE0F901F9018951F92D8
:1020A0000F920FB60F9211242F933F934F935F938C
:1020B0006F937F938F939F93AF93BF93EF93FF9310
:1020C0008091630183FD02C0A8957EC080914F017D
:1020D000811121C08091570190915801A09159011F
:1020E000B0915A010197A109B109809357019093CA
:1020F0005801A0935901B0935A01809157019091D2
:102100005801A0915901B0915A01892B8A2B8B2B30
:1021100009F054C01BC08091510190915201A091CF
:102120005301B0915401892B8A2B8B2B11F4CFDCF6
:102130004BC09FDD8091570190915801A0915901AA
:10214000B0915A01892B8A2B8B2B21F58091550157
:1021500090915601909389008093880091E090932C
:102160004F0180914E01811108C080918000806CE8
:102170008093800090934E0127C0809180008068FA
:1021800080938000809180008F7B809380001092EC
:102190004E011AC010924F01809155019091560145
:1021A00097FD0CC0809155019091560190589093E5
:1021B00056018093550180E090E802C08FEF9FEFB9
:1021C0009093890080938800FF91EF91BF91AF9128
:1021D0009F918F917F916F915F914F913F912F913F
:1021E0000F900FBE0F901F901895CF93CFB7F89414
:1021F000A89561E08FEF9FEF0E94AC028FE39CE90E
:102200000197F1F700C000009FEF26E781E09150B1
:1022100020408040E1F700C000001ADC90931B01D1
:1022200080931A01789401C0A8958091630182FD82
:10223000FBCF80E090E00E9478020E94C00281E023
:10224000A6D9CFBF80911A0190911B01019729F067
:1022500020911A0130911B0102C02AE030E0C9012F
:10226000CF910895CF93CFB7F894A89560E08FEF02
:102270009FEF0E94AC028FE39CE90197F1F700C049
:102280000000F7DC8091570190915801A09159010D
:10229000B0915A018093510190935201A093530140
:1022A000B0935401409151015091520160915301FA
:1022B000709154018091550190915601A0E0B0E0D9
:1022C000BA0155274427842B952BA62BB72B809337
:1022D000510190935201A0935301B093540187DDB3
:1022E00090931B0180931A01789401C0A895809166
:1022F000630183FDFBCF80E090E00E947802809133
:10230000510190915201A0915301B0915401892B38
:102310008A2B8B2B31F08091EB0080628093EB0055
:1023200002C00E94C00281E032D9CFBF80911A0161
:1023300090911B01019729F020911A0130911B0106
:1023400002C02BE030E0C901CF9108950F931F9395
:10235000CF93DF9300D01F92CDB7DEB7EEE6F1E06A
:102360008091F100819381E0E637F807C9F7809109
:102370006E0190916F01953009F480C038F491306E
:1023800091F170F0933009F00AC12DC0983009F432
:10239000C8C0993009F4DBC0963009F000C190C084
:1023A000803821F0823809F0FAC008C080916901B4
:1023B00090916A01992369F082600BC0809172014B
:1023C0008093E9008091EB0085FB882780F91092CB
:1023D000E9009091E800977F9093E8008093F100E6
:1023E0001092F100A9C0882319F0823009F0D7C0FB
:1023F0008F7121F0823009F0C3C00BC08091700151
:10240000813009F0BDC0933009F080E080936A010B
:102410002FC08091700181112BC080917201909129
:10242000730187709927009709F4AAC08093E90087
:102430002091EB0020FF1CC020916F01233021F47C
:102440008091EB00806212C09091EB0090619093BC
:10245000EB0021E030E001C0220F8A95EAF72093DB
:10246000EA001092EA008091EB0088608093EB0014
:102470001092E9008091E800877F65C081118FC0CC
:1024800000917001109171018091E800877F809325
:10249000E800BAD005C080916D01882309F470C0AE
:1024A0008091E80080FFF7CFC8018F7799270097C8
:1024B00019F023E020936D0180688093E30060C0F1
:1024C0008058823008F06BC09E012D5F3F4FAE01F7
:1024D0004F5F5F4F60917201809170019091710127
:1024E0000E94E806BC01009709F44AC08091E80008
:1024F000877F8093E8002B8189819A81211102C016
:1025000005D205C0213011F465D201C09ED1809161
:10251000E800982F9B7F9093E8008F778093E800E6
:102520002FC08038E1F58091E800877F8093E80034
:1025300080916B018093F1008091E800982F9E7F3D
:102540009093E8008F778093E8005ED019C08111E6
:1025500026C090917001923098F48091E800877FB6
:102560008093E80090936B014FD080916B0188239A
:1025700011F084E001C083E080936D010E946B0143
:102580008091E80083FF0EC08091EB008062809311
:10259000EB008091E800877F8093E80003C00E94F1
:1025A000CE00EECF0F900F900F90DF91CF911F9143
:1025B0000F9108958093E900EBEEF0E08081816057
:1025C0008083EDEEF0E010826093EC004083809118
:1025D000EE00881F8827881F08951092F40080E07D
:1025E0008093E9001092F0001092E8009091ED00C5
:1025F0009D7F9093ED009091EB009E7F9093EB0078
:102600008F5F853069F7089580916E0187FD05C061
:102610008091E80080FF0FC013C08091E80082FD28
:1026200005C080916D018111F8CF08958091E80077
:10263000982F9B7F09C080916D018111E9CF08958A
:102640008091E800982F9E7F9093E8008F77809389
:10265000E800089585E69091EC0090FF05C0909108
:10266000E80090FF05C019C09091E80092FD15C0E8
:1026700090916D01992399F09091EB0095FD11C017
:102680009091E10092FFE7CF9091E1009B7F9093C2
:10269000E100815001F783E0089580E0089582E031
:1026A000089581E00895FF920F931F93CF93DF93D6
:1026B000EC018B01CFDFF82E8823E9F023C0809155
:1026C000E80085FD15C08091E800982F9B7F9093CE
:1026D000E8008F778093E8000115110521F4BADF37
:1026E000882349F00BC0F80109958130C1F708C073
:1026F0008091F1002197209711F704C0F82E02C0B5
:1027000064E0F62E8F2DDF91CF911F910F91FF90F6
:102710000895AF92BF92CF92DF92EF92FF920F9304
:102720001F93CF93DF931F92CDB7DEB7C82E8B01D7
:102730007A0199838FDFD82E998181112BC0AC2C1F
:10274000B92E20C08091E80085FD15C08091E80079
:10275000982F9E7F9093E8008F778093E800E11494
:10276000F10421F477DF882369F010C0F70109959F
:102770008130C1F70DC0F50181915F018093F100B7
:102780000150110901151105E9F604C0D82E02C047
:1027900074E0D72E8D2D0F90DF91CF911F910F9167
:1027A000FF90EF90DF90CF90BF90AF900895AF92E1
:1027B000BF92CF92DF92EF92FF920F931F93CF932E
:1027C000DF931F92CDB7DEB7C82E8B017A019983B4
:1027D00041DFD82E998181112BC0AC2CB92E20C09D
:1027E0008091E80085FD15C08091E800982F9B7FBF
:1027F0009093E8008F778093E800E114F10421F4CE
:1028000029DF882369F010C0F70109958130C1F7ED
:102810000DC08091F100F50181935F010150110914
:1028200001151105E9F604C0D82E02C014E0D12E1E
:102830008D2D0F90DF91CF911F910F91FF90EF9011
:10284000DF90CF90BF90AF900895209174013091A8
:1028500075012617370768F06115710559F4209145
:10286000E800322F3E7F3093E8002F772093E80076
:1028700001C0B9019C0180E03AC09091E80093FD4D
:1028800041C09091E80092FF06C08091E80082FF6D
:1028900034C080E0089590916D019923A9F1909141
:1028A000E80090FF24C08091F20090E0F901821BC3
:1028B000930B05C021912093F100615071099F0194
:1028C000280F391F6115710519F02830310590F373
:1028D00081E02830310509F080E09091E800292F4F
:1028E0002E7F2093E8009F779093E8009F01611569
:1028F000710519F68111C1CFC8CF80916D01811189
:10290000C4CF02C081E0089582E00895209174014F
:10291000309175012617370768F06115710559F474
:102920002091E800322F3E7F3093E8002F772093EC
:10293000E80001C0B901AC0120E03CC08091E80092
:1029400083FD44C08091E80082FF06C08091E800CA
:1029500082FF37C080E0089580916D018823C1F126
:102960008091E80080FF26C02091F20030E0CA018B
:10297000241B350B06C00196E491E093F1006150F1
:102980007109FC01A901480F591F6115710519F062
:102990004830510580F321E04830510509F020E02E
:1029A0003091E800432F4E7F4093E8003F7730930B
:1029B000E800AC016115710509F0C0CF2111BECF4F
:1029C000C5CF80916D018111C1CF02C081E0089512
:1029D00082E00895EF92FF920F931F93CF93DF93BE
:1029E000EB0120917401309175012617370760F0D3
:1029F000209759F42091E800322F3E7F3093E80071
:102A00002F772093E80001C0E9019C0140E037C026
:102A10008091E80083FD40C08091E80082FD33C0D2
:102A200080916D018823D1F18091E80080FF27C05B
:102A30000091F20010E0C901021B130B09C07C01D8
:102A40002FEFE21AF20AB5D58093F1002197C70162
:102A50009C01200F311F209719F02830310578F3A1
:102A600041E02830310509F040E02091E800322FA4
:102A70003E7F3093E8002F772093E8009C01209759
:102A800039F64111C5CF8091E80082FD09C08091DF
:102A90006D018111F8CF02C081E003C082E001C066
:102AA00080E0DF91CF911F910F91FF90EF900895FB
:102AB00066D068D010926D0110926B0110926A017D
:102AC0001092690184E089BD89B5826089BD09B42D
:102AD00000FEFDCF8091D800982F9F779093D8006B
:102AE00080688093D800809163008E7F809363001C
:102AF0008091D8008F7D8093D8008091E0008E7FF8
:102B00008093E0008091E1008E7F8093E1008091CE
:102B1000E20081608093E2008091E100877F8093F2
:102B2000E1008091E20088608093E2000895C0DFB8
:102B3000E0EEF0E0808181608083E8EDF0E080816C
:102B40008F77808319BC10926C010895B1DF81E00A
:102B500080936C01789408950895CF9380916D01CE
:102B6000882359F0C091E900C7701092E900809164
:102B7000E80083FDEBDBC093E900CF91089510924C
:102B8000E20008951092E10008951F920F920FB68F
:102B90000F9211242F933F934F935F936F937F93E3
:102BA0008F939F93AF93BF93EF93FF938091E10037
:102BB00080FF1DC08091E20080FF19C08091E1007C
:102BC0008E7F8093E1008091E2008E7F8093E2000F
:102BD0008091E20080618093E2008091D800806261
:102BE0008093D80019BC10926D010E94C80080919A
:102BF000E10084FF2BC08091E20084FF27C084E0C5
:102C000089BD89B5826089BD09B400FEFDCF809180
:102C1000D8008F7D8093D8008091E1008F7E8093D3
:102C2000E1008091E2008F7E8093E2008091E200DB
:102C300081608093E20080916B01882311F084E031
:102C400001C081E080936D010E94C0008091E1008D
:102C500083FF28C08091E20083FF24C08091E100BF
:102C6000877F8093E10082E080936D0110926B0179
:102C70008091E1008E7F8093E1008091E2008E7F61
:102C80008093E2008091E20080618093E200A5DC05
:102C900042E060E080E08EDC8091F000886080930C
:102CA000F0005ADF8091E10082FF0AC08091E200CB
:102CB00082FF06C08091E1008B7F8093E1004CDFB2
:102CC000FF91EF91BF91AF919F918F917F916F9104
:102CD0005F914F913F912F910F900FBE0F901F90DA
:102CE00018951F920F920FB60F9211241F932F93D6
:102CF0003F934F935F936F937F938F939F93AF9384
:102D0000BF93CF93DF93EF93FF93C9EED0E0188189
:102D1000177023DFE8EEF0E08081877F80831883DF
:102D2000FF91EF91DF91CF91BF91AF919F918F91E3
:102D30007F916F915F914F913F912F911F910F90D4
:102D40000FBE0F901F9018950E946907982F83FB64
:102D5000882780F921E0822790FF826097FF8460B6
:102D600008951F93CF93DF93D82F162FC9EC04C07B
:102D700085E38A95F1F700000E9469078D2381138E
:102D800002C0C150A9F70E946907D82381E0D1137E
:102D900001C080E0DF91CF911F910895CF93DF9321
:102DA000E82FF0E0E05DFE4FD491611102C0C0E079
:102DB0000AC0CD2F08C00E943201882359F085E354
:102DC0008A95F1F700000E9469078D238C1799F30B
:102DD00081E001C080E0DF91CF9108951F93CF93F0
:102DE000DF93182F47989BB1967F9BB95E9A2FEF80
:102DF00081EE94E0215080409040E1F700C0000057
:102E00005E98CCE4DDE147989BB1967B9BB987EC5B
:102E100090E00197F1F700C000004A9905C087E5EE
:102E200092E00197F1F70CC087EC90E00197F1F781
:102E300000C000004A9907C08FE891E00197F1F7C0
:102E400000C0000014C0479A8FE891E00197F1F7A5
:102E500000C000004A9B02C0479809C047988FE80D
:102E600091E00197F1F700C000004A9908C00E9464
:102E70003201882321F0219731F61111C4CFDF915F
:102E8000CF911F910895CF92DF92EF92FF920F930F
:102E90001F93CF93DF937C0161E00E94AC02C0E0FE
:102EA000D0E0CC24C39401E513EC10C0015011090B
:102EB00021F00E943201811105C00E94C002C0E0D1
:102EC000D0E05DC08AE68A95F1F700C0499BEECF5D
:102ED000809165018111F1CF5B9889EC04C09AE083
:102EE0009A95F1F700C0499B02C08150C1F7499BF8
:102EF0000AC0C09265015B9A87E191E00197F1F702
:102F000000C000005B98F89461E081E02ADF182F90
:102F100088E0D82E00E00FC060E081E022DF182FAB
:102F2000882339F006954A99006861E081E019DF4D
:102F3000182FDA9411F01111EFCF7894112369F062
:102F40005B9A802F0E94F402811117C0219687ECB2
:102F500090E00197F1F700C00000A895CE15DF05BD
:102F600041F0112341F080916501882309F49BCF42
:102F700004C0111102C0C0E0D0E00E94C002CE0126
:102F8000DF91CF911F910F91FF90EF90DF90CF9045
:102F90000895CF92DF92EF92FF920F931F93CF93FA
:102FA000DF931F92CDB7DEB78C01D62E109265014C
:102FB000009709F40AC060E00E94AC0260E080EC77
:102FC000D0DE811105C00E94C00200E010E08BC07D
:102FD0005B9892E0C92ECD20D1FC479A589A2AE0FE
:102FE0002A95F1F700C068E088E0BBDE811103C0DC
:102FF00047985898E8CF85ED8A95F1F70000780159
:103000004A9B03C000E010E044C0589804C00E94EE
:1030100032018823B9F34A9BFACF5FC0C11006C0C2
:1030200068E088E09EDE60E088E09BDE589ACE0192
:1030300001960E9435038111E5CF998188E0EBE28A
:10304000F1E03197F1F700C0000090FD05C05B9AF8
:10305000FAE0FA95F1F700C058982AE62A95F1F7B8
:1030600000C0589A5B989695815049F768E088E0CF
:1030700078DE882339F281E0E81AF108EFE8F1E020
:103080003197F1F700C00000A895E114F10409F0B0
:10309000B7CF0E94C00201151105C1F0D0FE14C0C7
:1030A0005B9A4798F5E0FA95F1F7000058982AE006
:1030B0002A95F1F700C005C00E943201882309F467
:1030C00084CF4999F9CF0FC047980DC08AE68A95F9
:1030D000F1F700C04798589806C091E0E916F1044E
:1030E00009F0A4CF9BCFC8010F90DF91CF911F9122
:1030F0000F91FF90EF90DF90CF90089561110FC076
:10310000E82FF0E0E05DFE4FE491E7FF02C0479A50
:10311000EF77EE2321F18BB18E2B8BB9089570E000
:10312000FB01E05DFE4F6491811101C00EC0E82FEC
:10313000F0E0E05DFE4FE491E7FF02C0479AEF77D1
:10314000EE2319F08BB18E2B8BB967FF02C0479825
:103150006F77662321F08BB1609568236BB9089572
:1031600047988BB1867B8BB985E38A95F1F7000090
:1031700088E291E00895CF93DF93C82FD8E0C7FF8E
:1031800002C05B9A01C05B988AE08A95F1F700C0A3
:1031900058988AE08A95F1F700C004C00E94320175
:1031A0008823F1F04999FACFC7FF02C05B9806C0A7
:1031B0005B9A04C00E943201882391F0499BFACFA8
:1031C000589A5B988AE08A95F1F700C004C00E9483
:1031D0003201882329F04A99FACFCC0FD15079F6E1
:1031E000DF91CF910895FF920F931F93CF93DF93B9
:1031F00018E0C0E0FF24F39406C00E943201811160
:1032000002C0CFEF2CC04A9BF8CF58988AE08A952D
:10321000F1F700C0D9B1D695D170DF2511F000E8E3
:1032200001C000E05B9A04C00E943201882349F388
:1032300089B1869581708F25D817B1F35B988AE0A4
:103240008A95F1F700C004C00E9432018823C9F2B8
:103250004A99FACFC695C02B589A1150A1F68C2FD7
:10326000DF91CF911F910F91FF900895CF93DF933E
:10327000D82FC4E0D0FF02C05B9A01C05B988AE0FF
:103280008A95F1F700C0479804C00E943201882354
:10329000E1F0499BFACFD695D0FF02C05B9A01C0FE
:1032A0005B988AE08A95F1F700C0D695479A04C0EA
:1032B0000E943201882349F04999FACFC150D1F6D2
:1032C0005B988AE08A95F1F700C0DF91CF9108956D
:1032D0001F93CF93DF93D4E0C0E006C00E94320179
:1032E000811102C0CFEF24C0499BF8CF8AE08A95B4
:1032F000F1F700C04A9902C010E801C010E04798F9
:1033000004C00E943201882369F34999FACF8AE008
:103310008A95F1F700C08C2F8695812B86954A9966
:1033200002C0C0E801C0C0E0C82B479AD150E1F606
:103330008C2FDF91CF911F910895CF93DF93EC01F4
:1033400004C00E9432018823D9F04A99FACF8881BB
:103350009FEF94B985B982E08A95F1F700C058983B
:1033600004C00E943201882359F04A9BFACF898118
:103370009FEF94B985B982E08A95F1F700C0589A19
:10338000DF91CF910895CF93DF93EC0104C00E94A9
:103390003201882399F04A99FACF14B815B883B14D
:1033A0008883589804C00E943201882339F04A9BD0
:1033B000FACF14B815B883B18983589ADF91CF91A9
:1033C00008959FEF94B985B982E08A95F1F700C01E
:1033D000589804C00E943201882351F04A9BFACFCA
:1033E000589A04C00E943201882311F04A99FACFFA
:1033F0000895CF93589806C00E943201811102C0EF
:10340000CFEF0DC04A9BF8CF14B815B8C3B1589A86
:1034100004C00E943201882399F34A99FACF8C2F75
:10342000CF910895479A8BB1867F8BB98AE18A95AF
:10343000F1F700C04A9BFECF95E09A95F1F70000A6
:1034400014B815B883B147984A99FECF9AE19A9576
:10345000F1F700C0089531E029B122FB222720F9BD
:1034600023272613F9CF14B815B823B1FC01208304
:1034700080E00895479A9BB1967F9BB99AE19A950F
:10348000F1F700C04A9BFECF9FEF94B985B985E064
:103490008A95F1F70000479895E39A95F1F70000B7
:1034A0004A99FECF14B815B883B1089521E099B1B7
:1034B00092FB992790F992279613F9CF9FEF94B931
:1034C00085B980E00895479A8BB1867E8BB925E057
:1034D0002A95F1F7000098E080E04D99FECF4D9BD2
:1034E000FECF22E02A95F1F729B1880F22FB22278F
:1034F00020F9822B915089F74798499BFECF089578
:10350000479A9BB1967E9BB92AE12A95F1F700C0B4
:103510004999FECF98E087FF02C05B9801C05B9A93
:103520005C9A880F00C000C000005C9825E02A95D6
:10353000F1F7915081F785E08A95F1F700004798FF
:10354000499BFECF089524E630E041E003C02150BE
:103550003109C9F099B19695917094279613F7CFD8
:1035600098E087FF02C05B9801C05B9A5C9A880F65
:1035700000C000C000005C9825E02A95F1F791504A
:1035800081F780E008958FEF0895AA1BBB1B51E1DE
:1035900007C0AA1FBB1FA617B70710F0A61BB70BC3
:1035A000881F991F5A95A9F780959095BC01CD0168
:1035B0000895F999FECF92BD81BDF89A992780B5FB
:0635C0000895F894FFCF0E
:1035C6000304000F08033000300030000000060935
:1035D60075094508DF07CE07E1070100810D0000E8
:1035E6000000000000000000EE16C9174317CE16B3
:0835F600A4167E180055AAFF7F
:00000001FF
