:10000000ADC00000C9C00000C7C00000C5C00000EE
:10001000C3C00000C1C00000BFC00000BDC00000E0
:10002000BBC00000B9C000000C94CC0A0C94960B25
:10003000B3C00000B1C00000AFC00000ADC0000000
:10004000ABC00000A9C00000A7C00000A5C0000010
:10005000A3C00000A1C000009FC000009DC0000020
:100060009BC0000099C0000097C0000095C0000030
:1000700093C0000091C000008FC000008DC0000040
:100080008BC0000089C0000087C0000085C0000050
:1000900083C0000081C000004003780075006D003F
:1000A0003100350034003100200066006C006F0024
:1000B0007000700079002000610064006100700031
:1000C00074006500720020002800550053004200B3
:1000D0004B0045005900290000003A034E00610022
:1000E0007400650020004C006100770073006F0011
:1000F0006E00200061006E00640020004F00700060
:1001000065006E00430042004D0020007400650051
:1001100061006D00000004030904090220000101D0
:100120000080320904000002FF000000070583027E
:100130004000000705040240000012011001FF000A
:100140000008D01604050700010203010010041482
:1001500001110515405044544151455511241FBE0D
:10016000CFEFD0E2DEBFCDBF11E0A0E0B1E0E6E12D
:10017000FFE100E00BBF02C007900D92AE31B10766
:10018000D9F711E0AEE1B1E001C01D92AF33B10784
:10019000E1F7F0D00C94890F33CF80912F010895AF
:1001A00081E065D510922F0181E080931E010895B2
:1001B00010921E0110922D0180E059C50F931F93DC
:1001C000CF93DF93CDB7DEB728970FB6F894DEBF95
:1001D0000FBECDBF809137018076803299F58E01B8
:1001E0000F5F1F4F88E0F80111928A95E9F7B80177
:1001F0008091380146D28F3F19F484E038D522C06F
:100200009091E800977F9093E8009091370197FFD5
:100210000CC0682F772767FD7095C8010E941809E8
:100220008091E800982F9B7F08C08091E80080FFB4
:10023000FCCF8091E800982F9E7F9093E8008F7705
:100240008093E80028960FB6F894DEBF0FBECDBFAE
:10025000DF91CF911F910F910895E9EEF0E0808139
:10026000877091E090932F0194E09083ABEEB0E023
:100270009C9190629C9393E090839C9190629C935C
:1002800080830895A89580912F01811105C017D50D
:10029000882321F008D502C080E0089581E0089508
:1002A0004091E9004770E0E0F1E081E090E01CC09F
:1002B0002093E90031969C010C9002C0220F331F5D
:1002C0000A94E2F72093EA001092EA002091EB00F2
:1002D00028602093EB002091EB0025FF05C02091C2
:1002E000EB0020612093EB00DF0120812111E0CFA2
:1002F0004093E9000895D4DF46E361E883E04DD6FA
:1003000046E360E884E049D682E0B1D481E080939E
:100310002D01089524E02093E9004DEC50E070E0B9
:1003200039D780912F0181110BC08091E800982F5F
:100330009B7F9093E8008F778093E80081E0089599
:1003400080E0089523E02093E9004DEC50E070E058
:10035000D3D680912F0181110BC08091E800982F96
:100360009E7F9093E8008F778093E80081E0089566
:1003700080E00895CF93DF93CDB7DEB727970FB610
:10038000F894DEBF0FBECDBF90E080E80FB6F894C2
:1003900080936100909361000FBE2EE088E190E0B1
:1003A0000FB6F894A895809360000FBE209360006C
:1003B0000E949C0A01C0A89580911E018823D9F350
:1003C0003DD480E054D47CD0A89532C080913601D1
:1003D000843049F58093E9008091E80085FF23C0CF
:1003E00064E0CE01019696DF811103C084E03FD422
:1003F0001AC01D821E821F82BE016B5F7F4FCE011D
:100400000196E8D1181634F48D8363E0CE01059689
:1004100099DF09C0882339F084E029D48091EB006A
:1004200080628093EB002EDF811102C010922F01B9
:1004300080912D018111CACF01C0A89580911E0124
:100440008823D9F3C1CF80912901811102C00C9476
:100450001C0F88E8089590912901992351F0E091AB
:100460002201F09123018193F0932301E093220173
:10047000089590912A01943081F4982F93509330ED
:1004800040F08B3031F0833121F0843111F086312E
:1004900099F491E0909329010FC0E92FF0E0E65E16
:1004A000FE4F2081281302C09F5F03C0811104C04A
:1004B00091E090932A0102C010922A010C94440FFB
:1004C00010922101CDD30C94BD0D613011F423E0C5
:1004D00003C061110DC024E02093E9009093200136
:1004E00080931F01609303018091E80085FFFCCF9A
:1004F000089580910301813089F48091F2009091F8
:10050000F300892B31F480911F0190912001892BF8
:10051000E9F08091E800982F9E7F13C0811116C0EA
:1005200080911F0190912001009719F06DEC70E00F
:10053000ADD58091E80085FD09C08091E800982F35
:100540009B7F9093E8008F778093E8008FE0809303
:1005500003011092200110921F0108958093F10071
:1005600080911F0190912001019790932001809329
:100570001F018091E80085FF05C080912F01811146
:1005800013C008958091E800982F9E7F9093E80013
:100590008F778093E8008091E80085FDEECF809111
:1005A0002F018823C1F3E9CF8FEF08950F931F9395
:1005B000CF93DF938C01EB0161E0CE0186DF06C0B3
:1005C000F8010995CBDF2197811102C02097C1F76F
:1005D00090DF80E0DF91CF911F910F9108952091DE
:1005E000E80025FF05C020912F01222399F021C0AA
:1005F0002091E800322F3B7F3093E8002F77209343
:10060000E8002091E80025FDEECF20912F01222364
:10061000C1F3E9CF2091F100FC01208380911F01FB
:100620009091200101979093200180931F0180E019
:1006300008958FEF0895EF92FF920F931F93CF933A
:10064000DF931F92CDB7DEB77C018B0160E0C8015C
:100650003CDF0AC0CE010196C2DF015011098111B1
:1006600006C08981F70109950115110599F741DF48
:1006700080E00F90DF91CF911F910F91FF90EF904D
:100680000895CF93DF93EB01823009F48DC038F4E5
:10069000882309F441C0813009F094C040C0833000
:1006A00009F47DC0843009F08DC08091E800877F17
:1006B0008093E8008091E80080FFFCCF8091E80003
:1006C000982F9E7F9093E8008F778093E8002FEF1C
:1006D00080E792E0215080409040E1F700C00000A8
:1006E00088E10FB6F89480936000109260000FBE0E
:1006F00011D7F89493E080E80FB6F89480936100E6
:10070000909361000FBE10928100109289001092A8
:1007100088000C9400785AC0188281E058C084E2A6
:1007200091E0909323018093220183E0A0D28091F5
:10073000300190913101892B29F4C2DE909331016F
:10074000809330018091300190913101892BD1F15A
:1007500087E0888383E08983809121018A83909157
:100760002801992379F081608A8381E080932801B0
:10077000E0913001F09131010190F081E02D80E0B5
:1007800009956BDD80912801806880932801809114
:100790002D01811119C08A8182608A8315C010924F
:1007A000280182E064D212C08091280180FD0EC031
:1007B000E0913001F09131010190F081E02D80E075
:1007C000099504C08FEF03C088E001C080E0DF918D
:1007D000CF910895CF92DF92EF92FF920F931F93E4
:1007E000CF93DF9300D000D0CDB7DEB77C016B0193
:1007F000809128018E7F80932801D7019C911296C9
:100800000D911C91139783E09C8331D29C819A3186
:1008100009F47AC188F4973109F437C130F498307B
:10082000E9F0993009F08EC19BC0983109F439C1C3
:10083000993109F087C160C19D3109F44EC138F486
:100840009B3109F441C19C3109F07CC12DC19E311D
:1008500009F465C19F3109F075C16AC18091210118
:1008600084FD17C0F7018181807F803421F140F43D
:100870008032C9F08033D9F0803109F063C109C0FA
:10088000803699F1803709F466C0803509F05AC185
:1008900028C0E0913001F09131010480F581E02D14
:1008A000C8010995F0C0B80181E09EE057C0B801C9
:1008B00088E79EE053C061E0C80107DE0EC0CE01AC
:1008C00001960E94CF0E898149DE8111C7C08A81BD
:1008D00045DE8111C3C0025011090115110579F7D8
:1008E000BDC0B80183E09FE039C06801E894D7F843
:1008F000C114D10409F4C7C01092290161E0C601F6
:10090000E4DD14988FE19EE40197F1F700C0000048
:100910000E941C0FE12CF12C00271078B7016170A8
:100920007727CE0103960E94350F87FDACC08B81DF
:1009300015DE81110CC00115110519F08B8185356B
:1009400031F09FEFE91AF90AEC14FD0439F7D1DD13
:100950000E941C0F98C0B80183E292E027DE93C08A
:100960008091210184FD18C0D70111968C91807F60
:10097000803441F140F48032E9F08033F9F0803185
:1009800009F0E0C009C08036C9F1803709F477C0AA
:10099000803509F0D7C02EC0E0913001F0913101CF
:1009A000D70111966C916F700280F381E02DC80120
:1009B000099573C0B80187EC9DE064C0B80186E476
:1009C0009EE060C060E0C80180DD10C0CE010196ED
:1009D00006DE811143C0CE01029601DE81113EC0C8
:1009E000CE0101960E94AD0E0250110901151105AC
:1009F00069F734C0B8018DEE9EE044C001151105C1
:100A000009F441C01092290160E0C8015EDD14982C
:100A100084E2E82E81E0F82E05C0D7018D917D019A
:100A20000E94440F8091220190912301E816F9065B
:100A3000A1F784E291E09093230180932201E12CBD
:100A4000F12CCE010396CBDD882351F0B701617004
:100A5000772780E00E94600F0E941C0F4ADD13C0C0
:100A6000B701617077278B810E94600F87FD0BC0F3
:100A7000BFEFEB1AFB0AE016F10619F7E7CFB80152
:100A80008BE292E0D8DD80E05EC020912E0181E013
:100A900090E0211102C080E090E0F6019283818312
:100AA0004FC010922E014CC0E0913001F091310105
:100AB0000680F781E02DD70112966C91129711965E
:100AC0008C9109958823F9F2E0913001F091310180
:100AD0000084F185E02D099527C0E0913001F09167
:100AE00031010284F385E02DD70112966C911297A3
:100AF00011968C91099524C08091210184FD22C01A
:100B000017B818B886B110C08091210184FD1AC0B1
:100B1000D70111968C919FEF97B988B911C0809138
:100B2000210184FD0FC08FDCF6018183128208C091
:100B30008091210184FD06C0D70111968C918BDC38
:100B400082E001C08FEF0F900F900F900F90DF9118
:100B5000CF911F910F91FF90EF90DF90CF9008956C
:100B60000F931F93CF93DF93EA018901D9011C9260
:100B7000692F77276230710541F06330710551F0BC
:100B80006130710509F444C048C0E0E2F0E08AE158
:100B900091E047C099278130910579F038F0823093
:100BA000910591F0039709F038C015C0E6E1F1E036
:100BB000E491F0E086E191E034C0EAEDF0E0E49108
:100BC000F0E08AED90E02DC0E8E9F0E0E491F0E09B
:100BD00088E990E026C080E090E00E94810F809537
:100BE00090E0ECE0F1E02AE030E007C0B9010E94BB
:100BF0006D0FC09692938293CB010097B9F7E09165
:100C00000401F0E082E0D8018C9384E091E009C017
:100C1000E2E1F0E08AE391E004C0E0E0F0E080E0AF
:100C200090E099838883CF01DF91CF911F910F913D
:100C300008959BB19F70982B9BB908958AB1806FDE
:100C40008AB98BB18F708BB98DE093E09093890056
:100C500080938800E1E8F0E080818D6080830895D2
:100C600085E581B98AEA82B918B817B808958093E2
:100C70002B01823079F028F4882341F0813091F4FF
:100C800007C0833049F0843069F408C080E809C0A7
:100C900080E407C080E205C080E601C080E980935F
:100CA0002C01C7CF089580912B018350823030F4FE
:100CB0008BB1807F90912C018927BBCF0895B19B88
:100CC00003C0B19A81E0089580E008950F931F93C7
:100CD000CF93DF93CDB7DEB7AD970FB6F894DEBFF5
:100CE0000FBECDBFE7E3F1E08091F100819321E0F9
:100CF000EF33F207C9F780913701909138019530B1
:100D000009F480C038F4913091F170F0933009F01B
:100D100037C12DC0983009F4F6C0993009F409C1E3
:100D2000963009F02DC190C0803821F0823809F04A
:100D300027C108C08091320190913301992369F055
:100D400082600BC080913B018093E9008091EB00B1
:100D500085FB882780F91092E9009091E800977F41
:100D60009093E8008093F1001092F100D7C088239F
:100D700019F0823009F004C18F7121F0823009F03E
:100D8000F0C00BC080913901813009F0EAC0933086
:100D900009F080E0809333012FC0809139018111E7
:100DA0002BC080913B0190913C018770992700975F
:100DB00009F4D7C08093E9002091EB0020FF1CC00C
:100DC00020913801233021F48091EB00806212C021
:100DD0009091EB0090619093EB0021E030E001C036
:100DE000220F8A95EAF72093EA001092EA00809198
:100DF000EB0088608093EB001092E9008091E8009E
:100E0000877F93C08111BCC00091390110913A01D4
:100E10008091E800877F8093E800E9D005C0809149
:100E20003601882309F49DC08091E80080FFF7CF48
:100E3000C8018F779927009719F023E02093360196
:100E400080688093E3008DC08058823008F098C09D
:100E50008091390190913A018C3D23E0920759F538
:100E600083E08A838AE28983DE01139680E09EE034
:100E700031E2E92FF0E030935700E49180FF03C0A6
:100E8000E295EF709F5FEF702E2F205D2A3308F000
:100E9000295F2C9311961C92119712968F5F8431C3
:100EA00041F78091E800877F8093E8006AE270E074
:100EB000CE0101961DC09E01235D3F4FAE01455DF1
:100EC0005F4F60913B014CDEBC01009709F449C0C3
:100ED0008091E800877F8093E8002DA58BA59CA5D5
:100EE000211102C000D205C0213011F45AD201C034
:100EF0009FD18091E800982F9B7F9093E8008F7797
:100F00008093E8002EC08038D9F58091E800877F73
:100F10008093E800809134018093F1008091E80093
:100F2000982F9E7F9093E8008F778093E8005FD0A2
:100F300018C0811125C090913901923090F48091B0
:100F4000E800877F8093E8009093340150D080912F
:100F50003401882311F084E001C083E080933601DE
:100F6000CAD98091E80083FF0DC08091EB008062B8
:100F70008093EB008091E800877F8093E80002C0B7
:100F80001DD9EFCFAD960FB6F894DEBF0FBECDBF23
:100F9000DF91CF911F910F9108958093E900EBEEBF
:100FA000F0E0808181608083EDEEF0E0108260935C
:100FB000EC0040838091EE00881F8827881F0895E9
:100FC0001092F40080E08093E9001092F0001092FB
:100FD000E8009091ED009D7F9093ED009091EB00E3
:100FE0009E7F9093EB008F5F873069F70895809123
:100FF000370187FD05C08091E80080FF0FC013C056
:101000008091E80082FD05C0809136018111F8CF02
:1010100008958091E800982F9B7F09C08091360148
:101020008111E9CF08958091E800982F9E7F9093D9
:10103000E8008F778093E800089585E69091EC00B2
:1010400090FF05C09091E80090FF05C019C09091F5
:10105000E80092FD15C090913601992399F0909186
:10106000EB0095FD11C09091E10092FFE7CF9091C8
:10107000E1009B7F9093E100815001F783E00895A8
:1010800080E0089582E0089581E00895FF920F9333
:101090001F93CF93DF93EC018B01CFDFF82E8823D2
:1010A000E9F023C08091E80085FD15C08091E8003B
:1010B000982F9B7F9093E8008F778093E80001152D
:1010C000110521F4BADF882349F00BC0F801099516
:1010D0008130C1F708C08091F1002197209711F766
:1010E00004C0F82E02C064E0F62E8F2DDF91CF9160
:1010F0001F910F91FF900895AF92BF92CF92DF9210
:10110000EF92FF920F931F93CF93DF931F92CDB770
:10111000DEB7C82E8B017A0199838FDFD82E998193
:1011200081112BC0AC2CB92E20C08091E80085FD28
:1011300015C08091E800982F9E7F9093E8008F77EC
:101140008093E800E114F10421F477DF882369F04B
:1011500010C0F70109958130C1F70DC0F5018191EB
:101160005F018093F1000150110901151105E9F6A5
:1011700004C0D82E02C074E0D72E8D2D0F90DF91C1
:10118000CF911F910F91FF90EF90DF90CF90BF9084
:10119000AF900895AF92BF92CF92DF92EF92FF92FD
:1011A0000F931F93CF93DF931F92CDB7DEB7C82E57
:1011B0008B017A01998341DFD82E998181112BC04F
:1011C000AC2CB92E20C08091E80085FD15C080911F
:1011D000E800982F9B7F9093E8008F778093E8003A
:1011E000E114F10421F429DF882369F010C0F7012C
:1011F00009958130C1F70DC08091F100F50181930F
:101200005F010150110901151105E9F604C0D82E3E
:1012100002C014E0D12E8D2D0F90DF91CF911F9140
:101220000F91FF90EF90DF90CF90BF90AF90089517
:1012300020913D0130913E012617370768F0611576
:10124000710559F42091E800322F3E7F3093E80079
:101250002F772093E80001C0B901FC0120E034C0E1
:101260008091E80083FD3BC08091E80082FF06C0CA
:101270008091E80082FF2EC080E0089580913601C1
:10128000882379F18091E80080FF1EC08091F200F0
:101290009091F30006C021912093F10061507109F3
:1012A00001966115710519F088309105A0F321E0D0
:1012B000089709F020E08091E800982F9E7F909396
:1012C000E8008F778093E8006115710549F62111D8
:1012D000C7CFCECF809136018111CACF02C081E045
:1012E000089582E0089520913D0130913E01261736
:1012F000370768F06115710559F42091E800322F25
:101300003E7F3093E8002F772093E80001C0B901B9
:101310009C0140E037C08091E80083FD3EC0809191
:10132000E80082FF06C08091E80082FF31C080E0C3
:10133000089580913601882391F18091E80080FF23
:1013400021C08091F2009091F30009C0F9012F5F54
:101350003F4FE491E093F1006150710901966115EE
:10136000710519F08830910588F341E0089709F07C
:1013700040E08091E800982F9E7F9093E8008F775F
:101380008093E8006115710531F64111C4CFCBCFD0
:10139000809136018111C7CF02C081E0089582E0BB
:1013A0000895EF92FF920F931F93CF93DF93EB017A
:1013B00020913D0130913E012617370760F02097BC
:1013C00059F42091E800322F3E7F3093E8002F77C8
:1013D0002093E80001C0E9019C0180E039C09091B0
:1013E000E80093FD42C09091E80092FD35C09091D5
:1013F00036019923E1F19091E80090FF29C0009116
:10140000F2001091F3007901E01AF10A07C0CA0155
:1014100078D58093F10021970F5F1F4FA701400FF0
:10142000511F742F652F209719F00830110578F39C
:1014300081E00830110509F080E09091E800292F43
:101440002E7F2093E8009F779093E800272F362F78
:10145000209729F68111C3CF8091E80082FD09C051
:10146000809136018111F8CF02C081E003C082E093
:1014700001C080E0DF91CF911F910F91FF90EF901D
:1014800008957DD084D010923601109234011092CC
:101490003301109232018CE089BD89B5826089BD2B
:1014A00009B400FEFDCF8091D800982F9F779093CC
:1014B000D80080688093D8008091D70081608093A5
:1014C000D7008091D8008F7D8093D8008091E00074
:1014D0008B7F8093E0008091E0008E7F8093E0001E
:1014E0008091E1008E7F8093E1008091E200816035
:1014F0008093E2008091E100877F8093E1008091FA
:10150000E20088608093E2008091D800816080933F
:10151000D8000895B6DFE0EEF0E08081816080833E
:10152000E8EDF0E080818F77808319BC80818F7E29
:101530008083109235010895E7EDF0E080818068A6
:1015400080839FDFE8EDF0E080818061808381E02F
:1015500080933501789408950895CF938091360152
:10156000882359F0C091E900C7701092E90080917A
:10157000E80083FDABDBC093E900CF910895E8ED6F
:10158000F0E080818C7F80831092E20008951092B9
:10159000DA001092E10008951F920F920FB60F9299
:1015A00011240BB60F922F933F934F935F936F933A
:1015B0007F938F939F93AF93BF93EF93FF9380910C
:1015C000DA0080FF17C08091D80080FF13C080919F
:1015D000DA008E7F8093DA008091D90080FF06C008
:1015E00081E0809336010E94D00004C01092360141
:1015F0000E94D8008091E10080FF1DC08091E20030
:1016000080FF19C08091E1008E7F8093E10080917E
:10161000E2008E7F8093E2008091E20080618093FF
:10162000E2008091D80080628093D80019BC85E0E8
:101630008093360191DF8091E10084FF2AC0809180
:10164000E20084FF26C08CE089BD89B5826089BD37
:1016500009B400FEFDCF8091D8008F7D8093D80023
:101660008091E1008F7E8093E1008091E2008F7E87
:101670008093E2008091E20081608093E20080919B
:101680003401882311F084E001C083E080933601A7
:1016900063DF8091E10083FF28C08091E20083FF37
:1016A00024C08091E100877F8093E10082E08093F5
:1016B0003601109234018091E1008E7F8093E10029
:1016C0008091E2008E7F8093E2008091E200806151
:1016D0008093E20075DC42E060E080E05EDC8091B7
:1016E000F00088608093F00037DF8091E10082FF96
:1016F0000AC08091E20082FF06C08091E1008B7FEA
:101700008093E10029DFFF91EF91BF91AF919F910D
:101710008F917F916F915F914F913F912F910F909A
:101720000BBE0F900FBE0F901F9018951F920F9237
:101730000FB60F9211240BB60F921F932F933F9366
:101740004F935F936F937F938F939F93AF93BF93C9
:10175000CF93DF93EF93FF93C9EED0E0188117701A
:10176000FCDEE8EEF0E08081877F80831883FF91C4
:10177000EF91DF91CF91BF91AF919F918F917F9129
:101780006F915F914F913F912F911F910F900BBEE1
:101790000F900FBE0F901F90189590B1969594FBE7
:1017A000882780F921E0822792FF826090FF846081
:1017B000089529EC04C09AE19A95F1F700C090B120
:1017C00096959823961302C02150A9F790B196954B
:1017D000982381E0961301C080E00895CF93DF93B2
:1017E000E82FF0E0E45BFE4FD491611102C0C0E04D
:1017F0000AC0CD2F08C00E944201882359F08AE117
:101800008A95F1F700C080B186958D238C1799F3E6
:1018100081E001C080E0DF91CF9108951F93CF93C5
:10182000DF93182F92B19A7E92B9169A2FEF80E724
:1018300092E0215080409040E1F700C000001698EF
:10184000CCE4DDE192B19A7A92B925E82A95F1F7D4
:101850000000059905C08BE291E00197F1F70AC0FD
:1018600095E89A95F1F70000059907C087EC90E09C
:101870000197F1F700C0000014C0109A87EC90E0C7
:101880000197F1F700C00000059B02C0109809C045
:10189000109887EC90E00197F1F700C000000599DF
:1018A00008C00E944201882321F0219759F61111A6
:1018B000C9CFDF91CF911F910895CF92DF92EF9220
:1018C000FF920F931F93CF93DF937C0161E00E94FF
:1018D0006502C0E0D0E0CC24C39401E513EC10C055
:1018E0000150110921F00E944201811105C00E949E
:1018F0007902C0E0D0E059C085E38A95F1F7000095
:10190000039BEECF80912E018111F1CF149889ECC9
:1019100004C095E09A95F1F70000039B02C0815046
:10192000C1F7039B08C0C0922E01149A8AEB8A95D6
:10193000F1F700C01498F89464E084E03ADF182FBF
:1019400088E0D82E00E00FC060E084E032DF182F7E
:10195000882339F006950599006864E084E029DF62
:10196000182FDA9411F01111EFCF7894112359F058
:10197000149A802F0E94AE02811115C0219695E81D
:101980009A95F1F70000A895CE15DF0541F01123D7
:1019900041F080912E01882309F49FCF04C01111DA
:1019A00002C0C0E0D0E00E947902CE01DF91CF9169
:1019B0001F910F91FF90EF90DF90CF900895CF92FD
:1019C000DF92EF92FF920F931F93CF93DF931F92BB
:1019D000CDB7DEB78C01D62E10922E01009709F4F8
:1019E0000AC060E00E94650260E081E4E2DE8111ED
:1019F00005C00E94790200E010E093C0149892E0C4
:101A0000C92ECD20D1FE02C095E001C094E082B184
:101A1000892B82B985E08A95F1F7000060E180E1C9
:101A2000C8DE811104C082B18A7F82B9E2CF9AE612
:101A30009A95F1F700C07801059B03C000E010E023
:101A400043C0129804C00E9442018823B9F3059B49
:101A5000FACF61C0C11006C060E180E1AADE60E09B
:101A600080E1A7DE129ACE0101960E94EF02811159
:101A7000E5CF298198E088EC8A95F1F720FD05C033
:101A8000149A85E08A95F1F70000129885E38A950B
:101A9000F1F7000082B18F7E846082B92695915063
:101AA00051F760E180E185DE882341F291E0E91A97
:101AB000F10887EC90E00197F1F700C00000A895CD
:101AC000E114F10409F0B8CF0E9479020115110563
:101AD000D1F0D0FE16C082B18E7F806182B992E0D3
:101AE0009A95F1F700C0129885E08A95F1F7000009
:101AF00005C00E944201882309F47DCF0399F9CFE4
:101B000010C010980EC095E39A95F1F7000082B1CD
:101B10008A7F82B906C081E0E816F10409F0A2CFFD
:101B200099CFC8010F90DF91CF911F910F91FF9036
:101B3000EF90DF90CF900895611109C0E82FF0E099
:101B4000E45BFE4FE49182B1E82BE2B9089570E0C6
:101B5000FB01E45BFE4F6491811104C082B160958A
:101B6000682309C0E82FF0E0E45BFE4FE49182B106
:101B7000609568236E2B62B9089582B18A7A82B922
:101B80008AE18A95F1F700C08EE091E00895CF9345
:101B9000DF93C82FD8E0C7FF02C0149A01C0149881
:101BA00085E08A95F1F70000129885E08A95F1F7B3
:101BB000000004C00E944201882301F10399FACF7A
:101BC000C7FF02C0149806C0149A04C00E944201C4
:101BD0008823A1F0039BFACF92B19F7E946092B9C3
:101BE00085E08A95F1F7000004C00E944201882335
:101BF00029F00599FACFCC0FD15069F6DF91CF913A
:101C00000895FF920F931F93CF93DF9318E0C0E0E6
:101C1000FF24F39406C00E944201811102C0CFEF5D
:101C20002EC0059BF8CF129885E08A95F1F7000049
:101C3000D0B1D3FBDD27D0F9DF2511F000E801C0DA
:101C400000E0149A04C00E944201882341F380B14D
:101C500083FB882780F98F25D817A9F3149885E08E
:101C60008A95F1F7000004C00E9442018823B9F26E
:101C70000599FACFC695C02B129A115091F68C2F68
:101C8000DF91CF911F910F91FF900895CF93DF9334
:101C9000D82FC4E0D0FF02C0149A01C0149885E088
:101CA0008A95F1F70000109804C00E944201882331
:101CB000E1F0039BFACFD695D0FF02C0149A01C081
:101CC000149885E08A95F1F70000D695109A04C023
:101CD0000E944201882349F00399FACFC150D1F6FE
:101CE000149885E08A95F1F70000DF91CF9108956F
:101CF0001F93CF93DF93D4E0C0E006C00E9442015F
:101D0000811102C0CFEF24C0039BF8CF85E08A95F4
:101D1000F1F70000059902C010E801C010E010982A
:101D200004C00E944201882369F30399FACF85E039
:101D30008A95F1F700008C2F8695812B8695059961
:101D400002C0C0E801C0C0E0C82B109AD150E1F633
:101D50008C2FDF91CF911F910895CF93DF93EC01EA
:101D600004C00E9442018823B9F00599FACF888106
:101D70009FEF97B988B900C000C0129804C00E94B4
:101D80004201882349F0059BFACF89819FEF97B9DB
:101D900088B900C000C0129ADF91CF910895CF9307
:101DA000DF93EC0104C00E944201882399F0059959
:101DB000FACF17B818B886B18883129804C00E9469
:101DC0004201882339F0059BFACF17B818B886B1BD
:101DD0008983129ADF91CF9108959FEF97B988B9BF
:101DE00000C000C0129804C00E944201882351F034
:101DF000059BFACF129A04C00E944201882311F079
:101E00000599FACF0895CF93129806C00E94420117
:101E1000811102C0CFEF0DC0059BF8CF17B818B8DD
:101E2000C6B1129A04C00E944201882399F3059911
:101E3000FACF8C2FCF91089582B18B7E816082B9C9
:101E40008DE08A95F1F70000059BFECF92E09A9510
:101E5000F1F700C017B818B886B110980599FECFF1
:101E60009DE09A95F1F70000089531E020B125FB3F
:101E7000222720F923272613F9CF17B818B826B13F
:101E8000FC01208380E0089592B19B7E916092B91D
:101E90009DE09A95F1F70000059BFECF9FEF97B963
:101EA00088B982E08A95F1F700C010989AE19A9576
:101EB000F1F700C00599FECF17B818B886B108959C
:101EC00021E090B195FB992790F992279613F9CFCD
:101ED0009FEF97B988B980E00895AA1BBB1B51E119
:101EE00007C0AA1FBB1FA617B70710F0A61BB70B8A
:101EF000881F991F5A95A9F780959095BC01CD012F
:101F00000895F999FECF92BD81BDF89A992780B5C1
:061F10000895F894FFCFD4
:101F16000304000F080330003000300000000E0CF0
:0E1F2600DF0C5D0CEE0BCD0B9C0D0055AAFFE1
:00000001FF
