:100000000C94D6020C94F3020C94F3020C94F302B9
:100010000C94F3020C94F3020C94F3020C94592305
:100020000C94F3020C94F3020C94E1250C943D24FF
:100030000C94F3020C94BA250C94F3020C94F30282
:100040000C940F230C94F3020C94F3020C94F3021F
:100050000C94F3020C94F3020C94F3020C94F3024C
:100060000C94F3020C94F3025265636F72640050B7
:100070006C6179004175746F004D616E75616C0043
:100080004E5453430050414C0043313600564943CF
:1000900000433634000000000000000000000000B3
:1000A000DFDF000000000307000307000000143E2C
:1000B000143E14000000242A7F2A1200004323105B
:1000C0000804626100387C447F3F040400000000A3
:1000D000070700000000007EFF8100000000008193
:1000E000FF7E000000082A1C7F1C2A080000080868
:1000F0003E3E080800000080E060000000000808A4
:100100000808080800000000C0C000000000C0F09F
:100110003C0F0300003E7F5149457F3E00004042B6
:100120007F7F404000727B4949494F46002263412E
:1001300049497F3600070F0808087E7E00276F496F
:1001400049497931003E7F4949497930000101012F
:1001500001017F7E00367F4949497F3600060F093D
:1001600009097F7F00000000636300000000008039
:10017000E36300000000081C366341000000141413
:100180001414141400004163361C0800000203D14B
:10019000D9090F06003E7F415D555F0E007E7F0945
:1001A00009097F7E007F7F4949497F36003E7F41B4
:1001B00041416322007F7F4141633E1C007F7F49B4
:1001C00049494141007F7F0909090101003E7F4102
:1001D00049497B7A007F7F0808087F7F0000414102
:1001E0007F7F4141002061417F3F0101007F7F0807
:1001F0001C366341007F7F4040404040007F7F06C7
:100200000C067F7F007F7F060C187F7F003E7F41BA
:1002100041417F3E007F7F0909090F06003E7F4173
:1002200061C1FFBE007F7F0909097F7600266F4903
:1002300049497B32000001017F7F0101003F7F407F
:1002400040407F7F0000071F78781F07007F7F30C6
:1002500018307F7F0063771C081C776300276F4886
:1002600048487F3F006171594D474341000000FFFE
:10027000FF8181000000030F3CF0C00000000081FE
:1002800081FFFF0000040603010306040080808054
:1002900080808080000307040000000000387C4458
:1002A00044247C78007F7F2444447C3800387C449C
:1002B0004444444400387C4444247F7F00387C54C8
:1002C00054545C080000047E7F0501000018BCA4A3
:1002D000A494FC78007F7F0804047C780000000070
:1002E0007D7D000000004040407D3D00007F7F0894
:1002F000081C7662000000007F7F000000787C18F8
:1003000030187C78007C7C0804047C7800387C44BD
:1003100044447C3800FCFC2824243C18001C1E2289
:100320002212FEFE007C7C0804040C0800485C5489
:1003300054547420003F7F4444446020003C7C407F
:1003400040207C7C00000C3C70703C0C003C7C30FD
:1003500018307C3C00446C3810386C44000C5C5005
:1003600050507C3C00446474545C4C440000083E93
:100370007741000000000000FFFF0000000041770F
:100380003E08000000000808492A1C0800808182FD
:10039000838485868788898A8B8C8D8E8F909192B5
:1003A00093949596979899AD9B8C9DAE9FA021A212
:1003B000A3A4A5A6A7A8A9AAABACADAEAFB0B1B295
:1003C000B3B4B5B6B7B8B9BABBBCBDBEBFC0C1C285
:1003D000C3C4C5C6C7C8C9CACBCCCDCECFD0D1D275
:1003E000D3D4D5D6D7D8D9DADBDCDDDEDFC0C1C2C5
:1003F000C3C4C5C6C7C8C9CACBCCCDCECFD0D1D255
:10040000D3D4D5D6F7D8D9DADBDCDDDE9F526563ED
:100410006F7264696E67007265632D252E34642ED9
:1004200074617000507265737320535441525400CC
:1004300052656164792E2E2E00AED580A83FD30080
:10044000408D142010A1C8DA12813FD922DB20A4EC
:10045000A6B00010AF4D4B444952206661696C2133
:1004600000563A2025642E25642E256400496E69C5
:10047000742E2E2E00496E76616C696420544150B2
:100480002100496E76616C69642073697A65210088
:1004900052454144206661696C21004F50454E2011
:1004A0006661696C2100436F6D706C657465210035
:1004B0004C6F6164696E673A0053656C65637420C4
:1004C00066696C653A0041626F727465642100452B
:1004D0006E746572206E616D650020616263646593
:1004E000666768696A6B6C6D6E6F70717273747534
:1004F000767778797A303132333435363738395F38
:100500002D004348444952206661696C21002F72D6
:1005100065636F72646564004E616D65206D6F6424
:10052000653A004175746F2066696E616C697A6521
:10053000005265636F72642066696E616C697A65EA
:10054000005469636B657220686F6C640054696362
:100550006B6572207370656564004B6579207370FC
:1005600065656400496E7665727400566964656FEE
:10057000004D616368696E65004F7074696F6E73DA
:100580000053656C656374206D6F64653A004E6F4F
:100590002066696C657320666F756E642100496E14
:1005A0006974206661696C656421000011241FBEB6
:1005B000CFEFD8E0DEBFCDBF11E0A0E0B1E0EEE1CB
:1005C000FCE602C005900D92AA35B107D9F727E0E5
:1005D000AAE5B1E001C01D92A735B207E1F70E947C
:1005E000CD260C940D360C940000609110046130FF
:1005F00049F1F8F0623079F160910F046623B1F1AE
:10060000613091F120E030E040E051E460918D01F3
:1006100070918E0180918F01909190010E94FD3424
:1006200060937301709374018093750190937601C8
:10063000089520E03AE840E759E480E094E9A9E72A
:10064000B9E4DACF20EA3DE447E859E480E790EBEB
:10065000A9E7B9E4D1CF20E43CE748E559E480E6D6
:100660009AE7AAE5B9E4C8CF9C01AD0160E074E265
:1006700084E799E40E94C93360938D0170938E01E1
:1006800080938F0190939001BDCF8EBD0DB407FE76
:10069000FDCF8EB5089582E3809356078FEF0E94B9
:1006A0004503282F8F3F21F0809156078111F6CF07
:1006B00081E090E02F3F11F090E080E008959C01F0
:1006C0003E5FFC0140814EBD0DB407FEFDCFFC0135
:1006D00041814EBD0DB407FEFDCF029682179307F0
:1006E00081F78FEF0E9445038FEF0E9445038FEF44
:1006F0000E944503282F2F7181E090E0253011F0F2
:1007000090E080E008952A9A8FEF0C944503CF93F0
:10071000DF93EC012A988FEF0E944503CD2B31F433
:10072000C1E0D0E0CE01DF91CF9108950E944B034C
:10073000EC01892BA9F70E948303F4CFFF920F935A
:100740001F93CF93DF93C82FD42F152F062FF72E8B
:1007500087FF09C040E050E0BA0187E30E949E0392
:10076000823048F5CF77CC3061F58C2F80640E94C1
:1007700045038F2D0E944503802F0E944503812F42
:100780000E9445038D2F0E94450385E9CC2321F06B
:1007900087E8C83009F081E00E944503CC3019F4A5
:1007A0008FEF0E944503CAE08FEF0E94450387FF49
:1007B00002C0C150C9F7DF91CF911F910F91FF90F7
:1007C00008950E94830381E090E0C11102C090E08F
:1007D00080E00E948703892B41F68FEFECCFDF92F8
:1007E000EF92FF920F931F93CF93DF937C01E90168
:1007F00080916E0183FD07C099E0440F551F661F6D
:10080000771F9A95D1F711E1C230D10508F012E1B6
:10081000812F0E949E03811116C084E1D82E0FEF14
:10082000D09277018FEF0E9445038F3FE1F48091D2
:1008300077018111F7CF123131F440E050E0BA0175
:100840008CE00E949E030E94830381E090E0CD2B08
:1008500011F490E080E0DF91CF911F910F91FF9014
:10086000EF90DF9008958E3F31F7F7018EEFF81A81
:100870000EBD0DB407FEFDCF8EB580830EBD0DB449
:1008800007FEFDCF8EB581833296EE16FF0681F707
:100890008FEF0E9445038FEF0E944503219709F0D7
:1008A000BFCFC9CF8091A10181111092A1010895FC
:1008B0008093BB0084E88093BC008091BC0087FFDC
:1008C000FCCF9091B900987F81E0983209F480E0E4
:1008D000089584E98093BC008091BC0084FDFCCF26
:1008E000089594EA9093BC009091BC0097FFFCCFD0
:1008F0009091B900987F983021F0903111F081E00B
:1009000008958093BB0084E88093BC008091BC0074
:1009100087FFFCCF8091B900887F883111F0803447
:1009200071F780E008950097E9F0DC01ED91FC910A
:1009300011973097B9F020812223A1F026813781C9
:1009400012968D919C912817390761F4818181114C
:1009500007C08091090180FD08C090E080E0089503
:1009600081E0F9CF89E090E0089583E090E0089578
:10097000DC01ED91FC91309769F0DF019D014D9113
:10098000403298F04A33D1F7AF014F5F5F4F2417E1
:10099000350719F08FEF9FEF089540814033D1F76D
:1009A0002F5F3F4FFC013183208390E080E008956A
:1009B000FC019C01255F3F4F80E080FB879587F914
:1009C0009191890FE217F307C1F708950F931F93D1
:1009D000FC019A01AB012250310941095109868974
:1009E0009789A08DB18D0297A109B1092817390700
:1009F0004A075B0778F4A281B0E00E94D83502A5CF
:100A000013A524A535A5600F711F821F931F1F9189
:100A10000F91089560E070E0CB01F9CFCF93DF93A1
:100A2000DB01FC019A012230310580F49A012E7F0E
:100A3000820F931F620F731F4217530721F0FB01B0
:100A40002081FC012083DF91CF910895CD91DD912C
:100A5000C193D19322503109E6CF80917E01880F56
:100A60000E94710480E40C94580480917E01880FE8
:100A70000E94710480E00C945804FF920F931F931E
:100A8000CF93DF93C82FF62ED0910C04DD0FDD0F2E
:100A9000DD0F0E94350580910D0480550E94580499
:100AA0008D2F88700E9458048D2F82958F708061E1
:100AB0000E9458040E942D05C05288E0C89FE001A2
:100AC000112410E000E0CB56DF4FFE01E00FF11FD4
:100AD0008491F11080680E9458040F5F1F4F083006
:100AE000110599F7DF91CF911F910F91FF900C9411
:100AF0006904CF93C82F60E00E943D0580910D04EA
:100B000090E020910C04FC0134E0EE0FFF1F3A95B9
:100B1000E1F7E451FC4FE20FF11DC0832F5F20315C
:100B2000C0F420930C048091EB038823D1F08091D2
:100B30000D0420E1829FC001112420910C048451F6
:100B40009C4F820F911D61E0FC018081CF910C943C
:100B50003D0510920C0401968170992780930D0435
:100B6000E2CFCF9108951F93CF93DF93623078F552
:100B7000803168F5C62FD82F1091EB03112389F02F
:100B800080910D0420E1829FC001112420910C046A
:100B900084519C4F820F911D60E0FC0180810E9476
:100BA0003D05D0930C04C0930D04112381F0F0E1B6
:100BB000CF9FB001112464517C4FFB01ED0FF11D5B
:100BC00061E08081DF91CF911F910C943D05DF9111
:100BD000CF911F91089580910D0420E1829FC00163
:100BE000112420910C0484519C4F820F911DFC0113
:100BF00080811092EB0360E00C943D0590917801A8
:100C000098238091780189278093780180917A01D7
:100C1000892390917A01982790937A010895CF9330
:100C2000DF93EC01AE89BF892C91211102C0DC0158
:100C30001996FD0101900020E9F73197EA1BFB0BA3
:100C4000EC01888583FD10C084FF07C081E090E03F
:100C50002C912E3231F480E004C081E090E0359791
:100C6000D0F3DF91CF91089580E090E0FACFCF925A
:100C7000DF92EF92FF920F931F93CF93DF93EB01DD
:100C800069017A0181116DC00115110509F469C06E
:100C90008091090180FD68C08091090182FD66C0D4
:100CA00080916E0183FD07C099E0CC0CDD1CEE1C29
:100CB000FF1C9A95D1F70130110559F5B701A6012E
:100CC00088E10E949E03882391F001E010E00E94D9
:100CD000830381E090E0012B09F480E0DF91CF9164
:100CE0001F910F91FF90EF90DF90CF9008950E9499
:100CF0004B03892B51F38EEF0E944503CE010E94D6
:100D00005F0331E020E0892B09F030E0032F122F40
:100D1000DECF867031F0A80170E060E087E90E94C4
:100D20009E03B701A60189E10E949E038111CFCFE6
:100D30000E944B03892B61F08CEF0E944503CE018A
:100D40000E945F03892B21F0DE5F0150110981F7BA
:100D50000E944B03892B09F4B8CF8DEF0E94450305
:100D6000B6CF84E090E0BACF83E0FCCF82E0FACF48
:100D70008F929F92AF92BF92CF92DF92EF92FF92AB
:100D80000F931F93CF93DF93EC018EA49FA4A8A889
:100D9000B9A86C0182E3C80ED11C01E010E0A501E6
:100DA0009401B60189810E943706892BE9F51C82DE
:100DB0008AA19BA1ACA1BDA1B501A401481B590BFF
:100DC0006A0B7B0B8A8D9B8DAC8DBD8D48175907A7
:100DD0006A077B0778F090E080E0DF91CF911F9168
:100DE0000F91FF90EF90DF90CF90BF90AF909F90CA
:100DF0008F900895EB80F12C82E0E816F10458F30F
:100E00008A8D9B8DAC8DBD8D880E991EAA1EBB1E32
:100E100001E010E0A5019401B60189810E94370626
:100E200081E0E81AF108E8CF81E090E0D6CFFC013C
:100E3000248121110C94B80690E080E00895CF92AF
:100E4000DF92EF92FF920F931F93CF93DF93FC01FA
:100E500006A517A520A931A90417150726073707E6
:100E600051F16A017B01EC010E9417078C01892B6B
:100E700061F001E010E0C801DF91CF911F910F9167
:100E8000FF90EF90DF90CF90089589818111F1CF8D
:100E90008091090180FDEDCF21E030E0B701A6018E
:100EA000CE01C2960E94EF03892B19F7CEA6DFA6CA
:100EB000E8AAF9AAE0CF10E000E0DDCF4F925F9200
:100EC0006F927F928F929F92AF92BF92CF92DF925A
:100ED000EF92FF920F931F93CF93DF93EC016A0180
:100EE0007B01480159018881823009F471C0833047
:100EF00009F48FC0813009F0C5C08A0116950795A5
:100F0000040F151FC801892F992786954AA15BA157
:100F10006CA17DA1480F591F611D711DCE010E945A
:100F20001F070097D9F5882DF801F170EC0FFD1F10
:100F30002601370121E04222552466247724C0FE91
:100F400007C082A98F7090E1899E90011124822BA5
:100F500082AB0F5F1F4F81E08C83C801892F9927D7
:100F600086954AA15BA16CA17DA1480F591F611D07
:100F7000711DCE010E941F07009781F41170FE01C0
:100F8000E00FF11F452846284728D9F064E0B694C1
:100F9000A794979487946A95D1F782AA21E02C832D
:100FA000DF91CF911F910F91FF90EF90DF90CF9045
:100FB000BF90AF909F908F907F906F905F904F9079
:100FC000089522A9207F392D3F70832E822AE5CFF4
:100FD00077276F2D5E2D4D2D8AA19BA1ACA1BDA1C0
:100FE000480F591F6A1F7B1FCE010E941F070097E1
:100FF000A9F6CC0CDD1CEE1CFF1CE894C0F8E1E067
:10100000DE22EE24FF24CC0EDD1EF60113AB02AB74
:10101000C5CF8AA19BA1ACA1BDA137E0769567950C
:10102000579547953A95D1F7480F591F6A1F7B1F6F
:10103000CE010E941F07009709F0B0CF22E0CC0C30
:10104000DD1CEE1CFF1C2A95D1F7FCEFCF22F1E04E
:10105000DF22EE24FF2422E3C20ED11CFE01EC0DA0
:10106000FD1D408151816281738144275527662788
:10107000707F842A952AA62AB72A80829182A2822A
:10108000B3828CCF82E090E089CFCF93DF93EC01E5
:101090001C828FEF9FEFDC018EA79FA7A8ABB9AB97
:1010A000CE010E941F07892B19F5FE01E05DFD4F5F
:1010B0008081918185359A4AF9F4E85CF14080811C
:1010C0009181A281B381BB2786349144A445B105A7
:1010D00069F0CC57DF4F488159816A817B8177273E
:1010E00081E0463451446445710519F480E001C043
:1010F00083E0DF91CF91089582E0FBCF2F923F9262
:101100004F925F926F927F928F929F92AF92BF9217
:10111000CF92DF92EF92FF920F931F93CF93DF93C3
:10112000CDB7DEB76D970FB6F894DEBF0FBECDBF5B
:101130007C01CB01742ED7011D921C920E94B80431
:101140006C018BE090E0D7FC22C0F601EE0FFF1F90
:10115000E158FE4F008111818CE090E001151105EE
:10116000B1F0F70111830083D8018C91882351F1EC
:1011700011968C91811124C08091090180FD22C0BB
:10118000772009F4EFC182FFEDC18AE090E06D960F
:101190000FB6F894DEBF0FBECDBFDF91CF911F9188
:1011A0000F91FF90EF90DF90CF90BF90AF909F9006
:1011B0008F907F906F905F904F903F902F90089509
:1011C00081E0DCCFF8011082C18281E0C11007C04C
:1011D0001CBC8091090181FFC8C18091090180FD7B
:1011E000ABC2772011F082FDD0CF40E050E0BA01D1
:1011F000C8010E944508412C512C3201813009F070
:1012000065C2F801EC50FE4F9E012F5F3F4F690110
:10121000C8018C5C9D4FD901208140E050E0BA01AB
:10122000222321F044815581668177814D935D931E
:101230006D937D937096E817F90771F7760130E1A9
:10124000E30EF11CD6014D905D906D907D906D0187
:1012500082E0411451046104710409F433C2B30102
:10126000A201C8010E94450881112CC2F80185AD78
:1012700096AD8115924009F02EC2F801E85BFF4F50
:1012800080809180B12CA12C81149104A104B1041F
:1012900029F43E9680809180A280B380D8015A962E
:1012A0008D929D92AD92BC925D97F801EE5BFF4FDF
:1012B000A081F801A3838FEF8A0F823008F00BC260
:1012C000F7ADF98B2F2FF8012283222309F403C2F3
:1012D00030E0C901019782239323892B09F0FBC1D8
:1012E000F801ED5BFF4F20803180F80131862086C8
:1012F000C1018F709927892B09F0EDC1EB5BFF4F7E
:10130000C080D180F12CE12CC114D104E104F1049E
:1013100029F43D96C080D180E280F380F801E05C42
:10132000FF4F0190F081E02D309709F4D4C1B0E077
:10133000A50194010E94D8356A8F7B8F8C8F9D8F79
:101340009F0150E040E02E8B3F8B488F598FC101A9
:1013500064E0969587956A95E1F7280F391F411D3E
:10136000511DDA01C9012A8D3B8D4C8D5D8D280FF1
:10137000391F4A1F5B1F2A8B3B8B4C8B5D8BC21620
:10138000D306E406F50608F4A6C1C701B601621B40
:10139000730B840B950BE9892E2F30E050E040E071
:1013A0000E94B635211531054105510509F493C157
:1013B000263FFFE03F074105510508F48FC182E059
:1013C000898B263FAFEF3A074105510510F0B3E096
:1013D000B98B69017A01E2E0CE0ED11CE11CF11C4F
:1013E000D8015696CD92DD92ED92FC925997F80174
:1013F000468E578E60A271A28E899F89A88DB98D65
:10140000840D951DA61DB71D82A393A3A4A3B5A308
:101410004A895B896C897D89440D551D661D771D40
:1014200042A753A764A775A7F989F33009F059C1FA
:10143000232809F050C1F801E25AFF4F80819181C1
:10144000A281B381F80186A397A3A0A7B1A742E028
:10145000CC0CDD1CEE1CFF1C4A95D1F73FEFC30EF0
:1014600031E0D31EE11CF11C89E0F694E794D79497
:10147000C7948A95D1F78C149D04AE04BF0408F478
:101480002AC18FEF9FEFDC01F80186879787A08B39
:10149000B18B82879387A487B58780E88583F98994
:1014A000F33009F049C0F801EE59FF4F8081918176
:1014B000019709F041C0B301A2014F5F5F4F6F4F29
:1014C0007F4FC8010E941F07892BB1F5D8011596DF
:1014D0001C92F801E05DFD4F8081918185359A4A2B
:1014E00059F5F80182A993A9A4A9B5A98235924515
:1014F000A146B14409F5F801EA5EFD4F8081918172
:10150000A281B38182379247A144B146A9F43496AF
:1015100080819181A281B381F80186879787A08B12
:10152000B18BE25EFD4F80819181A281B381F80190
:1015300082879387A487B587E989D801EC93809146
:101540005A0190915B01019690935B0180935A013F
:1015500017969C938E93169752961D921D921D92EC
:101560001C92559790E080E012CE84B18C6284B9D1
:10157000249885B18C6285B92C9A82E58CBD83E56F
:101580008CBD8DB58E7F8DBDBAE0FB2E8FEF0E9496
:101590004503FA94F110FACF40E050E0BA0180E040
:1015A0000E949E03E82EF1E08F1378C084E68093BA
:1015B00077014AEA51E060E070E088E00E949E0313
:1015C000813009F045C09E012F5F3F4F59014E0108
:1015D00035E0830E911C75018FEF0E944503D70102
:1015E0008D937D018A169B06B9F78B81813009F0B6
:1015F00055C08C818A3A09F051C0809177018823C7
:1016000049F040E050E060E070E489EA0E949E0307
:101610008111F3CF80917701882309F43FC040E026
:1016200050E0BA018AE30E949E03811137C08FEF18
:101630000E944503F50181935F01EE15FF05B9F79F
:101640008981A4E0FA2E86FF2AC07CE0F72E27C00D
:1016500040E050E0BA0189EA0E949E03FF24F3941F
:10166000823020F4E2E0FE2EF9EAEF2E809177013D
:10167000882341F040E050E0BA018E2D0E949E0385
:101680008111F4CF80917701882341F040E052E04E
:1016900060E070E080E10E949E038111FC2CF092DA
:1016A0006E010E948303FF2059F0809109018E7F13
:1016B0008093090180E58CBD8DB581608DBD8DCD98
:1016C0001CBC8BCDEC14FD0409F0BCCD8330B9F10A
:1016D000882309F4CBCD8DE090E059CD91E0998B32
:1016E00070CE2328C1F32A8D3B8D4C8D5D8D820FEA
:1016F000931FA41FB51FF80186A397A3A0A7B1A7A6
:10170000F989F23029F4CC0CDD1CEE1CFF1CA6CEAE
:10171000A3E0B0E0A70196010E94D8359695879581
:101720007795679521E0C222DD24EE24FF24C60EC2
:10173000D71EE81EF91E92CE83E090E028CD81E00E
:1017400090E025CDBF92CF92DF92EF92FF920F9360
:101750001F93CF93DF93423051056105710508F463
:10176000B0C0FC0106891789208D318D40175107C3
:101770006207730708F0A5C06A017B01EC01808154
:10178000823009F453C0833009F471C0813009F00C
:1017900098C08A0116950795040F151FC801892F57
:1017A000992786954AA15BA16CA17DA1480F591F7D
:1017B000611D711DCE010E941F07892B69F06FEF1B
:1017C0007FEFCB01DF91CF911F910F91FF90EF90B1
:1017D000DF90CF90BF900895F801F170EC0FFD1FDE
:1017E000B2A80F5F1F4FC801892F992786954AA17C
:1017F0005BA16CA17DA1480F591F611D711DCE0118
:101800000E941F07892BD9F61170C00FD11F6AA93A
:10181000762F6B2DC0FE08C054E0769567955A95DB
:10182000E1F790E080E0CECF7F70FBCF77276F2D80
:101830005E2D4D2D82A193A1A4A1B5A1480F591FE2
:101840006A1F7B1FCF010E941F07892B09F0B7CFAA
:10185000CC0CDD1CEE1CFF1CE894C0F8F1E0DF228C
:10186000EE24FF24CC0DDD1D6AA97BA9DACF82A16D
:1018700093A1A4A1B5A127E07695679557954795C3
:101880002A95D1F7480F591F6A1F7B1FCF010E946D
:101890001F07892B09F093CF82E0CC0CDD1CEE1CD6
:1018A000FF1C8A95D1F78CEFC82281E0D822EE2464
:1018B000FF24CC0DDD1D6AA97BA98CA99DA99F7071
:1018C00081CF61E070E080E090E07CCF3F924F926A
:1018D0005F926F927F928F929F92AF92BF92CF92C0
:1018E000DF92EF92FF920F931F93CF93DF936C01E0
:1018F0008B014A01FA011182108286E395E00E9471
:1019000093047C01892B31F480913B058823A9F055
:10191000E82EF12CC701DF91CF911F910F91FF901D
:10192000EF90DF90CF90BF90AF909F908F907F907F
:101930006F905F904F903F90089580913A0580FF9F
:1019400044C18091400590914105A0914205B0911C
:10195000430540913C0550913D0560913E057091D5
:101960003F05841B950BA60BB70BA80170E060E048
:1019700084179507A607B70708F48C010115110510
:1019800049F240913C0550913D0560913E057091B2
:101990003F05DB01CA019170AA27BB27892B8A2B3F
:1019A0008B2B09F0DCC08091360590913705FC0146
:1019B000228121502A013B01E9E0769467945794F3
:1019C0004794EA95D1F7322E3420C1F5452B462BAA
:1019D000472BA1F46091440570914505809146051F
:1019E00090914705623071058105910590F482E080
:1019F00080933B0552E0E52EF12C8CCF40914805B9
:101A00005091490560914A0570914B050E94A20BC7
:101A1000E9CF6F3FFFEF7F078F079F0739F481E022
:101A200080933B05EE24E394F12C74CF609348053A
:101A30007093490580934A0590934B05A090360515
:101A4000B0903705409148055091490560914A058D
:101A500070914B05C5010E94E60461157105810571
:101A6000910529F22B013C01430C511C611C711C96
:101A7000E801CD2FDD27C695209709F468C0F50150
:101A80008281232D30E0A9014C0F5D1F90E0841767
:101A9000950718F4EC01C21BD30BF501818181116C
:101AA000BECF209709F4BBCF8091090180FDB7CF4D
:101AB0009E01B301A201C6010E94EF03892B09F028
:101AC000AECFE0913605F091370584818823E1F0AF
:101AD00086A597A5A0A9B1A984199509A609B70952
:101AE000AE0170E060E084179507A607B70760F4C1
:101AF000BF016E5C7F4F982F8827990F40E052E01E
:101B00008C0D9D1D0E940E05DC2FCC27DD0FCC0E09
:101B1000DD1E80913C0590913D05A0913E05B09160
:101B20003F058C0F9D1FA11DB11D80933C05909317
:101B30003D05A0933E05B0933F05F401808191815E
:101B40008C0F9D1F918380830C1B1D0B17CF409220
:101B50004C0550924D0560924E0570924F05809154
:101B60003C0590913D05917020E032E0281B390B37
:101B7000E8012017310708F4E90140914C05509124
:101B80004D0560914E0570914F05809136059091FD
:101B900037050E941F07892B09F041CF80913C0532
:101BA00090913D05A0913E05B0913F059170AA2707
:101BB000BB27C2966091360570913705680F791F73
:101BC000AE01C6010E940E05A2CF87E0E82EF12CDF
:101BD000A1CEAF92BF92CF92DF92EF92FF920F937E
:101BE0001F93CF93DF938C01EB01DC0115967C935F
:101BF0006E9314971696CD90DD90ED90FC9019970A
:101C0000B1E0CB16D104E104F10469F482E090E084
:101C1000DF91CF911F910F91FF90EF90DF90CF90C8
:101C2000BF90AF900895DC01ED91FC918689978972
:101C3000A08DB18DC816D906EA06FB0638F7C11487
:101C4000D104E104F10409F040C08081833041F403
:101C500086A197A1A0A5B1A50097A105B105B9F5E9
:101C600080859185C817D90788F666A177A180A5D8
:101C700091A5D8011A96CD92DD92ED92FC921D9716
:101C8000611571058105910509F29E0144E03695C3
:101C900027954A95E1F7620F731F811D911DF80189
:101CA00066877787808B918B80819181C296CF7078
:101CB000DD2755E0CC0FDD1F5A95E1F7C80FD91F7E
:101CC000D38BC28B90E080E0A3CFD701C601A28066
:101CD000E0E1AE9E500111246C017D01F80180818C
:101CE0009181B701A601CA15DB0518F40E94E6042C
:101CF000C0CF0E94A20B6B017C01FFEFCF16DF0665
:101D0000EF06FF06B9F022E0C216D104E104F104A7
:101D100008F47CCFD801ED91FC9186899789A08D3C
:101D2000B18DC816D906EA06FB0608F06FCFCA19AE
:101D3000DB09D4CF81E090E06BCF4F925F926F923E
:101D40007F928F929F92AF92BF92CF92DF92EF924B
:101D5000FF920F931F93CF93DF93EC012A013B0176
:101D6000411451046104710479F58A849B84AC8424
:101D7000BD8481149104A104B10409F45AC08E8970
:101D80009F89A88DB98D88169906AA06BB0608F00A
:101D900050C0750164012FEFC21AD20AE20AF20A9A
:101DA0008E899F89A88DB98DC816D906EA06FB06CB
:101DB00008F449C082E088169104A104B104F0F54A
:101DC000C12CD12C760115C00E94A20B6B017C01A5
:101DD00022E0C216D104E104F10408F4A7C08FEF99
:101DE000C816D806E806F806B9F4CC24CA94DC2C48
:101DF0007601C701B601DF91CF911F910F91FF903E
:101E0000EF90DF90CF90BF90AF909F908F907F909A
:101E10006F905F904F9008958E899F89A88DB98D9E
:101E200053014201C816D906EA06FB0608F0B1CFF5
:101E3000E0CF812C912C54018394ABCF92E0C92E3A
:101E4000D12CE12CF12CB701A601CE010E94A20BEE
:101E5000611571058105910599F06F3F2FEF7207AC
:101E60008207920711F2613071058105910509F42D
:101E70005DC0C814D904EA04FB0409F08CCFA0CFDC
:101E800082E0C816D104E104F10408F44FC08E8941
:101E90009F89A88DB98DC816D906EA06FB0608F0F9
:101EA00045C00FEF1FEF2FEF3FE0B701A601CE01B6
:101EB0000E945E070097B9F5411451046104710452
:101EC000D1F4CA86DB86EC86FD868E859F85A8893F
:101ED000B9898F3F2FEF9207A207B20709F489CF84
:101EE0000197A109B1098E879F87A88BB98B8D8136
:101EF00081608D837ECF82E04816510461047104B5
:101F0000A8F08E899F89A88DB98D481659066A0652
:101F10007B0660F497018601B301A201CE010E9405
:101F20005E07009771F2019709F45FCFC12CD12CA5
:101F30007601C3945ECF2F923F924F925F926F9241
:101F40007F928F929F92AF92BF92CF92DF92EF9249
:101F5000FF920F931F93CF93DF935C017B011A01D4
:101F6000FA011182108286E395E00E9493046C01CD
:101F7000892B31F480913B058823B1F0C82ED12CF8
:101F8000C601DF91CF911F910F91FF90EF90DF90ED
:101F9000CF90BF90AF909F908F907F906F905F9009
:101FA0004F903F902F90089580913A0581FFC2C1D4
:101FB00080913C0590913D05A0913E05B0913F0573
:101FC000AC01BD014E0D5F1D611D711D4817590704
:101FD0006A077B0708F0EAC080913C0590913D05B7
:101FE000A0913E05B0913F054091400550914105BB
:101FF0006091420570914305481759076A077B07AE
:1020000008F48FC180913A05806280933A05B8CF79
:10201000409148055091490560914A0570914B05E2
:1020200003C16F3FFFEF7F078F079F0739F481E000
:1020300080933B05CC24C394D12CA2CF6093480558
:102040007093490580934A0590934B054090440551
:1020500050904505609046057090470545284628F4
:10206000472841F4609344057093450580934605E5
:10207000909347058091360590913705FC0146A461
:1020800057A460A871A840914C0550914D056091EE
:102090004E0570914F05441655066606770621F4E5
:1020A0000E941707892B19F6809036059090370506
:1020B000409148055091490560914A0570914B0542
:1020C000C4010E94E604611571058105910509F4BA
:1020D000BAC02B013C01410E511C611C711CE7016F
:1020E000CD2FDD27C695209709F4B4C0F401828175
:1020F000212F30E0A9014C0F5D1F90E08417950758
:1021000018F4EC01C21BD30B8E01A3019201B5019F
:10211000F40181810E943706892B09F088CF8091D4
:10212000360590913705FC0146A557A560A971A910
:1021300044195509660977092E01712C612C441543
:1021400055056605770580F4542F4427550FB501D2
:10215000640F751F40E052E0C2960E940E05E091A8
:102160003605F09137051482DC2FCC27DD0FAC0E3D
:10217000BD1E80913C0590913D05A0913E05B0911A
:102180003F058C0F9D1FA11DB11D80933C059093B1
:102190003D05A0933E05B0933F05F10180819181FB
:1021A0008C0F9D1F91838083EC1AFD0A40913C05A2
:1021B00050913D0560913E0570913F05E114F10499
:1021C00009F40ACFDB01CA019170AA27BB27892B2A
:1021D0008A2B8B2B09F069C0E0913605F091370509
:1021E000228121502A013B01A9E0769467945794FB
:1021F0004794AA95D1F7122F142109F03BCF452B14
:10220000462B472B09F004CF60914405709145059A
:1022100080914605909147056115710581059105ED
:1022200061F440E050E0BA01CF010E949D0E6115BB
:1022300071058105910509F4CFCE613071058105E5
:10224000910509F0EECE82E080933B0552E0C52E69
:10225000D12C96CE40913C0550913D0560913E05B4
:1022600070913F058091400590914105A0914205F4
:10227000B0914305481759076A077B0770F0C401FE
:102280000E941707892B09F0D2CEE0913605F09114
:10229000370546A657A660AA71AA40924C055092EF
:1022A0004D0560924E0570924F0580913C059091CE
:1022B0003D05917020E032E0281B390BE7012E1517
:1022C0003F0508F4E90140914C0550914D0560919E
:1022D0004E0570914F0580913605909137050E940B
:1022E0001F07892B09F0A3CE80913C0590913D05F5
:1022F000A0913E05B0913F059170AA27BB27C296D9
:102300002091360530913705AE01B501820F931F3C
:102310000E940E05E0913605F091370531E03483D7
:1023200026CF8093400590934105A0934205B0933A
:10233000430568CE87E0C82ED12C22CE8F929F9283
:10234000AF92BF92CF92DF92EF92FF920F931F93C3
:10235000CF93DF93EC016A017B0122E0C216D10426
:10236000E104F10478F482E090E0DF91CF911F91D5
:102370000F91FF90EF90DF90CF90BF90AF909F9024
:102380008F9008958E899F89A88DB98DC816D9061A
:10239000EA06FB0640F78E899F89A88DB98DC8167D
:1023A000D906EA06FB0660F4B701A601CE010E9439
:1023B000A20B4B015C0181149104A104B10419F436
:1023C00090E080E0D2CF81E088169104A104B104AE
:1023D00051F22FEF82169206A206B20699F182E020
:1023E000C816D104E104F10408F4BDCF8E899F8999
:1023F000A88DB98DC816D906EA06FB0608F0B3CF3A
:1024000000E010E09801B701A601CE010E945E072E
:10241000009709F0AACF8E859F85A889B9898F3F3B
:102420002FEF9207A207B20751F00196A11DB11D2F
:102430008E879F87A88BB98B8D8181608D83750175
:102440006401A9CF81E090E090CF4F925F926F92AC
:102450007F92AF92BF92CF92DF92EF92FF920F9353
:102460001F93CF93DF93EC015B01EC80FD808FEF36
:10247000E81AF80A89F484E090E0DF91CF911F9187
:102480000F91FF90EF90DF90CF90BF90AF907F9033
:102490006F905F904F9008954E855F856889798928
:1024A000411551056105710531F36701EFE0CE2259
:1024B000DD24C114D104C9F4888199814F5F5F4F35
:1024C0006F4F7F4F4E875F87688B798B4A855B851F
:1024D0006C857D85FC014115510561057105B1F4DF
:1024E00080859185E816F90630F6FD82EC828881B8
:1024F0009981C29625E0CC0CDD1C2A95E1F7C80E27
:10250000D91EDB8ACA8A90E080E0B7CF02810150F1
:10251000110B9701E4E036952795EA95E1F7022340
:1025200013230115110509F70E94A20B2B013C0191
:10253000F2E04F1651046104710418F482E090E057
:102540009CCF8FEF481658066806780619F481E08C
:1025500090E093CF88819981FC0146895789608DED
:10256000718D441655066606770608F44FC0AB28F1
:1025700009F481CF4A855B856C857D850E949D0E1F
:102580002B013C0187E090E0411451046104710487
:1025900009F473CFF1E04F1651046104710471F234
:1025A0008FEF481658066806780689F28881998167
:1025B0000E941707892B59F688819981FC01F296B0
:1025C0008E5C9D4F8E179F0781F5A880B980B3015F
:1025D000A201C5010E94E604F50166A777A780ABBA
:1025E00091ABBB24B394E881F981828180171106F5
:1025F00009F0E8F486A597A5A0A9B1A9801B910BC5
:10260000A109B10986A797A7A0ABB1AB4A865B86A3
:102610006C867D86B301A201888199810E94E604BF
:102620006E877F87888B998B60CF1192CBCFB482D6
:10263000CF010E94B806892B09F089CFE881F98182
:1026400086A597A5A0A9B1A90196A11DB11D86A730
:1026500097A7A0ABB1AB0F5F1F4FC5CF9F92AF92B3
:10266000BF92CF92DF92EF92FF920F931F93CF937F
:10267000DF93CDB7DEB72C970FB6F894DEBF0FBE51
:10268000CDBF6C018CE195E00E9493045C01892B25
:1026900009F054C1C114D10441F470E060E08CE150
:1026A00095E00E94E90D5C0149C1CE01019690932D
:1026B00031058093300586E595E09093330580934E
:1026C0003205EE24EA94FF24FA9484E090E07DE061
:1026D000972E40912A0550912B0560912C05709101
:1026E0002D05411551056105710531F4009709F07B
:1026F00077C0F6013996F8C080911C0590911D05B0
:102700000E941F07009709F06BC000912E051091E1
:102710002F05D8018C91882309F423C11B969C9125
:102720001B979F73853E09F46BC0983009F468C00D
:102730009F3009F06CC086FF60C01D96EC90F82EAB
:10274000E894F6F880912005909121059093350545
:1027500080933405F80185858E1152C02091320591
:102760003091330540814F734150550B949EC00109
:10277000959E900D1124E2E3F1E061E070E0A191FB
:10278000A00FB12FB11D4D915C9161157105D9F16B
:102790008F3F9105A8F5DC01AA0FBB1FA20FB31F45
:1027A0004D935C93BA010196B1E0EF33FB0739F723
:1027B000F801408146FF0AC08F3F910508F5880F58
:1027C000991F820F931FDC011D921C92FA9470E0F6
:1027D00060E08CE195E00E942512009709F479CF22
:1027E00010922A0510922B0510922C0510922D059F
:1027F0008430910509F47DCF56CF8F1509F4AACF07
:10280000FF24FA94E4CF4F3F5F4F71F2F9CFF110FC
:1028100005C0C8010E94D8048E1531F08FEF9FEFDC
:102820009093350580933405F601399680912A05F9
:1028300090912B05A0912C05B0912D05892B8A2B09
:102840008B2B09F451C0780130E020E09EE22F5F2D
:102850003F4FD7018D917D018032F1F0853009F431
:10286000AAC02930310511F4908331964FEB480FFF
:102870004A3180F4D8011C964C9150E068E070E039
:102880002930310510F060E170E046235723452BD5
:1028900009F0805E808331962B303105C1F6D80176
:1028A0001B968C91D60118968C93D8015C964D910D
:1028B0005D916D917C915F97D6014D935D936D9382
:1028C0007C931397D80158968D919C91D6011596BB
:1028D0009C938E931497D80156968D919C91D60116
:1028E00017969C938E9316971082F6018689978986
:1028F000009791F040912A0550912B0560912C058D
:1029000070912D05452B462B472B71F530E020E0CB
:10291000820F931FFC01108270E060E08CE195E073
:102920000E9425128430910509F0BDCE10922A052F
:1029300010922B0510922C0510922D05C5012C9696
:102940000FB6F894DEBF0FBECDBFDF91CF911F91C0
:102950000F91FF90EF90DF90CF90BF90AF909F903E
:10296000089584E090E03CCF208D318D232B71F2CF
:1029700020913405309135050091320510913305D1
:10298000FC012F3F3F4F11F29F01281B390BD8014B
:102990006D917D918D016115710509F4B9CFD60155
:1029A00058964D915C91415051092417350708F014
:1029B000ADCF6193E9CF85EE2930310509F06ACFBB
:1029C00053CFEF92FF920F931F93CF93DF93EC01BE
:1029D0007B0190E080E00E942E13892BB1F410E07F
:1029E00000E01986CE010E942E13892B71F489858F
:1029F000882359F0CE010E940F06892B91F3E0162F
:102A0000F10661F00F5F1F4FECCF90E080E0DF91A7
:102A1000CF911F910F91FF90EF90089581E090E08A
:102A2000F6CF0F931F93CF93DF938C0190E080E05C
:102A30000E942E13D0E0C0E0892B91F4F80111869A
:102A4000C8010E942E13892B59F4F801818588232F
:102A500039F0C8010E940F06892B81F32196EECF31
:102A6000CE01DF91CF911F910F9108958F929F9288
:102A7000AF92BF92CF92DF92EF92FF920F931F938C
:102A8000CF93DF938C018FEF9FEFD80159969C93E2
:102A90008E935897DFEFCFEFCC24CA94DC2CBDE0A7
:102AA000AB2EF801468557856089718980819181B7
:102AB0000E941F074C01892B09F08AC0D801529649
:102AC000ED90FC90F7018081882309F4B3C0853E26
:102AD00039F02385922F9F7323FF08C09F3049F060
:102AE000D8015996DC92CE92589783C09F3009F056
:102AF00086C0F801268937892115310509F45FC0A0
:102B000086FF74C0D7011D96DC91C82FCF7B8481CE
:102B10009581918F808FF70185858D136AC0B08074
:102B20004B2D4F7B4150550BA49EC001A59E900D8F
:102B30001124F2E38F2EF1E09F2EE1E0F0E0D401CA
:102B40004D914D014E0D5F2D511DDA014D915C915E
:102B5000309709F450C0BA01615671096A317105A4
:102B600010F4405251098F3F910508F042C0BC015A
:102B70006F5F7F4F880F991FF901E80FF91F0190D0
:102B8000F081E02DCF01815691094A9708F4B09762
:102B90004E175F0771F5CB014FE3841641E09406B1
:102BA00071F6B6FE0BC0EF2B49F0880F991F820F0C
:102BB000931FDC018D919C91892BD9F4C15070E059
:102BC00060E0C8010E9425124C01892B09F469CFED
:102BD000C401DF91CF911F910F91FF90EF90DF9093
:102BE000CF90BF90AF909F908F9008958C1709F46D
:102BF00092CFCFEFE4CF4F3F5F4F71F2FACFC111C9
:102C000005C0C7010E94D8048D1711F3F801A489EB
:102C1000B5891B968C911B9780FD62CFF7019D01B2
:102C2000255F3F4FA217B30799F291918D919817A5
:102C3000C9F356CF84E0882E912CCACF6F927F9231
:102C40008F929F92AF92BF92CF92DF92EF92FF92BC
:102C50000F931F93CF93DF93EC015B01DB018C910A
:102C60008F3219F08C3509F051C0BFEFAB1ABB0A97
:102C70001E821F8218861986F5018081803208F431
:102C800050C080E2882E95E0992E65018601D6011C
:102C90008D918F3209F45BC08C3509F458C06E8871
:102CA0007F88A301730190E080E05C01FFEFAF1A21
:102CB000BF0AD6012D916D01022E000C330B20327C
:102CC000310508F44CC02F32310509F448C02C35C9
:102CD000310509F444C0A114B1E0BB06A1F03327CB
:102CE0002115310581F02038310598F56FE371E049
:102CF000FB018191BF01882361F1082E000C990B23
:102D000028173907A9F786E090E012C0E881F98119
:102D100082899389A489B5898E839F83A887B9877F
:102D2000ABCF70E060E0CE010E94E90D1B8A1A8AE9
:102D3000DF91CF911F910F91FF90EF90DF90CF9097
:102D4000BF90AF909F908F907F906F9008956D018E
:102D50009DCFD7012D933D937D01C501A6CFA00E38
:102D6000B11E14E02032310508F010E0FC01EE0F36
:102D7000FF1FD3018130910551F08230910561F43C
:102D800012962D913C9113972E32310529F42D91F5
:102D90003C912E32310581F0E60DF71D009709F4C4
:102DA000B2CF329122912032310521F02E323105FD
:102DB00009F00AC10197F2CFE60DF71D11821082CA
:102DC00030E020E04EE22817390708F040E2EC89B5
:102DD000FD89E20FF31F40832F5F3F4F2B303105FA
:102DE00089F7EC89FD891062138770E060E0CE01FD
:102DF0000E94E90D009719F4CE010E943615EC8966
:102E0000FD892385009709F4BCC08430910509F041
:102E10008FCF322F347025FFAFC01E821F821886DD
:102E200019861B8A1A8A332309F42FCF90E080E099
:102E30007FCF8192E617F707E1F7B0E0A0E0FA0153
:102E400061917191AF016032710569F16E32710566
:102E500051F1109709F01360F901529142919F01CD
:102E60004E32510511F00197B9F728E030E070E0DB
:102E700060E000E0AD014F5F5F4FFD01EE0FFF1F0F
:102E8000E60DF71D0190F081E02D3097F1F0E03272
:102E9000F10531F0EE32F10541F48417950759F050
:102EA0001360DA01E7CF1196CACF6217730738F4BF
:102EB00084179507C9F52B30310571F503C02B3008
:102EC000310519F513602BE030E0EC89FD89808134
:102ED000853E09F490822830310511F4000F000F6F
:102EE000802F8C708C3021F0902F9370933009F4E8
:102EF000126011FD07C00370013009F410618430C5
:102F000009F41860EC89FD896FCF8417950721F0CB
:102F1000136084179507C8F2000F000FAC012BE077
:102F200030E068E070E0BDCFE038F10538F0E35FF5
:102F3000FC4FE491F0E01260309781F0A8E4CA2ED3
:102F4000A1E0DA2ED601ED906D01EE2009F44AC021
:102F50000E2C000CFF08EE15FF05A1F71360EFE53E
:102F6000F0E0EC88FD88E60EF71ED701EC936F5F6A
:102F70007F4F97CF0260F5CF3111DACE85E090E038
:102F8000D7CE22FD53CF4A895B89FA01838584FF1E
:102F9000F5CF828D938DB0E0A0E028813981F901D1
:102FA0002081233061F4FA014489558970E060E0A2
:102FB000BA0155274427842B952BA62BB72B8E833C
:102FC0009F83A887B98761CE9C01220F331F260DEE
:102FD000371DD9011D921C92EC89FD89BF01655FE7
:102FE0007F4F28CF7F01B1E4EB1AF108AAE1EA167E
:102FF000F10408F4BFCF7F01B1E6EB1AF108AAE1B2
:10300000EA16F10408F0ADCF0160B097AACFCF93D4
:10301000DF93CDB7DEB760970FB6F894DEBF0FBE73
:10302000CDBF988B8F8740E0BE01615F7F4FCE019F
:103030000D960E947E08009741F58D859E859093A0
:103040001D0580931C05CE01019690933105809358
:10305000300586E595E090933305809332056F85C2
:1030600078898CE195E00E941E16009709F04CC00B
:1030700040912E0550912F054115510549F1FA0156
:10308000838584FD07C085E090E010921D051092B5
:103090001C0531C0828D938DB0E0A0E02D853E856A
:1030A000F9012081233061F4FA014489558970E0E7
:1030B00060E0BA0155274427842B952BA62BB72B0C
:1030C0008093220590932305A0932405B0932505B2
:1030D000ED85FE858681978190931F0580931E055F
:1030E00070E060E08CE195E00E94E90D843091058C
:1030F00051F2009751F660960FB6F894DEBF0FBEFE
:10310000CDBFDF91CF9108958430910509F4BBCFF5
:10311000BCCF0F931F93CF93DF93CDB7DEB7A897A4
:103120000FB6F894DEBF0FBECDBF98A78FA340E0C7
:10313000BE01695D7F4FCE0101960E947E08009717
:1031400061F5CE014B969E8B8D8B86E595E0988F31
:103150008F8B6FA178A5CE0101960E941E16009755
:1031600009F03FC02B893C892115310579F4E981AB
:10317000FA818F819885A985BA85828B938BA48BE0
:10318000B58B82E591E00E94071807C0D9011B9614
:103190008C9184FD0DC085E090E0A8960FB6F89460
:1031A000DEBF0FBECDBFDF91CF911F910F9108956C
:1031B00009811A81F901828D938DB0E0A0E0F801B8
:1031C0004081433061F4F9014489558970E060E041
:1031D000BA0155274427842B952BA62BB72BF80132
:1031E000CCCF84309105C9F6D6CF4F925F926F92C3
:1031F0007F928F929F92AF92BF92CF92DF92EF9287
:10320000FF920F931F93CF93DF93CDB7DEB76497F1
:103210000FB6F894DEBF0FBECDBF8C01DC01549613
:10322000CD90DC90559756966C90569757967C901B
:103230004CE050E0B601CE0101960E940E058C854F
:1032400085FDCAC080FFD8C0F6011386D801579605
:103250001C921E925697812C912C540183949EE7C8
:10326000592E74014BE050E0BE016F5F7F4FC601E5
:103270000E940E05F301B501A401B6E08B1691047E
:1032800008F08EC0FE013D9627E030E0AF019E2D94
:103290009F7080E3890F8A3310F087E3890F2150F4
:1032A0003109878384E0F694E7948A95E1F73197B2
:1032B000E114F10461F7FA01E20FF31F5082F60105
:1032C00090E080E02817390739F0A191BC016F5FC9
:1032D0007F4FA03209F06AC0F601E80FF91F80E2C3
:1032E0002830310530F4DA01A20FB31F8C912F5F23
:1032F0003F4F8193CF018C199D09089780F370E0AF
:1033000060E0C8010E94E90D7C01892B09F068C0CA
:10331000C8010E9436157C01892B09F061C0BFEFFE
:103320008B1A9B0AAB0ABB0AE4E68E169104A10431
:10333000B10409F096CF17E0E12EF12CC701649695
:103340000FB6F894DEBF0FBECDBFDF91CF911F91B6
:103350000F91FF90EF90DF90CF90BF90AF909F9034
:103360008F907F906F905F904F90089520E130E0B4
:10337000440F551F661F771FDC01A170BB274A0F42
:103380005B1F611D711D9695879560FF06C0A1E2C8
:103390004A27A0E15A27A1E06A272150310941F7C5
:1033A00081919191009711F77A016CCFCB018ACF6F
:1033B00001962BC0B12CA12C61E070E0C8010E94E5
:1033C00025127C01892BA9F1E4E0EE16F10409F441
:1033D000B2CFB4CF1192EBC086E0E82EF12CAECF85
:1033E000B4E0EB16F10409F0A9CF8C85D6011B9649
:1033F0008C93F801668A778A8C85CC24C394D12C6F
:1034000081FF0DC0F30190E080E021913191232BE9
:1034100079F649966DE070E00E948E356B0170E0A0
:1034200060E0C8010E94E90D7C01892B69F6B12C8E
:10343000A12CD8011E964D915D916D917C91519773
:103440008D919C910E941F077C01892B09F0BCCFB4
:10345000D8015296ED91FC918081853E11F0811149
:10346000A9CFBFEFAB1ABB0ACA14DB0409F0A4CF83
:10347000E1E0CE1AD10809F487C0D80114966D9105
:103480007C916C197D09C8010E94E90D7C01892B92
:1034900009F054CFF801848995890E94D804982EA8
:1034A000EFE06E2EFDE07F2EAFE3AA2EA1E0BA2E54
:1034B00088248394D8011E964D915D916D917C91E5
:1034C00051978D919C910E941F077C01892B09F0D7
:1034D00035CFFC2CD8015296ED91FC91539756961E
:1034E0004D915C91958663861486138E128E8C2D79
:1034F0008150990B9C01729EC001739E900D112406
:1035000072E3472E71E0572E30E020E02F3F320764
:1035100049F09C01220F331F240F351FD9012D9133
:103520003C910196D2016D912D016E0F7F2F711D7F
:10353000DB012D933C932115310511F42FEF3FEF63
:10354000A414B50419F72F3F3F4F49F0880F991F76
:10355000840F951FDC018D919C91892B11F4689447
:10356000F6F8F082D801ED91FC91848270E060E081
:10357000C8010E9425127C01892B09F0DFCEB1E041
:10358000CB1AD10809F096CFF80146855785608996
:103590007189808191810E941F077C01892B09F02C
:1035A000CDCED8015296ED91FC91CF0180968E1729
:1035B0009F0709F00FCFF801648975894BE050E04F
:1035C000828993890E940E05D80152962D913C91D3
:1035D000539754960D90BC91A02D1B968C91887199
:1035E000F9018487D801ED91FC9181E08483A6CE16
:1035F0004F925F926F927F928F929F92AF92BF9203
:10360000FF920F931F93CF93DF93CDB7DEB7A897A9
:103610000FB6F894DEBF0FBECDBF98A78FA3F62ECE
:103620001092370510923605462F4E71BE01695D26
:103630007F4FCE0101960E947E08009729F5CE01AA
:103640004B969E8B8D8B86E595E0988F8F8B6FA127
:1036500078A5CE0101960E941E160B891C89009741
:1036600029F40115110511F486E090E02F2D2C713D
:1036700039F10097E9F08430910531F4CE010196DB
:103680000E94F518009781F1A8960FB6F894DEBF56
:103690000FBECDBFDF91CF911F910F91FF90BF90D3
:1036A000AF909F908F907F906F905F904F90089514
:1036B000D8011B968C91817189F087E090E0E4CF6E
:1036C000009711F7D8011B968C9184FD0AC0F1FE7A
:1036D00002C080FDF2CFF3FE63C060C088E090E0DE
:1036E000D3CF84E090E0D0CF0B891C8980E090E0BC
:1036F000A1ECB4E4F80186879787A08BB18B138681
:10370000D801148E158E168E178EE981FA815A967D
:103710008D909C90B12CA12C8081833069F4D801CC
:1037200054964D915C9170E060E0BA0155274427B2
:10373000842A952AA62AB72A6894F3F8D8015B96BA
:103740001C921E925A9755961C921E92549781E095
:10375000848381149104A104B10409F4BCCF46A46C
:1037600057A460A871A8B501A401CF010E949E11C1
:10377000009709F089CF89819A81B1E08B1A91086D
:10378000A108B108FC0182869386A486B586B301A0
:10379000A2010E941F07009709F076CF6894F5F800
:1037A000A980BA80F50186A597A5A0A9B1A98093A3
:1037B000500590935105A0935205B0935305109373
:1037C000550500935405F0923A0510923B05D80137
:1037D0005A968D919C91B0E0A0E02081233061F455
:1037E000F8014489558970E060E0BA015527442703
:1037F000842B952BA62BB72B8093440590934505DE
:10380000A0934605B0934705F801848D958DA68D4C
:10381000B78D8093400590934105A0934205B093E6
:10382000430510923C0510923D0510923E05109202
:103830003F0510924C0510924D0510924E051092C6
:103840004F05B0923705A0923605D50116968D9199
:103850009C91909339058093380590E080E014CFD7
:103860000F931F93CF93DF93EC018881833009F08E
:103870004BC08D81813009F047C0BE016E5C7F4F27
:10388000FB01CE018E5C9D4FE817F90709F055C08A
:1038900085E59AEAFE01E05DFD4F9183808382E534
:1038A00092E5A1E6B1E48AAB9BABACABBDAB82E7E2
:1038B00092E7A1E4B1E67A9780839183A283B383F0
:1038C0008E859F85A889B989349680839183A28348
:1038D000B3838A859B85AC85BD853496808391832F
:1038E000A283B3832E8D3F8D48A159A12F5F3F4FF7
:1038F0004F4F5F4F2EA73FA748AB59AB01E010E0F9
:1039000089810E9437061D828981811118C08091AA
:10391000090180FD14C081E090E00E948703D1E09E
:10392000C0E0892B09F0D0E00E9483038D2F9C2FEB
:10393000DF91CF911F910F9108951192A5CFD1E002
:10394000C0E0F4CFCF93DF9386E395E00E94930429
:10395000009759F480913A0585FD0AC086E395E009
:103960000E949304009709F454C0DF91CF91089509
:103970004091500550915105609152057091530549
:1039800080913605909137050E941F07009769F7CF
:10399000E0915405F091550583858062838780917D
:1039A000400590914105A0914205B0914305848F57
:1039B000958FA68FB78F8091440590914505A09172
:1039C0004605B0914705938F828FB58BA48B80E01D
:1039D00090E0A1ECB4E4868B978BA08FB18F138A13
:1039E000128A80913A058F7D80933A05C091360501
:1039F000D091370581E08C83CE010E94B8060097F4
:103A000009F0B3CFCE010E94301C009709F4A6CF75
:103A1000ACCF1092370510923605A7CF0F931F93A6
:103A2000CF93C42F6093890170938A0180938B0197
:103A300090938C0160E089E00E94B30547E050E07C
:103A400060E270E08DE591E00E94FB35C53690F4B0
:103A500062E0CA3020F061E0C43608F060E070E057
:103A6000635A7E4F4AE08C2F90E00E94393085E205
:103A7000809360018091AE01811122C04C9922C0D7
:103A80008DE480936201E0915C01C1E0CE0FC093B0
:103A90005C01F0E0E25DFE4F808180936301109253
:103AA00064010DE511E0F80181918F0181110CC0D5
:103AB000C43010F010925C01CF911F910F910895C6
:103AC00080E5DFCF8DE6DDCF0E947905ECCFCF9288
:103AD000DF92EF92FF92C12CD12C760145E6C7010F
:103AE000B6010E940E1D2FEF89EF90E0215080401B
:103AF0009040E1F700C000002FEFC21AD20AE20A9C
:103B0000F20A84E6C816D104E104F10439F7FF9003
:103B1000EF90DF90CF9008950F931F93CF93DF9393
:103B2000EC01062F142F40E150E060E270E08DE5DB
:103B300091E00E94FB3510926D01602F80E00E94A1
:103B4000B3051123C1F0CE010E94303081319105BF
:103B500014F080E190E0AC01BE018DE591E00E949F
:103B60002030CDE5D1E08991811119C0DF91CF914D
:103B70001F910F910895FE0101900020E9F7AF0118
:103B8000415051094C1B5D0B4131510514F040E18E
:103B900050E0BE018DE591E00E94F235E2CF0E9437
:103BA0007905E1CF41E061E070E00C948C1D40E0CC
:103BB00061E070E00C948C1DCF93DF93EC018E8953
:103BC0009F89FC012081211102C0CE0109969093AA
:103BD0008301809382010E94D71D888584FF07C0DE
:103BE00061E08FE00E94B3058EE70E947905A09105
:103BF0008201B0918301FD0101900020E9F7319726
:103C0000EA1BFB0B81E0709708F480E08093880149
:103C1000109281011092890110928A0110928B01F9
:103C200010928C01109284011092850110928601ED
:103C300010928701DF91CF91089541E070E060E03C
:103C40000C948C1D4F925F926F927F928F929F92F5
:103C5000AF92BF92CF92DF92EF92FF920F931F939A
:103C6000CF93DF934B015A018901FB01C081D181C0
:103C70006E01F12CE12C0E941D1ECC0FDD1FC00F28
:103C8000D11F888199810E94D21D2501712C612C40
:103C9000F1E0AF1AB1080E945204833009F442C027
:103CA000B8F48130C1F7F401D182C08281E0DF91A4
:103CB000CF911F910F91FF90EF90DF90CF90BF9029
:103CC000AF909F908F907F906F905F904F900895EE
:103CD000853089F08630F9F681E0C81AD108E1080C
:103CE000F108EFEFCE16DE06EE06FE0689F465015A
:103CF000F12CE12C0DC0FFEFCF1ADF0AEF0AFF0A0B
:103D0000C414D504E604F7041CF0C12CD12C7601B0
:103D1000F601EE0FFF1FE00FF11F808191810E94DD
:103D2000D21DB9CF80E0C3CF2F923F924F925F92C6
:103D30006F927F928F929F92AF92BF92CF92DF92BB
:103D4000EF92FF920F931F93CF93DF93CDB7DEB720
:103D500065970FB6F894DEBF0FBECDBF1B014901BA
:103D6000DB01CD90DC902A01712C612CC416D506A4
:103D700028F0F12CE12C2C153D0510F473016201A3
:103D80000E941D1E4AE0BE016F5F7F4FC6010E9468
:103D90004430CE0101960E94D71D980150E040E0CA
:103DA0002A8B3B8B4C8B5D8BB12CA12C0E94520437
:103DB000833009F453C0F8F48130C1F7D101CD92BA
:103DC000DC9281E065960FB6F894DEBF0FBECDBFE2
:103DD000DF91CF911F910F91FF90EF90DF90CF90E7
:103DE000BF90AF909F908F907F906F905F904F901B
:103DF0003F902F9008958530F9F08630B9F6D701BD
:103E0000C6012A893B894C895D89821B930BA40BCF
:103E1000B50B73016201481659066A067B06DCF091
:103E20004AE0BE016F5F7F4FC6010E944430CE0161
:103E300001960E94D71DBACF8A899B89AC89BD891A
:103E40008C0D9D1DAE1DBF1D750164018815990562
:103E5000AA05BB052CF76C017D01E2CF80E0B2CF53
:103E60004F925F926F927F928F929F92AF92BF928A
:103E7000CF92DF92EF92FF920F931F93CF93DF9336
:103E800000D000D000D0CDB7DEB78C0180E394E045
:103E90000E941D1E84E294E00E94D21D0E945204E2
:103EA0008130C9F08330D1F726960FB6F894DEBF83
:103EB0000FBECDBFDF91CF911F910F91FF90EF907B
:103EC000DF90CF90BF90AF909F908F907F906F903A
:103ED0005F904F9008951092B6011092B001109229
:103EE000B1011092B2011092B3010E94F5020115C6
:103EF000110549F51A82198207E114E053E1E52E14
:103F000054E0F52E8A818F9389818F931F930F93AD
:103F1000FF92EF920E945E3061E083E194E00E94A4
:103F2000F81A0F900F900F900F900F900F90892B11
:103F300041F40E94A21C89819A8101969A83898307
:103F4000E1CF03E114E066E0C8010E94F81A892B72
:103F500039F08BE994E00E94D21D0E94671DA4CF26
:103F60005A988DE094E00E941D1EC8010E94D71D42
:103F7000E3E1F4E080E091E0DF019C011D9221503B
:103F80003040E1F780911004823009F081C043E4B1
:103F900051E366E37DE2409313045093140460936D
:103FA0001504709316048093200484E591E4A0E541
:103FB000B5E48093170490931804A0931904B09368
:103FC0001A048DE292E5A1E4B7E580931B04909377
:103FD0001C04A0931D04B0931E0481E080931F0471
:103FE000AE014F5F5F4F64E170E083E194E00E94B7
:103FF0009B0FE3E1F4E080E091E0DF019C011D9282
:1040000021503040E1F71092B5011092B4011092A6
:10401000B0011092B1011092B2011092B30110924E
:10402000AF015D988090890190908A01A0908B01EA
:10403000B0908C014C9939C0289A1092800010924F
:10404000810010926F0010928500109284001092EF
:104050006F0110927001109271011092720181E84B
:104060008093810080910E04811105C080918100B0
:1040700080648093810081E280936F00C12CD12CF9
:10408000760111E08091B601882309F462C08DC0E9
:1040900083E496E3A4E3BDE28093130490931404B5
:1040A000A0931504B093160480CF8091A1018330B2
:1040B00019F26091A2017091A3018091A4019091E5
:1040C000A50120910501309106016B017C01C81802
:1040D000D908EA08FB08890130E020E0C016D106C3
:1040E000E206F30608F4A6CF4FEF0E940E1D9ACF0A
:1040F000C090A201D090A301E090A401F090A5018E
:104100006091A2017091A3018091A4019091A501F9
:1041100020910501309106018090890190908A01DB
:10412000A0908B01B0908C012B013C0148185908DC
:104130006A087B084901B12CA12C481459046A046F
:104140007B0418F04FEF0E940E1D8091A101833077
:1041500029F18091B4019091B501892787FD20C094
:104160004C9BC6CF80910001882311F24091A2019F
:104170005091A3016091A4017091A501809101016A
:10418000909102014C195D096E097F09B0E0A0E031
:1041900084179507A607B70708F0B2CF1093B601AA
:1041A0008091B601882309F44DC09091B5018091AA
:1041B000B401981771F06091B4018091B5016F77E7
:1041C00070E090E0AE014F5F5F4F8D5E9B4F0E94AD
:1041D0009B0F10926F005D9A86E395E00E94930416
:1041E000892B09F008C180913B05811104C1C09061
:1041F0004005D0904105E0904205F090430530E144
:10420000C316D104E104F10478F580913A0581FDEB
:104210002BC040903C0550903D0560903E0570904D
:104220003F0510923C0510923D0510923E051092FC
:104230003F05C114D104E104F104E1F480E090E011
:10424000DC01A0C08091B50190E0AE014F5F5F4FEF
:1042500060E870E08D5E9B4F0E949B0F8091B501DE
:1042600080588093B5010ECF40E1C42ED12CE12CB3
:10427000F12CCFCF0091360510913705D801129659
:104280008C90912CB12CA12C39E0880C991CAA1C83
:10429000BB1C3A95D1F7411451046104710409F42F
:1042A0008CC0B1E04B1A510861087108C701B60112
:1042B0006150710981099109A50194010E94B635E7
:1042C0002B833C834D835E83C301B201A50194011E
:1042D0000E94B6358B819C81AD81BE818217930788
:1042E000A407B50708F469C088279927DC01881955
:1042F0009909AA09BB0984219521A621B721809398
:104300003C0590933D05A0933E05B0933F05C81A28
:10431000D90AEA0AFB0A4091480550914905609183
:104320004A0570914B05411551056105710509F06C
:10433000ECC0C12CD12C760180913C0590913D05BB
:10434000A0913E05B0913F05AC01BD0151706627BB
:104350007727452B462B472BA9F040914C055091D0
:104360004D0560914E0570914F054C155D056E052C
:104370007F0541F0C0924C05D0924D05E0924E056C
:10438000F0924F05409140055091410560914205E2
:1043900070914305481759076A077B0760F58093BA
:1043A000400590934105A0934205B0934305809149
:1043B0003A05806280933A051EC0409144055091B1
:1043C0004505609146057091470541155105610508
:1043D000710509F03FC040E050E0BA01C8010E94F9
:1043E0009D0EAB01BC01413051056105710511F510
:1043F00082E080933B05AE014F5F5F4F64E070E069
:1044000080EB91E00E949B0F0E94A21C8091A10171
:10441000833009F0B6C0809100018111B2C086ECF2
:1044200094E00E941D1E1092A1010E94671D289811
:104430005A9A3ACD4F3F9FEF59076907790711F410
:1044400081E0D7CF409344055093450560934605DE
:1044500070934705409348055093490560934A057A
:1044600070934B0560CF8091360590913705209170
:104470003A0521FF0CC00E949D0EAB01BC01411505
:1044800051056105710539F47501640144C00E944C
:10449000A20BAB01BC014F3FAFEF5A076A077A0787
:1044A00079F2423051056105710508F4A1CFE09120
:1044B0003605F091370586899789A08DB18D48170B
:1044C00059076A077B0708F093CF4093480550933C
:1044D000490560934A0570934B0580913C05909186
:1044E0003D05A0913E05B0913F05880D991DAA1D7F
:1044F000BB1D80933C0590933D05A0933E05B09372
:104500003F05C818D908EA08FB088C149D04AE04BE
:10451000BF0408F4A8CF80913C0590913D05A0917F
:104520003E05B0913F058C0D9D1DAE1DBF1D8093B6
:104530003C0590933D05A0933E05B0933F05D70100
:10454000C6019170AA27BB27892B8A2B8B2B09F4D4
:10455000F0CE80913605909137050E94E6046115F2
:1045600071058105910509F443CF29E0F694E7949C
:10457000D794C7942A95D1F7C60ED71EE81EF91E08
:10458000DBCE86EA94E04DCFDF92EF92FF920F935D
:104590001F93CF93DF93FC017B01D42FC22F042FF5
:1045A00010E0822F90E00196B8010E94A235D82E2B
:1045B000CF010E941D1E01501109D150CD1551F09F
:1045C000EC2FF0E0EE0FFF1FEE0DFF1D80819181BB
:1045D0000E94D21D0E945204833089F030F4813051
:1045E00079F09C2FDC2EC92FE9CF853091F08630F1
:1045F000C1F79D2FCC23B1F39FEF9C0FF3CFCFEFEB
:104600008C2FDF91CF911F910F91FF90EF90DF9052
:10461000089591E0C017110681F790E0E3CF1F9253
:104620000F920FB60F9211242F933F938F939F9366
:10463000AF93BF938091180590911905A0911A0529
:10464000B0911B053091170523E0230F2D3758F546
:104650000196A11DB11D2093170580931805909315
:104660001905A0931A05B0931B058091130590912D
:104670001405A0911505B09116050196A11DB11D57
:104680008093130590931405A0931505B093160518
:10469000BF91AF919F918F913F912F910F900FBE3E
:1046A0000F901F90189526E8230F0296A11DB11DAB
:1046B000D2CF1F920F920FB60F9211242F933F93D8
:1046C0004F935F936F937F938F939F93AF93BF931A
:1046D000EF93FF9380917701882319F081508093A5
:1046E000770180915607882319F0815080935607EF
:1046F00086B120917D018095282790917C01322FF1
:104700003923309530937C0180917B01422F4823DF
:10471000342730937B01892B8095822390917D01F2
:10472000982790937D0120917D0190917A018223B9
:10473000892B80937A0180917D018F7019F482E337
:104740008093790180917901815080937901811161
:104750000EC08091070190910801809379018091AA
:104760007D01909178018F70892B809378018091E1
:104770007D0190917A0180958870892390917A01CA
:10478000982790937A01882319F081E08093A10102
:1047900080917D0190917A01809584708923909118
:1047A0007A01982790937A01882319F083E0809307
:1047B000A10188E00E94FE05882319F082E0809321
:1047C000A10184E00E94FE05882319F084E0809313
:1047D000A10180917A01827090917A01982790933B
:1047E0007A018823A1F186E08093A10180917A016A
:1047F000817090917A01982790937A01882391F1A2
:1048000085E08093A1018091A2019091A301A091E4
:10481000A401B091A5010196A11DB11D8093A20133
:104820009093A301A093A401B093A501FF91EF91F0
:10483000BF91AF919F918F917F916F915F914F91B8
:104840003F912F910F900FBE0F901F901895809160
:104850007801827090917801982790937801811166
:10486000C2CFC4CF80917801817090917801982750
:10487000909378018111C4CFC6CF1F920F920FB6CB
:104880000F9211242F933F934F935F936F937F93D6
:104890008F939F93AF93BF93CF93EF93FF93209109
:1048A0008800309189008091910190919201A091AE
:1048B0009301B0919401820F931FA11DB11D8093AC
:1048C000910190939201A0939301B09394014C991C
:1048D00075C08091AE01811171C08091AA01909143
:1048E000AB01A091AC01B091AD01892B8A2B8B2B30
:1048F000E1F48091A6019091A701A091A801B09147
:10490000A9010097A105B105C9F18093AA0190936F
:10491000AB01A093AC01B093AD011092A60110922F
:10492000A7011092A8011092A90190910E04809104
:10493000AF01981709F408C15B9A8091AA01909180
:10494000AB01A091AC01B091AD01009721E0A207AD
:10495000B10508F4FBC08F5F9F4FA109B109809397
:10496000AA019093AB01A093AC01B093AD018FEF7E
:104970009FEF909389008093880020C0109291014E
:10498000109292011092930110929401409199011A
:1049900050919A0160919B0170919C018091B001AE
:1049A0009091B101A091B201B091B3018417950724
:1049B000A607B707A8F081E08093B601FF91EF91B9
:1049C000CF91BF91AF919F918F917F916F915F91A7
:1049D0004F913F912F910F900FBE0F901F90189500
:1049E000E091B40181E08E0F8093B401F0E0ED5EC0
:1049F000FB4F608170E090E080E0C0919501C111B3
:104A000047C0611571058105910509F48FC00E94A9
:104A10006A34209173013091740140917501509175
:104A200076010E94FD340E943B346093AA0170938A
:104A3000AB018093AC019093AD018091B001909156
:104A4000B101A091B201B091B3010196A11DB11DB8
:104A50008093B0019093B101A093B201B093B301E0
:104A60008091AA019091AB01A091AC01B091AD01F0
:104A7000C23009F060C0880F991FAA1FBB1F809326
:104A8000AA019093AB01A093AC01B093AD014DCFBF
:104A9000611571058105910509F0B9CFE091B40167
:104AA00081E08E0F8093B401F0E0ED5EFB4F20813A
:104AB000E091B40181E08E0F8093B401F0E0ED5EEF
:104AC000FB4F3081E091B40181E08E0F8093B401FF
:104AD000F0E0ED5EFB4F608170E090E080E0CB01A4
:104AE00077276627732B622B0E946A3420918D01F1
:104AF00030918E0140918F01509190010E94FD34C0
:104B00000E943B346093AA017093AB018093AC0187
:104B10009093AD018091B0019091B101A091B2014B
:104B2000B091B3010396A11DB11D92CF60E071E079
:104B300080E090E06CCF8093A6019093A701A093B2
:104B4000A801B093A901F1CE5B98F7CE90938900AC
:104B5000809388001092AA011092AB011092AC01D0
:104B60001092AD019091AF0181E0911180E08093AE
:104B7000AF0124CF1F920F920FB60F9211248F9383
:104B80009F93AF93BF934C9913C080916F01909105
:104B90007001A0917101B09172010196A11DB11D2A
:104BA00080936F0190937001A0937101B093720193
:104BB000BF91AF919F918F910F900FBE0F901F905B
:104BC00018951F920F920FB60F921124CF92DF9279
:104BD000EF92FF922F933F934F935F936F937F9347
:104BE0008F939F93AF93BF93EF93FF938091AF0108
:104BF000882309F4C2C0209186003091870060911B
:104C00006F01709170018091710190917201CB01DF
:104C100077276627620F731F811D911D54E09695BB
:104C20008795779567955A95D1F76093AA01709308
:104C3000AB018093AC019093AD0110926F01109283
:104C40007001109271011092720110928500109201
:104C500084000E946A346B017C01209173013091C1
:104C6000740140917501509176010E94C9330E94F0
:104C70003B346115710581059105C1F16F3F7105E7
:104C80008105910509F0B8F5E091B40121E02E0FFE
:104C90002093B401F0E0ED5EFB4F60838091B001A2
:104CA0009091B101A091B201B091B3010196A11D03
:104CB000B11D8093B0019093B101A093B201B09364
:104CC000B301FF91EF91BF91AF919F918F917F9130
:104CD0006F915F914F913F912F91FF90EF90DF90F7
:104CE000CF900F900FBE0F901F90189561E070E06D
:104CF00080E090E0C9CF20918D0130918E014091EC
:104D00008F0150919001C701B6010E94C9330E94E2
:104D10003B34E091B40191E09E0F9093B401F0E038
:104D2000ED5EFB4F1082E091B40191E09E0F9093F5
:104D3000B401F0E0ED5EFB4F6083E091B40191E0DF
:104D40009E0F9093B401F0E0ED5EFB4F7083E09115
:104D5000B40191E09E0F9093B401F0E0ED5EFB4F43
:104D600080838091B0019091B101A091B201B09186
:104D7000B3010496A11DB11D9CCF81E08093AF01CA
:104D800010926F01109270011092710110927201D5
:104D9000109285001092840094CFCF93DF93CDB70B
:104DA000DEB7C655D1090FB6F894DEBF0FBECDBF32
:104DB000789484B5826084BD84B5816084BD85B5F6
:104DC000826085BD85B5816085BD80916E00816002
:104DD00080936E00109281008091810082608093A8
:104DE00081008091810081608093810080918000AA
:104DF0008160809380008091B10084608093B100D5
:104E00008091B00081608093B00080917A008460CE
:104E100080937A0080917A00826080937A008091FA
:104E20007A00816080937A0080917A008068809314
:104E30007A001092C10083E194E09AAB89AB80E0E4
:104E400091E09CAB8BAB90E080E00E940F33863BFF
:104E5000B1F581E090E00E940F338093100482E06E
:104E600090E00E940F3380930F0483E090E00E9453
:104E70000F3390E0909306018093050184E090E069
:104E80000E940F3390E0909304018093030186E029
:104E900090E00E940F3390E0909308018093070107
:104EA00087E090E00E940F3390E09093020180939E
:104EB000010188E090E00E940F3380930001449A42
:104EC000459A559A5D9A539A5B98209828985498D9
:104ED0005C9A8AB1806C8AB98BB18F738BB9529A04
:104EE0005A9A3B98439A3A98429A3998419A3898F4
:104EF000409A1092B0001092B1008BE98093B300F9
:104F000082E08093B0008091B10087608093B1000F
:104F1000809170008260809370008CE380937E01AA
:104F200010920D0410920C041092EB031092B90031
:104F300088E18093B8002FEF31EE44E021503040FB
:104F40004040E1F700C0000009E314E095E5E92ED8
:104F500094E0F92EF801D4900E9435058D2D0E9421
:104F600058040E9469040F5F1F4FE016F10691F785
:104F700010EB0E943505812F0E94580480E00E94AA
:104F8000580480E10E9458040E942D0500E080E052
:104F90000E9458040F5F0038D1F70E9469041F5F18
:104FA000183B39F740E250E060E270E08CEE93E0AD
:104FB0000E94FB358DE694E00E941D1E1F921F92F9
:104FC0001F928AE08F931F9282E08F9381E694E094
:104FD0009F938F9383E194E09F938F930E945E3021
:104FE00083E194E00E94D71DFFEF27EA31E6F150FC
:104FF00020403040E1F700C000000FB6F894DEBF5B
:105000000FBECDBF1AE0D12E03E511E087EBE82EED
:1050100081E0F82E2F961FAF0EAF2F972D96FFAE83
:10502000EEAE2D971A830983CE0101960E94B80433
:1050300097FF11C05FEF83EC99E0515080409040A2
:10504000E1F700C00000DA94D110E4CF8EE995E0DA
:105050000E941D1EFDC0880F991FFC01E158FE4FE4
:105060000190F081E02D309709F010822D96EEAD81
:10507000FFAD2D97309709F0108281589E4FDC01CB
:10508000ED93FC93EF2B09F0EFC0BFEFE3ECF9E0F9
:10509000B150E040F040E1F700C0000080E58CBD79
:1050A0008DB581608DBD6EE075E083E194E00E9476
:1050B000293083E194E00E940718892B09F446C146
:1050C00083E194E02B969FAF8EAF2B9741E0BE011A
:1050D000675B7F4FCE0101960E947E08892B09F005
:1050E000ADC0CE01C5969E8B8D8B86E595E0988FE1
:1050F0008F8B2B966EAD7FAD2B97CE0101960E94C4
:105100001E16009709F49AC0049709F097C0ED891C
:10511000FE89838585FD92C040E050E0BA01898117
:105120009A810E949D0E6B017C01DC01CB010297EC
:10513000A109B1098D3F9F4FAF4FBF4F08F078C015
:1051400089819A810E941707892B09F071C0098112
:105150001A81B701A601C8010E94E6042B013C0197
:10516000580182E3A80EB11CC8018E5C9D4F450119
:105170008815990509F08EC0C5010B96F50120E24E
:10518000E817F90709F08AC07EE2372EF80132AA43
:1051900080E185AF80E090E0A1ECB4E4E85BFF4FF4
:1051A00080839183A283B3833496D182C082970196
:1051B0004427552763962CAF3DAF4EAF5FAF639743
:1051C00036973183208340E250E0B501C8018E5A02
:1051D0009F4F0E940E05F801ED5AFF4F30824F811C
:1051E000588569857A85E981FA818081833061F407
:1051F00086A197A1A0A5B1A5481759076A077B0703
:1052000019F440E050E0BA01D801A459BF4F1196FB
:105210005C934E9316976D937C93128101E011116C
:105220003FC0CE0101960E94F518892B09F461C098
:10523000B701A60189819A810E949E118EE995E0AD
:105240000E941D1E85E594E00E94D21D0E94671DEC
:105250008EE995E00E941D1E00E010E00115110589
:10526000E9F30E940000FACF40E0BE01635B7F4F8C
:10527000CE01855B9F4F0E947E082FEF33EC49E003
:10528000215030404040E1F700C00000892B09F078
:10529000DACE04CFD4011D924D016ACF219370CF95
:1052A000D301C2010196A11DB11D67968CAF9DAFC0
:1052B000AEAFBFAF679789819A81DC019E964D9210
:1052C0005D926D927C92D19714960C930E94B806D1
:1052D000892B09F0ADCFF501E815F90541F411501E
:1052E00067964CAC5DAC6EAC7FAC679798CF119273
:1052F000F3CFEB89FC8980E1838780E090E0A1EC2B
:10530000B4E4868B978BA08FB18FD38EC28E6196BB
:10531000CEACDFAC6197D58AC48A09811A8181E05D
:10532000D80114968C93C8010E94B806892B09F005
:1053300085CFC8010E94301C892B09F07FCF83E103
:1053400094E00E940718892B09F078CF8FE491E050
:105350000E940718892B09F07BCF86E0EAE0F1E094
:10536000DE01AF5BBF4F01900D928A95E1F7CE0150
:105370004B960E9411159093120480931104892B6F
:10538000F1F48EE895E066CF60961FAE6097609668
:105390002FAD609743E0BE016F5B7F4F81E895E0E2
:1053A0000E94C42260968FAF6097813009F47CC35D
:1053B000D0F0823009F458C48F3F31F3E8CF6096C3
:1053C0001FAE609740901001509011016090120143
:1053D000709013018090140190901501A090160117
:1053E000B0901701D4CF8FE491E00E948918CE01CC
:1053F0004B960E9411159093120480931104892BEF
:1054000039F48EE895E00E941D1E0E94671DBFCFF3
:105410001092EA031092E90370E060E0CE014B962F
:105420000E94E114892B69F389EB94E00E941D1E10
:10543000CE014B960E94DC1D65E9262E61E0362EDA
:105440000E945204833009F4EFC208F0BAC08130E0
:1054500009F4D2C04091A2015091A3016091A4012E
:105460007091A50180918801882351F38091890171
:1054700090918A01A0918B01B0918C01892B8A2B8C
:105480008B2B41F44093890150938A0160938B01E7
:1054900070938C0180910501909106010091890122
:1054A00010918A0120918B0130918C016A017B015E
:1054B000C01AD10AE20AF30A97018601B0E0A0E01F
:1054C000081719072A073B0708F4BACF4093890148
:1054D00050938A0160938B0170938C0180918401B9
:1054E00090918501A0918601B0918701892B8A2B2B
:1054F0008B2B41F440938401509385016093860186
:10550000709387018091840190918501A09186011B
:10551000B09187018A019B01081B190B2A0B3B0BD9
:105520008091030190910401B0E0A0E008171907F1
:105530002A073B0708F484CFA0918201B091830130
:10554000FD0101900020E9F73197EA1BFB0B8091E8
:105550008101E81BF109709708F08CC2809103016A
:1055600090910401880F991FAC0170E060E004176E
:1055700015072607370708F463CF109281011092B0
:105580008401109285011092860110928701109279
:10559000890110928A0110928B0110928C018091E6
:1055A00081018A0F9B2F911D0E94D71D8BA184FF23
:1055B00047CF61E08FE00E94B3058EE70E94790536
:1055C0003FCF853009F440C2863009F043CF809147
:1055D000E9039091EA0301979093EA038093E9032A
:1055E00097FF4EC0809111049091120401979093FF
:1055F000EA038093E90344C08BA184FF22C0CE015B
:1056000084960E948918892BB9F4CE014B960E948A
:10561000111590931204809311041092EA031092D2
:10562000E90370E060E0CE014B960E94E114CE01E8
:105630004B960E94DC1D0ECF82E095E00E94D21DA9
:1056400009CFCE014B960E94DC1D1092B6010E943C
:10565000F502F1015CE0C52E1192CA94E9F761E010
:10566000CE0184960E94F81A892B79F08BE994E098
:105670000E941D1E0E94671D89EB94E00E941D1E62
:105680006091E9037091EA03CECFAE014F5F5F4FA7
:105690006CE070E083E194E00E94660C892B19F0C5
:1056A00080E994E0E5CFAE014F5F5F4F68E070E0C6
:1056B00085E991E00E94660C892B91F74091990150
:1056C00050919A0160919B0170919C018B8D9C8DF2
:1056D000AD8DBE8D4497A109B109481759076A07D6
:1056E0007B07A9F082E894E00E941D1E8B8D9C8DA3
:1056F000AD8DBE8D4497A109B10980939901909316
:105700009A01A0939B01B0939C010E94671D809118
:10571000170490911804A0911904B0911A048435CB
:105720009144A045B54469F480911B0490911C04F8
:10573000A0911D04B0911E048D329245A144B7453D
:1057400019F085E794E094CF8091130490911404AC
:10575000A0911504B0911604833446E3940744E302
:10576000A4074DE2B40729F083349143A643BD4218
:1057700041F7AE014F5F5F4F60E071E083E194E07D
:105780000E94660C892B09F08BCF89819A818F3F0B
:10579000910509F008F484CF80E091E09A83898331
:1057A0001092B5011092B4011092B0011092B101A3
:1057B0001092B2011092B3011092AF011092AE019B
:1057C0001092AA011092AB011092AC011092AD019F
:1057D0001092A6011092A7011092A8011092A9019F
:1057E00080EB94E00E941D1E80910E04811102C086
:1057F0005B9A01C05B985D981092800010928100C6
:1058000010926F0010928500109284001092910106
:105810001092920110929301109294018091810054
:105820008A60809381008FEF9FEF9093890080932F
:10583000880080916F00826080936F0010E0898102
:105840009A81892B09F044C08091B60181112AC048
:105850006091A2017091A3018091A4019091A50192
:10586000E0910501F0910601C0908901D0908A0174
:10587000E0908B01F0908C019B01AC012C193D094B
:105880004E095F096F01F12CE12C2C153D054E05E9
:105890005F0518F0412F0E940E1D8091A1018330F9
:1058A00009F07FC010926F000E94A21C80910E042C
:1058B0008111A7C05B9AA6C08091A101813041F4FB
:1058C0001092A1019091AE01911180E08093AE0100
:1058D0008091B4019091B501892787FD33C0609113
:1058E000A2017091A3018091A4019091A501E09182
:1058F0000501F0910601C0908901D0908A01E090E5
:105900008B01F0908C019B01AC012C193D094E09D3
:105910005F0969017A019F0150E040E0C216D30699
:10592000E406F50618F0412F0E940E1D8091B60185
:10593000811105C08091A101833009F0BDCF31E014
:105940003093B6018091B60181117ECF8091B5016F
:1059500090E0AE014F5F5F4F60E870E08D5E9B4F5F
:105960000E94660C8091B50180588093B50120910A
:10597000B0013091B1014091B2015091B301E0907A
:105980009901F0909A0100919B0110919C01A4E66D
:10599000B0E00E94D835A80197010E94B635122FB9
:1059A0004ECF6091910170919201809193019091FD
:1059B00094010E946A3467966CAF7DAF8EAF9FAF43
:1059C00067972FEF3FEF4FE75BE460918D01709198
:1059D0008E0180918F01909190010E94FD349B0176
:1059E000AC010E945D339B01AC0167966CAD7DAD4F
:1059F0008EAD9FAD67970E94F83418160CF024CF37
:105A000051CF5B985D9A8091A101833051F486EC6F
:105A100094E00E941D1E0E94671D5B981092A101D8
:105A20002BCE86EA94E0F5CF8091C9019091CA010E
:105A3000A091CB01B091CC01892B8A2B8B2B09F43F
:105A4000A6CC81E591E0DDCD8091E9039091EA0358
:105A500001969093EA038093E90320911104309119
:105A60001204821793070CF40BCE1092EA031092E3
:105A7000E90306CE009103011091040130E020E01B
:105A80000095109520953095400F511F621F731F90
:105A90004093840150938501609386017093870140
:105AA0008F5F809381017BCD49825A826B827C8299
:105AB00088E195E00E941D1E6EE075E083E194E0B0
:105AC0000E94293083E194E00E94891833243394A2
:105AD00007E210E0892B09F496C082E095E00E946D
