:100000000C9496020C94B3020C94B3020C94B302B9
:100010000C94B3020C94B3020C94B3020C942623F8
:100020000C94B3020C94B3020C9494260C940A24FE
:100030000C94B3020C946D260C94B3020C94B3028E
:100040000C94DC220C94B3020C94B3020C94B30213
:100050000C94B3020C94B3020C94B3020C94B3024C
:100060000C94B3020C94B3025265636F7264005037
:100070006C6179004175746F004D616E75616C0043
:100080004E5453430050414C0043313600564943CF
:1000900000433634000000000000000000000000B3
:1000A000DFDF000000000307000307000000143E2C
:1000B000143E14000000242A7F2A1200004323105B
:1000C0000804626100387C447F3F040400000000A3
:1000D000070700000000007EFF8100000000008193
:1000E000FF7E000000082A1C7F1C2A080000080868
:1000F0003E3E080800000080E060000000000808A4
:100100000808080800000000C0C000000000C0F09F
:100110003C0F0300003E7F5149457F3E00004042B6
:100120007F7F404000727B4949494F46002263412E
:1001300049497F3600070F0808087E7E00276F496F
:1001400049497931003E7F4949497930000101012F
:1001500001017F7E00367F4949497F3600060F093D
:1001600009097F7F00000000636300000000008039
:10017000E36300000000081C366341000000141413
:100180001414141400004163361C0800000203D14B
:10019000D9090F06003E7F415D555F0E007E7F0945
:1001A00009097F7E007F7F4949497F36003E7F41B4
:1001B00041416322007F7F4141633E1C007F7F49B4
:1001C00049494141007F7F0909090101003E7F4102
:1001D00049497B7A007F7F0808087F7F0000414102
:1001E0007F7F4141002061417F3F0101007F7F0807
:1001F0001C366341007F7F4040404040007F7F06C7
:100200000C067F7F007F7F060C187F7F003E7F41BA
:1002100041417F3E007F7F0909090F06003E7F4173
:1002200061C1FFBE007F7F0909097F7600266F4903
:1002300049497B32000001017F7F0101003F7F407F
:1002400040407F7F0000071F78781F07007F7F30C6
:1002500018307F7F0063771C081C776300276F4886
:1002600048487F3F006171594D474341000000FFFE
:10027000FF8181000000030F3CF0C00000000081FE
:1002800081FFFF0000040603010306040080808054
:1002900080808080000307040000000000387C4458
:1002A00044247C78007F7F2444447C3800387C449C
:1002B0004444444400387C4444247F7F00387C54C8
:1002C00054545C080000047E7F0501000018BCA4A3
:1002D000A494FC78007F7F0804047C780000000070
:1002E0007D7D000000004040407D3D00007F7F0894
:1002F000081C7662000000007F7F000000787C18F8
:1003000030187C78007C7C0804047C7800387C44BD
:1003100044447C3800FCFC2824243C18001C1E2289
:100320002212FEFE007C7C0804040C0800485C5489
:1003300054547420003F7F4444446020003C7C407F
:1003400040207C7C00000C3C70703C0C003C7C30FD
:1003500018307C3C00446C3810386C44000C5C5005
:1003600050507C3C00446474545C4C440000083E93
:100370007741000000000000FFFF0000000041770F
:100380003E08000000000808492A1C080052656366
:100390006F7264696E67007265632D252E34642E5A
:1003A000746170005072657373205354415254004D
:1003B00052656164792E2E2E00AED580A83FD30001
:1003C000408D142010A1C8DA12813FD922DB20A46D
:1003D000A6B00010AF4D4B444952206661696C21B4
:1003E00000563A2025642E25642E256400496E6946
:1003F000742E2E2E00496E76616C69642054415033
:100400002100496E76616C69642073697A65210008
:1004100052454144206661696C21004F50454E2091
:100420006661696C2100436F6D706C6574652100B5
:100430004C6F6164696E673A0053656C6563742044
:1004400066696C653A0041626F72746564210045AB
:100450006E746572206E616D650020616263646513
:10046000666768696A6B6C6D6E6F707172737475B4
:10047000767778797A303132333435363738395FB8
:100480002D004348444952206661696C21002F7257
:1004900065636F72646564004E616D65206D6F64A5
:1004A000653A004175746F2066696E616C697A65A2
:1004B000005265636F72642066696E616C697A656B
:1004C000005469636B657220686F6C6400546963E3
:1004D0006B6572207370656564004B65792073707D
:1004E00065656400496E7665727400566964656F6F
:1004F000004D616368696E65004F7074696F6E735B
:100500000053656C656374206D6F64653A004E6FCF
:100510002066696C657320666F756E642100496E94
:100520006974206661696C656421000011241FBE36
:10053000CFEFD8E0DEBFCDBF11E0A0E0B1E0E6E84C
:10054000FDE602C005900D92AC3DB107D9F727E05A
:10055000ACEDB1E001C01D92A93DB207E1F70E94E8
:1005600080270C94C1360C94000060919204613095
:1005700049F1F8F0623079F1609191046623B1F1AC
:10058000613091F120E030E040E051E460911702E9
:10059000709118028091190290911A020E94B1354F
:1005A0006093F5017093F6018093F7019093F80141
:1005B000089520E03AE840E759E480E094E9A9E7AB
:1005C000B9E4DACF20EA3DE447E859E480E790EB6C
:1005D000A9E7B9E4D1CF20E43CE748E559E480E657
:1005E0009AE7AAE5B9E4C8CF9C01AD0160E074E2E6
:1005F00084E799E40E947D34609317027093180297
:100600008093190290931A02BDCF8EBD0DB407FEE0
:10061000FDCF8EB5089582E38093D8078FEF0E94B7
:100620000503282F8F3F21F08091D8078111F6CF45
:1006300081E090E02F3F11F090E080E008959C0170
:100640003E5FFC0140814EBD0DB407FEFDCFFC01B5
:1006500041814EBD0DB407FEFDCF02968217930770
:1006600081F78FEF0E9405038FEF0E9405038FEF44
:100670000E940503282F2F7181E090E0253011F0B2
:1006800090E080E008952A9A8FEF0C940503CF93B1
:10069000DF93EC012A988FEF0E940503CD2B31F4F4
:1006A000C1E0D0E0CE01DF91CF9108950E940B030D
:1006B000EC01892BA9F70E944303F4CFFF920F931B
:1006C0001F93CF93DF93C82FD42F152F062FF72E0C
:1006D00087FF09C040E050E0BA0187E30E945E0353
:1006E000823048F5CF77CC3061F58C2F80640E9442
:1006F00005038F2D0E940503802F0E940503812F83
:100700000E9405038D2F0E94050385E9CC2321F06B
:1007100087E8C83009F081E00E940503CC3019F465
:100720008FEF0E940503CAE08FEF0E94050387FF49
:1007300002C0C150C9F7DF91CF911F910F91FF9077
:1007400008950E94430381E090E0C11102C090E04F
:1007500080E00E944703892B41F68FEFECCFDF92B8
:10076000EF92FF920F931F93CF93DF937C01E901E8
:100770008091F00183FD07C099E0440F551F661F6B
:10078000771F9A95D1F711E1C230D10508F012E137
:10079000812F0E945E03811116C084E1D82E0FEFD5
:1007A000D09201028FEF0E9405038F3FE1F4809108
:1007B00001028111F7CF123131F440E050E0BA016B
:1007C0008CE00E945E030E94430381E090E0CD2B09
:1007D00011F490E080E0DF91CF911F910F91FF9095
:1007E000EF90DF9008958E3F31F7F7018EEFF81A02
:1007F0000EBD0DB407FEFDCF8EB580830EBD0DB4CA
:1008000007FEFDCF8EB581833296EE16FF0681F787
:100810008FEF0E9405038FEF0E940503219709F0D7
:10082000BFCFC9CF80912B02811110922B02089566
:100830008093BB0084E88093BC008091BC0087FF5C
:10084000FCCF9091B900987F81E0983209F480E064
:10085000089584E98093BC008091BC0084FDFCCFA6
:10086000089594EA9093BC009091BC0097FFFCCF50
:100870009091B900987F983021F0903111F081E08B
:1008800008958093BB0084E88093BC008091BC00F5
:1008900087FFFCCF8091B900887F883111F08034C8
:1008A00071F780E008950097E9F0DC01ED91FC918B
:1008B00011973097B9F020812223A1F0268137814A
:1008C00012968D919C912817390761F481818111CD
:1008D00007C080910B0180FD08C090E080E0089582
:1008E00081E0F9CF89E090E0089583E090E00895F9
:1008F000DC01ED91FC91309769F0DF019D014D9194
:10090000403298F04A33D1F7AF014F5F5F4F241761
:10091000350719F08FEF9FEF089540814033D1F7ED
:100920002F5F3F4FFC013183208390E080E00895EA
:10093000FC019C01255F3F4F80E080FB879587F994
:100940009191890FE217F307C1F708950F931F9351
:10095000FC019A01AB0122503109410951098689F4
:100960009789A08DB18D0297A109B1092817390780
:100970004A075B0778F4A281B0E00E948C3602A59A
:1009800013A524A535A5600F711F821F931F1F910A
:100990000F91089560E070E0CB01F9CFCF93DF9322
:1009A000DB01FC019A012230310580F49A012E7F8F
:1009B000820F931F620F731F4217530721F0FB0131
:1009C0002081FC012083DF91CF910895CD91DD91AD
:1009D000C193D19322503109E6CF80910802880F4C
:1009E0000E94310480E40C94180480910802880F5E
:1009F0000E94310480E00C941804FF920F931F931F
:100A0000CF93DF93C82FF62ED0918E04DD0FDD0F2C
:100A1000DD0F0E94F50480918F0480550E94180418
:100A20008D2F88700E9418048D2F82958F708061A1
:100A30000E9418040E94ED04C05288E0C89FE001A3
:100A4000112410E000E0CB56DF4FFE01E00FF11F54
:100A50008491F11080680E9418040F5F1F4F0830C6
:100A6000110599F7DF91CF911F910F91FF900C9491
:100A70002904CF93C82F60E00E94FD0480918F0469
:100A800090E020918E04FC0134E0EE0FFF1F3A95B8
:100A9000E1F7E259FB4FE20FF11DC0832F5F2031D8
:100AA000C0F420938E0480916D048823D1F080914E
:100AB0008F0420E1829FC001112420918E0482596D
:100AC0009B4F820F911D61E0FC018081CF910C94BE
:100AD000FD0410928E0401968170992780938F04F3
:100AE000E2CFCF9108951F93CF93DF93623078F5D3
:100AF000803168F5C62FD82F10916D04112389F02D
:100B000080918F0420E1829FC001112420918E04E6
:100B100082599B4F820F911D60E0FC0180810E94F1
:100B2000FD04D0938E04C0938F04112381F0F0E173
:100B3000CF9FB001112462597B4FFB01ED0FF11DD6
:100B400061E08081DF91CF911F910C94FD04DF91D2
:100B5000CF911F91089580918F0420E1829FC00161
:100B6000112420918E0482599B4F820F911DFC010C
:100B7000808110926D0460E00C94FD04909102025B
:100B800098238091020289278093020280910402B7
:100B90008923909104029827909304020895CF939B
:100BA000DF93EC01AE89BF892C91211102C0DC01D9
:100BB0001996FD0101900020E9F73197EA1BFB0B24
:100BC000EC01888583FD10C084FF07C081E090E0C0
:100BD0002C912E3231F480E004C081E090E0359712
:100BE000D0F3DF91CF91089580E090E0FACFCF92DB
:100BF000DF92EF92FF920F931F93CF93DF93EB015E
:100C000069017A0181116DC00115110509F469C0EE
:100C100080910B0180FD68C080910B0182FD66C050
:100C20008091F00183FD07C099E0CC0CDD1CEE1C27
:100C3000FF1C9A95D1F70130110559F5B701A601AE
:100C400088E10E945E03882391F001E010E00E9499
:100C5000430381E090E0012B09F480E0DF91CF9124
:100C60001F910F91FF90EF90DF90CF9008950E9419
:100C70000B03892B51F38EEF0E940503CE010E94D6
:100C80001F0331E020E0892B09F030E0032F122F01
:100C9000DECF867031F0A80170E060E087E90E9445
:100CA0005E03B701A60189E10E945E038111CFCFE7
:100CB0000E940B03892B61F08CEF0E940503CE018B
:100CC0000E941F03892B21F0DE5F0150110981F77B
:100CD0000E940B03892B09F4B8CF8DEF0E94050306
:100CE000B6CF84E090E0BACF83E0FCCF82E0FACFC9
:100CF0008F929F92AF92BF92CF92DF92EF92FF922C
:100D00000F931F93CF93DF93EC018EA49FA4A8A809
:100D1000B9A86C0182E3C80ED11C01E010E0A50166
:100D20009401B60189810E94F705892BE9F51C829F
:100D30008AA19BA1ACA1BDA1B501A401481B590B7F
:100D40006A0B7B0B8A8D9B8DAC8DBD8D4817590727
:100D50006A077B0778F090E080E0DF91CF911F91E8
:100D60000F91FF90EF90DF90CF90BF90AF909F904A
:100D70008F900895EB80F12C82E0E816F10458F38F
:100D80008A8D9B8DAC8DBD8D880E991EAA1EBB1EB3
:100D900001E010E0A5019401B60189810E94F705E8
:100DA00081E0E81AF108E8CF81E090E0D6CFFC01BD
:100DB000248121110C94780690E080E00895CF9270
:100DC000DF92EF92FF920F931F93CF93DF93FC017B
:100DD00006A517A520A931A9041715072607370767
:100DE00051F16A017B01EC010E94D7068C01892B2D
:100DF00061F001E010E0C801DF91CF911F910F91E8
:100E0000FF90EF90DF90CF90089589818111F1CF0D
:100E100080910B0180FDEDCF21E030E0B701A6010C
:100E2000CE01C2960E94AF03892B19F7CEA6DFA68A
:100E3000E8AAF9AAE0CF10E000E0DDCF4F925F9280
:100E40006F927F928F929F92AF92BF92CF92DF92DA
:100E5000EF92FF920F931F93CF93DF93EC016A0100
:100E60007B01480159018881823009F471C08330C7
:100E700009F48FC0813009F0C5C08A011695079525
:100E8000040F151FC801892F992786954AA15BA1D8
:100E90006CA17DA1480F591F611D711DCE010E94DB
:100EA000DF060097D9F5882DF801F170EC0FFD1FD2
:100EB0002601370121E04222552466247724C0FE12
:100EC00007C082A98F7090E1899E90011124822B26
:100ED00082AB0F5F1F4F81E08C83C801892F992758
:100EE00086954AA15BA16CA17DA1480F591F611D88
:100EF000711DCE010E94DF06009781F41170FE0182
:100F0000E00FF11F452846284728D9F064E0B69441
:100F1000A794979487946A95D1F782AA21E02C83AD
:100F2000DF91CF911F910F91FF90EF90DF90CF90C5
:100F3000BF90AF909F908F907F906F905F904F90F9
:100F4000089522A9207F392D3F70832E822AE5CF74
:100F500077276F2D5E2D4D2D8AA19BA1ACA1BDA140
:100F6000480F591F6A1F7B1FCE010E94DF060097A2
:100F7000A9F6CC0CDD1CEE1CFF1CE894C0F8E1E0E7
:100F8000DE22EE24FF24CC0EDD1EF60113AB02ABF5
:100F9000C5CF8AA19BA1ACA1BDA137E0769567958D
:100FA000579547953A95D1F7480F591F6A1F7B1FF0
:100FB000CE010E94DF06009709F0B0CF22E0CC0CF2
:100FC000DD1CEE1CFF1C2A95D1F7FCEFCF22F1E0CF
:100FD000DF22EE24FF2422E3C20ED11CFE01EC0D21
:100FE000FD1D408151816281738144275527662709
:100FF000707F842A952AA62AB72A80829182A282AB
:10100000B3828CCF82E090E089CFCF93DF93EC0165
:101010001C828FEF9FEFDC018EA79FA7A8ABB9AB17
:10102000CE010E94DF06892B19F5FE01E05DFD4F20
:101030008081918185359A4AF9F4E85CF14080819C
:101040009181A281B381BB2786349144A445B10527
:1010500069F0CC57DF4F488159816A817B817727BE
:1010600081E0463451446445710519F480E001C0C3
:1010700083E0DF91CF91089582E0FBCF2F923F92E2
:101080004F925F926F927F928F929F92AF92BF9298
:10109000CF92DF92EF92FF920F931F93CF93DF9344
:1010A000CDB7DEB76D970FB6F894DEBF0FBECDBFDC
:1010B0007C01CB01742ED7011D921C920E947804F2
:1010C0006C018BE090E0D7FC22C0F601EE0FFF1F11
:1010D000E75FFD4F008111818CE090E00115110563
:1010E000B1F0F70111830083D8018C91882351F16D
:1010F00011968C91811124C080910B0180FD22C03A
:10110000772009F4EFC182FFEDC18AE090E06D968F
:101110000FB6F894DEBF0FBECDBFDF91CF911F9108
:101120000F91FF90EF90DF90CF90BF90AF909F9086
:101130008F907F906F905F904F903F902F90089589
:1011400081E0DCCFF8011082C18281E0C11007C0CC
:101150001CBC80910B0181FFC8C180910B0180FDF7
:10116000ABC2772011F082FDD0CF40E050E0BA0151
:10117000C8010E940508412C512C3201813009F030
:1011800065C2F801EC50FE4F9E012F5F3F4F690191
:10119000C8018C5C9D4FD901208140E050E0BA012C
:1011A000222321F044815581668177814D935D939F
:1011B0006D937D937096E817F90771F7760130E12A
:1011C000E30EF11CD6014D905D906D907D906D0108
:1011D00082E0411451046104710409F433C2B30183
:1011E000A201C8010E94050881112CC2F80185AD39
:1011F00096AD8115924009F02EC2F801E85BFF4FD1
:1012000080809180B12CA12C81149104A104B1049F
:1012100029F43E9680809180A280B380D8015A96AE
:101220008D929D92AD92BC925D97F801EE5BFF4F5F
:10123000A081F801A3838FEF8A0F823008F00BC2E0
:10124000F7ADF98B2F2FF8012283222309F403C273
:1012500030E0C901019782239323892B09F0FBC158
:10126000F801ED5BFF4F20803180F8013186208648
:10127000C1018F709927892B09F0EDC1EB5BFF4FFE
:10128000C080D180F12CE12CC114D104E104F1041F
:1012900029F43D96C080D180E280F380F801E05CC3
:1012A000FF4F0190F081E02D309709F4D4C1B0E0F8
:1012B000A50194010E948C366A8F7B8F8C8F9D8F45
:1012C0009F0150E040E02E8B3F8B488F598FC1012A
:1012D00064E0969587956A95E1F7280F391F411DBF
:1012E000511DDA01C9012A8D3B8D4C8D5D8D280F72
:1012F000391F4A1F5B1F2A8B3B8B4C8B5D8BC216A1
:10130000D306E406F50608F4A6C1C701B601621BC0
:10131000730B840B950BE9892E2F30E050E040E0F1
:101320000E946A36211531054105510509F493C122
:10133000263FFFE03F074105510508F48FC182E0D9
:10134000898B263FAFEF3A074105510510F0B3E016
:10135000B98B69017A01E2E0CE0ED11CE11CF11CCF
:10136000D8015696CD92DD92ED92FC925997F801F4
:10137000468E578E60A271A28E899F89A88DB98DE5
:10138000840D951DA61DB71D82A393A3A4A3B5A389
:101390004A895B896C897D89440D551D661D771DC1
:1013A00042A753A764A775A7F989F33009F059C17B
:1013B000232809F050C1F801E25AFF4F8081918142
:1013C000A281B381F80186A397A3A0A7B1A742E0A9
:1013D000CC0CDD1CEE1CFF1C4A95D1F73FEFC30E71
:1013E00031E0D31EE11CF11C89E0F694E794D79418
:1013F000C7948A95D1F78C149D04AE04BF0408F4F9
:101400002AC18FEF9FEFDC01F80186879787A08BB9
:10141000B18B82879387A487B58780E88583F98914
:10142000F33009F049C0F801EE59FF4F80819181F6
:10143000019709F041C0B301A2014F5F5F4F6F4FA9
:101440007F4FC8010E94DF06892BB1F5D8011596A0
:101450001C92F801E05DFD4F8081918185359A4AAB
:1014600059F5F80182A993A9A4A9B5A98235924595
:10147000A146B14409F5F801EA5EFD4F80819181F2
:10148000A281B38182379247A144B146A9F4349630
:1014900080819181A281B381F80186879787A08B93
:1014A000B18BE25EFD4F80819181A281B381F80111
:1014B00082879387A487B587E989D801EC938091C7
:1014C000DC019091DD0101969093DD018093DC01B8
:1014D00017969C938E93169752961D921D921D926D
:1014E0001C92559790E080E012CE84B18C6284B952
:1014F000249885B18C6285B92C9A82E58CBD83E5F0
:101500008CBD8DB58E7F8DBDBAE0FB2E8FEF0E9416
:101510000503FA94F110FACF40E050E0BA0180E000
:101520000E945E03E82EF1E08F1378C084E680937A
:1015300001024AEA51E060E070E088E00E945E0348
:10154000813009F045C09E012F5F3F4F59014E0188
:1015500035E0830E911C75018FEF0E940503D701C2
:101560008D937D018A169B06B9F78B81813009F036
:1015700055C08C818A3A09F051C0809101028823BC
:1015800049F040E050E060E070E489EA0E945E03C8
:101590008111F3CF80910102882309F43FC040E01C
:1015A00050E0BA018AE30E945E03811137C08FEFD9
:1015B0000E940503F50181935F01EE15FF05B9F760
:1015C0008981A4E0FA2E86FF2AC07CE0F72E27C08E
:1015D00040E050E0BA0189EA0E945E03FF24F394E0
:1015E000823020F4E2E0FE2EF9EAEF2E8091010233
:1015F000882341F040E050E0BA018E2D0E945E0346
:101600008111F4CF80910102882341F040E052E043
:1016100060E070E080E10E945E038111FC2CF0929A
:10162000F0010E944303FF2059F080910B018E7F4F
:1016300080930B0180E58CBD8DB581608DBD8DCD16
:101640001CBC8BCDEC14FD0409F0BCCD8330B9F18A
:10165000882309F4CBCD8DE090E059CD91E0998BB2
:1016600070CE2328C1F32A8D3B8D4C8D5D8D820F6A
:10167000931FA41FB51FF80186A397A3A0A7B1A726
:10168000F989F23029F4CC0CDD1CEE1CFF1CA6CE2F
:10169000A3E0B0E0A70196010E948C36969587954D
:1016A0007795679521E0C222DD24EE24FF24C60E43
:1016B000D71EE81EF91E92CE83E090E028CD81E08F
:1016C00090E025CDBF92CF92DF92EF92FF920F93E1
:1016D0001F93CF93DF93423051056105710508F4E4
:1016E000B0C0FC0106891789208D318D4017510744
:1016F0006207730708F0A5C06A017B01EC018081D5
:10170000823009F453C0833009F471C0813009F08C
:1017100098C08A0116950795040F151FC801892FD7
:10172000992786954AA15BA16CA17DA1480F591FFD
:10173000611D711DCE010E94DF06892B69F06FEFDC
:101740007FEFCB01DF91CF911F910F91FF90EF9031
:10175000DF90CF90BF900895F801F170EC0FFD1F5E
:10176000B2A80F5F1F4FC801892F992786954AA1FC
:101770005BA16CA17DA1480F591F611D711DCE0198
:101780000E94DF06892BD9F61170C00FD11F6AA9FC
:10179000762F6B2DC0FE08C054E0769567955A955C
:1017A000E1F790E080E0CECF7F70FBCF77276F2D01
:1017B0005E2D4D2D82A193A1A4A1B5A1480F591F63
:1017C0006A1F7B1FCF010E94DF06892B09F0B7CF6C
:1017D000CC0CDD1CEE1CFF1CE894C0F8F1E0DF220D
:1017E000EE24FF24CC0DDD1D6AA97BA9DACF82A1EE
:1017F00093A1A4A1B5A127E0769567955795479544
:101800002A95D1F7480F591F6A1F7B1FCF010E94ED
:10181000DF06892B09F093CF82E0CC0CDD1CEE1C97
:10182000FF1C8A95D1F78CEFC82281E0D822EE24E4
:10183000FF24CC0DDD1D6AA97BA98CA99DA99F70F1
:1018400081CF61E070E080E090E07CCF3F924F92EA
:101850005F926F927F928F929F92AF92BF92CF9240
:10186000DF92EF92FF920F931F93CF93DF936C0160
:101870008B014A01FA011182108288EB95E00E94E7
:1018800053047C01892B31F48091BD058823A9F094
:10189000E82EF12CC701DF91CF911F910F91FF909E
:1018A000EF90DF90CF90BF90AF909F908F907F9000
:1018B0006F905F904F903F9008958091BC0580FF9E
:1018C00044C18091C2059091C305A091C405B09117
:1018D000C5054091BE055091BF056091C00570914E
:1018E000C105841B950BA60BB70BA80170E060E047
:1018F00084179507A607B70708F48C010115110591
:1019000049F24091BE055091BF056091C0057091AC
:10191000C105DB01CA019170AA27BB27892B8A2B3D
:101920008B2B09F0DCC08091B8059091B905FC01C2
:10193000228121502A013B01E9E076946794579473
:101940004794EA95D1F7322E3420C1F5452B462B2A
:10195000472BA1F46091C6057091C7058091C80519
:101960009091C905623071058105910590F482E07E
:101970008093BD0552E0E52EF12C8CCF4091CA0535
:101980005091CB056091CC057091CD050E94620B02
:10199000E9CF6F3FFFEF7F078F079F0739F481E0A3
:1019A0008093BD05EE24E394F12C74CF6093CA05B7
:1019B0007093CB058093CC059093CD05A090B8058E
:1019C000B090B9054091CA055091CB056091CC0506
:1019D0007091CD05C5010E94A604611571058105B0
:1019E000910529F22B013C01430C511C611C711C17
:1019F000E801CD2FDD27C695209709F468C0F501D1
:101A00008281232D30E0A9014C0F5D1F90E08417E7
:101A1000950718F4EC01C21BD30BF50181818111EC
:101A2000BECF209709F4BBCF80910B0180FDB7CFCB
:101A30009E01B301A201C6010E94AF03892B09F0E8
:101A4000AECFE091B805F091B90584818823E1F02B
:101A500086A597A5A0A9B1A984199509A609B709D2
:101A6000AE0170E060E084179507A607B70760F441
:101A7000BF016E5C7F4F982F8827990F40E052E09E
:101A80008C0D9D1D0E94CE04DC2FCC27DD0FCC0ECB
:101A9000DD1E8091BE059091BF05A091C005B0915B
:101AA000C1058C0F9D1FA11DB11D8093BE05909394
:101AB000BF05A093C005B093C105F4018081918159
:101AC0008C0F9D1F918380830C1B1D0B17CF4092A1
:101AD000CE055092CF056092D0057092D1058091CD
:101AE000BE059091BF05917020E032E0281B390BB4
:101AF000E8012017310708F4E9014091CE05509123
:101B0000CF056091D0057091D1058091B805909175
:101B1000B9050E94DF06892B09F041CF8091BE05EF
:101B20009091BF05A091C005B091C1059170AA2701
:101B3000BB27C2966091B8057091B905680F791FEF
:101B4000AE01C6010E94CE04A2CF87E0E82EF12CA0
:101B5000A1CEAF92BF92CF92DF92EF92FF920F93FE
:101B60001F93CF93DF938C01EB01DC0115967C93DF
:101B70006E9314971696CD90DD90ED90FC9019978A
:101B8000B1E0CB16D104E104F10469F482E090E005
:101B9000DF91CF911F910F91FF90EF90DF90CF9049
:101BA000BF90AF900895DC01ED91FC9186899789F3
:101BB000A08DB18DC816D906EA06FB0638F7C11408
:101BC000D104E104F10409F040C08081833041F484
:101BD00086A197A1A0A5B1A50097A105B105B9F56A
:101BE00080859185C817D90788F666A177A180A559
:101BF00091A5D8011A96CD92DD92ED92FC921D9797
:101C0000611571058105910509F29E0144E0369543
:101C100027954A95E1F7620F731F811D911DF80109
:101C200066877787808B918B80819181C296CF70F8
:101C3000DD2755E0CC0FDD1F5A95E1F7C80FD91FFE
:101C4000D38BC28B90E080E0A3CFD701C601A280E6
:101C5000E0E1AE9E500111246C017D01F80180810C
:101C60009181B701A601CA15DB0518F40E94A604EC
:101C7000C0CF0E94620B6B017C01FFEFCF16DF0625
:101C8000EF06FF06B9F022E0C216D104E104F10428
:101C900008F47CCFD801ED91FC9186899789A08DBD
:101CA000B18DC816D906EA06FB0608F06FCFCA192F
:101CB000DB09D4CF81E090E06BCF4F925F926F92BF
:101CC0007F928F929F92AF92BF92CF92DF92EF92CC
:101CD000FF920F931F93CF93DF93EC012A013B01F7
:101CE000411451046104710479F58A849B84AC84A5
:101CF000BD8481149104A104B10409F45AC08E89F1
:101D00009F89A88DB98D88169906AA06BB0608F08A
:101D100050C0750164012FEFC21AD20AE20AF20A1A
:101D20008E899F89A88DB98DC816D906EA06FB064B
:101D300008F449C082E088169104A104B104F0F5CA
:101D4000C12CD12C760115C00E94620B6B017C0165
:101D500022E0C216D104E104F10408F4A7C08FEF19
:101D6000C816D806E806F806B9F4CC24CA94DC2CC8
:101D70007601C701B601DF91CF911F910F91FF90BE
:101D8000EF90DF90CF90BF90AF909F908F907F901B
:101D90006F905F904F9008958E899F89A88DB98D1F
:101DA00053014201C816D906EA06FB0608F0B1CF76
:101DB000E0CF812C912C54018394ABCF92E0C92EBB
:101DC000D12CE12CF12CB701A601CE010E94620BAF
:101DD000611571058105910599F06F3F2FEF72072D
:101DE0008207920711F2613071058105910509F4AE
:101DF0005DC0C814D904EA04FB0409F08CCFA0CF5D
:101E000082E0C816D104E104F10408F44FC08E89C1
:101E10009F89A88DB98DC816D906EA06FB0608F079
:101E200045C00FEF1FEF2FEF3FE0B701A601CE0136
:101E30000E941E070097B9F5411451046104710412
:101E4000D1F4CA86DB86EC86FD868E859F85A889BF
:101E5000B9898F3F2FEF9207A207B20709F489CF04
:101E60000197A109B1098E879F87A88BB98B8D81B6
:101E700081608D837ECF82E0481651046104710435
:101E8000A8F08E899F89A88DB98D481659066A06D3
:101E90007B0660F497018601B301A201CE010E9486
:101EA0001E07009771F2019709F45FCFC12CD12C66
:101EB0007601C3945ECF2F923F924F925F926F92C2
:101EC0007F928F929F92AF92BF92CF92DF92EF92CA
:101ED000FF920F931F93CF93DF935C017B011A0155
:101EE000FA011182108288EB95E00E9453046C0184
:101EF000892B31F48091BD058823B1F0C82ED12CF7
:101F0000C601DF91CF911F910F91FF90EF90DF906D
:101F1000CF90BF90AF909F908F907F906F905F9089
:101F20004F903F902F9008958091BC0581FFC2C1D2
:101F30008091BE059091BF05A091C005B091C105EB
:101F4000AC01BD014E0D5F1D611D711D4817590784
:101F50006A077B0708F0EAC08091BE059091BF0533
:101F6000A091C005B091C1054091C2055091C30533
:101F70006091C4057091C505481759076A077B072A
:101F800008F48FC18091BC0580628093BC05B8CFF6
:101F90004091CA055091CB056091CC057091CD055B
:101FA00003C16F3FFFEF7F078F079F0739F481E081
:101FB0008093BD05CC24C394D12CA2CF6093CA05D5
:101FC0007093CB058093CC059093CD054090C605CA
:101FD0005090C7056090C8057090C90545284628EF
:101FE000472841F46093C6057093C7058093C805E0
:101FF0009093C9058091B8059091B905FC0146A45C
:1020000057A460A871A84091CE055091CF0560916A
:10201000D0057091D105441655066606770621F461
:102020000E94D706892B19F68090B8059090B905C3
:102030004091CA055091CB056091CC057091CD05BA
:10204000C4010E94A604611571058105910509F47A
:10205000BAC02B013C01410E511C611C711CE701EF
:10206000CD2FDD27C695209709F4B4C0F4018281F5
:10207000212F30E0A9014C0F5D1F90E084179507D8
:1020800018F4EC01C21BD30B8E01A3019201B50120
:10209000F40181810E94F705892B09F088CF809196
:1020A000B8059091B905FC0146A557A560A971A98D
:1020B00044195509660977092E01712C612C4415C4
:1020C00055056605770580F4542F4427550FB50153
:1020D000640F751F40E052E0C2960E94CE04E0916A
:1020E000B805F091B9051482DC2FCC27DD0FAC0EBA
:1020F000BD1E8091BE059091BF05A091C005B09115
:10210000C1058C0F9D1FA11DB11D8093BE0590932D
:10211000BF05A093C005B093C105F10180819181F5
:102120008C0F9D1F91838083EC1AFD0A4091BE05A0
:102130005091BF056091C0057091C105E114F10493
:1021400009F40ACFDB01CA019170AA27BB27892BAA
:102150008A2B8B2B09F069C0E091B805F091B90585
:10216000228121502A013B01A9E07694679457947B
:102170004794AA95D1F7122F142109F03BCF452B94
:10218000462B472B09F004CF6091C6057091C70517
:102190008091C8059091C90561157105810591056A
:1021A00061F440E050E0BA01CF010E945D0E61157C
:1021B00071058105910509F4CFCE61307105810566
:1021C000910509F0EECE82E08093BD0552E0C52E68
:1021D000D12C96CE4091BE055091BF056091C005AF
:1021E0007091C1058091C2059091C305A091C4056D
:1021F000B091C505481759076A077B0770F0C401FD
:102200000E94D706892B09F0D2CEE091B805F09153
:10221000B90546A657A660AA71AA4092CE0550926B
:10222000CF056092D0057092D1058091BE05909146
:10223000BF05917020E032E0281B390BE7012E1515
:102240003F0508F4E9014091CE055091CF0560911A
:10225000D0057091D1058091B8059091B9050E9483
:10226000DF06892B09F0A3CE8091BE059091BF05B2
:10227000A091C005B091C1059170AA27BB27C29655
:102280002091B8053091B905AE01B501820F931FB9
:102290000E94CE04E091B805F091B90531E0348395
:1022A00026CF8093C2059093C305A093C405B09335
:1022B000C50568CE87E0C82ED12C22CE8F929F9282
:1022C000AF92BF92CF92DF92EF92FF920F931F9344
:1022D000CF93DF93EC016A017B0122E0C216D104A7
:1022E000E104F10478F482E090E0DF91CF911F9156
:1022F0000F91FF90EF90DF90CF90BF90AF909F90A5
:102300008F9008958E899F89A88DB98DC816D9069A
:10231000EA06FB0640F78E899F89A88DB98DC816FD
:10232000D906EA06FB0660F4B701A601CE010E94B9
:10233000620B4B015C0181149104A104B10419F4F6
:1023400090E080E0D2CF81E088169104A104B1042E
:1023500051F22FEF82169206A206B20699F182E0A0
:10236000C816D104E104F10408F4BDCF8E899F8919
:10237000A88DB98DC816D906EA06FB0608F0B3CFBA
:1023800000E010E09801B701A601CE010E941E07EF
:10239000009709F0AACF8E859F85A889B9898F3FBC
:1023A0002FEF9207A207B20751F00196A11DB11DB0
:1023B0008E879F87A88BB98B8D8181608D837501F6
:1023C0006401A9CF81E090E090CF4F925F926F922D
:1023D0007F92AF92BF92CF92DF92EF92FF920F93D4
:1023E0001F93CF93DF93EC015B01EC80FD808FEFB7
:1023F000E81AF80A89F484E090E0DF91CF911F9108
:102400000F91FF90EF90DF90CF90BF90AF907F90B3
:102410006F905F904F9008954E855F8568897989A8
:10242000411551056105710531F36701EFE0CE22D9
:10243000DD24C114D104C9F4888199814F5F5F4FB5
:102440006F4F7F4F4E875F87688B798B4A855B859F
:102450006C857D85FC014115510561057105B1F45F
:1024600080859185E816F90630F6FD82EC82888138
:102470009981C29625E0CC0CDD1C2A95E1F7C80EA7
:10248000D91EDB8ACA8A90E080E0B7CF0281015072
:10249000110B9701E4E036952795EA95E1F70223C1
:1024A00013230115110509F70E94620B2B013C0152
:1024B000F2E04F1651046104710418F482E090E0D8
:1024C0009CCF8FEF481658066806780619F481E00D
:1024D00090E093CF88819981FC0146895789608D6E
:1024E000718D441655066606770608F44FC0AB2872
:1024F00009F481CF4A855B856C857D850E945D0EE0
:102500002B013C0187E090E0411451046104710407
:1025100009F473CFF1E04F1651046104710471F2B4
:102520008FEF481658066806780689F288819981E7
:102530000E94D706892B59F688819981FC01F29671
:102540008E5C9D4F8E179F0781F5A880B980B301DF
:10255000A201C5010E94A604F50166A777A780AB7A
:1025600091ABBB24B394E881F98182818017110675
:1025700009F0E8F486A597A5A0A9B1A9801B910B45
:10258000A109B10986A797A7A0ABB1AB4A865B8624
:102590006C867D86B301A201888199810E94A60480
:1025A0006E877F87888B998B60CF1192CBCFB48257
:1025B000CF010E947806892B09F089CFE881F98143
:1025C00086A597A5A0A9B1A90196A11DB11D86A7B1
:1025D00097A7A0ABB1AB0F5F1F4FC5CF9F92AF9234
:1025E000BF92CF92DF92EF92FF920F931F93CF9300
:1025F000DF93CDB7DEB72C970FB6F894DEBF0FBED2
:10260000CDBF6C018EE995E00E9453045C01892BDB
:1026100009F054C1C114D10441F470E060E08EE9C6
:1026200095E00E94A90D5C0149C1CE0101969093ED
:10263000B3058093B20588ED95E09093B50580933E
:10264000B405EE24EA94FF24FA9484E090E07DE05F
:10265000972E4091AC055091AD056091AE057091FB
:10266000AF05411551056105710531F4009709F079
:1026700077C0F6013996F8C080919E0590919F052C
:102680000E94DF06009709F06BC00091B005109121
:10269000B105D8018C91882309F423C11B969C9124
:1026A0001B979F73853E09F46BC0983009F468C08E
:1026B0009F3009F06CC086FF60C01D96EC90F82E2C
:1026C000E894F6F88091A2059091A3059093B70540
:1026D0008093B605F80185858E1152C02091B4050E
:1026E0003091B50540814F734150550B949EC00108
:1026F000959E900D1124E4EBF1E061E070E0A19172
:10270000A00FB12FB11D4D915C9161157105D9F1EB
:102710008F3F9105A8F5DC01AA0FBB1FA20FB31FC5
:102720004D935C93BA010196B1E0E13CFB0739F7A8
:10273000F801408146FF0AC08F3F910508F5880FD8
:10274000991F820F931FDC011D921C92FA9470E076
:1027500060E08EE995E00E94E511009709F479CFD9
:102760001092AC051092AD051092AE051092AF0517
:102770008430910509F47DCF56CF8F1509F4AACF87
:10278000FF24FA94E4CF4F3F5F4F71F2F9CFF1107D
:1027900005C0C8010E9498048E1531F08FEF9FEF9D
:1027A0009093B7058093B605F60139968091AC05F4
:1027B0009091AD05A091AE05B091AF05892B8A2B04
:1027C0008B2B09F451C0780130E020E09EE22F5FAE
:1027D0003F4FD7018D917D018032F1F0853009F4B2
:1027E000AAC02930310511F4908331964FEB480F80
:1027F0004A3180F4D8011C964C9150E068E070E0BA
:102800002930310510F060E170E046235723452B55
:1028100009F0805E808331962B303105C1F6D801F6
:102820001B968C91D60118968C93D8015C964D918D
:102830005D916D917C915F97D6014D935D936D9302
:102840007C931397D80158968D919C91D60115963B
:102850009C938E931497D80156968D919C91D60196
:1028600017969C938E9316971082F6018689978906
:10287000009791F04091AC055091AD056091AE0587
:102880007091AF05452B462B472B71F530E020E0CA
:10289000820F931FFC01108270E060E08EE995E0EA
:1028A0000E94E5118430910509F0BDCE1092AC056F
:1028B0001092AD051092AE051092AF05C5012C9691
:1028C0000FB6F894DEBF0FBECDBFDF91CF911F9141
:1028D0000F91FF90EF90DF90CF90BF90AF909F90BF
:1028E000089584E090E03CCF208D318D232B71F250
:1028F0002091B6053091B7050091B4051091B5054A
:10290000FC012F3F3F4F11F29F01281B390BD801CB
:102910006D917D918D016115710509F4B9CFD601D5
:1029200058964D915C91415051092417350708F094
:10293000ADCF6193E9CF85EE2930310509F06ACF3B
:1029400053CFEF92FF920F931F93CF93DF93EC013E
:102950007B0190E080E00E94EE12892BB1F410E040
:1029600000E01986CE010E94EE12892B71F4898550
:10297000882359F0CE010E94CF05892B91F3E016F0
:10298000F10661F00F5F1F4FECCF90E080E0DF9128
:10299000CF911F910F91FF90EF90089581E090E00B
:1029A000F6CF0F931F93CF93DF938C0190E080E0DD
:1029B0000E94EE12D0E0C0E0892B91F4F80111865C
:1029C000C8010E94EE12892B59F4F80181858823F1
:1029D00039F0C8010E94CF05892B81F32196EECFF3
:1029E000CE01DF91CF911F910F9108958F929F9209
:1029F000AF92BF92CF92DF92EF92FF920F931F930D
:102A0000CF93DF938C018FEF9FEFD80159969C9362
:102A10008E935897DFEFCFEFCC24CA94DC2CBDE027
:102A2000AB2EF80146855785608971898081918137
:102A30000E94DF064C01892B09F08AC0D80152960A
:102A4000ED90FC90F7018081882309F4B3C0853EA6
:102A500039F02385922F9F7323FF08C09F3049F0E0
:102A6000D8015996DC92CE92589783C09F3009F0D6
:102A700086C0F801268937892115310509F45FC020
:102A800086FF74C0D7011D96DC91C82FCF7B84814F
:102A90009581918F808FF70185858D136AC0B080F5
:102AA0004B2D4F7B4150550BA49EC001A59E900D10
:102AB0001124F4EB8F2EF1E09F2EE1E0F0E0D40141
:102AC0004D914D014E0D5F2D511DDA014D915C91DF
:102AD000309709F450C0BA01615671096A31710525
:102AE00010F4405251098F3F910508F042C0BC01DB
:102AF0006F5F7F4F880F991FF901E80FF91F019051
:102B0000F081E02DCF01815691094A9708F4B097E2
:102B10004E175F0771F5CB0141EC841641E0940636
:102B200071F6B6FE0BC0EF2B49F0880F991F820F8C
:102B3000931FDC018D919C91892BD9F4C15070E0D9
:102B400060E0C8010E94E5114C01892B09F469CFAE
:102B5000C401DF91CF911F910F91FF90EF90DF9013
:102B6000CF90BF90AF909F908F9008958C1709F4ED
:102B700092CFCFEFE4CF4F3F5F4F71F2FACFC11149
:102B800005C0C7010E9498048D1711F3F801A489AC
:102B9000B5891B968C911B9780FD62CFF7019D0133
:102BA000255F3F4FA217B30799F291918D91981726
:102BB000C9F356CF84E0882E912CCACF6F927F92B2
:102BC0008F929F92AF92BF92CF92DF92EF92FF923D
:102BD0000F931F93CF93DF93EC015B01DB018C918B
:102BE0008F3219F08C3509F051C0BFEFAB1ABB0A18
:102BF0001E821F8218861986F5018081803208F4B2
:102C000050C080E2882E95E0992E65018601F6017C
:102C100081918F3209F45BC08C3509F458C0EE897C
:102C2000FF89AF017F0190E080E05C012FEFA21AE5
:102C3000B20AD6012D916D01022E000C330B203209
:102C4000310508F44CC02F32310509F448C02C3549
:102C5000310509F444C0A114B1E0BB06A1F033274B
:102C60002115310581F02038310598F561EC71E0CE
:102C7000DB018D91BD01882361F1082E000C990BB9
:102C800028173907A9F786E090E012C0E881F9819A
:102C900082899389A489B5898E839F83A887B98700
:102CA000ABCF70E060E0CE010E94A90D1B8A1A8AAA
:102CB000DF91CF911F910F91FF90EF90DF90CF9018
:102CC000BF90AF909F908F907F906F9008956F010D
:102CD0009DCFD7012D933D937D01C501A6CFA00EB9
:102CE000B11E14E02032310508F010E0DC01AA0F1B
:102CF000BB1F8130910509F043C0208131812E3204
:102D0000310509F046C0AE0FBF1F1D921C9230E086
:102D100020E04EE22817390708F040E2EC89FD89EF
:102D2000E20FF31F40832F5F3F4F2B30310589F7B0
:102D3000EC89FD891062138770E060E0CE010E948B
:102D4000A90D009719F4CE010E94F614EC89FD89B3
:102D50002385009709F4DDC08430910509F0A8CFE0
:102D6000322F347025FFD0C01E821F82188619862C
:102D70001B8A1A8A332309F448CF90E080E098CF69
:102D80008230910531F4228133812E32310509F4EC
:102D9000B4CFAE0FBF1F009709F475CF3E912E91AF
:102DA0002032310521F02E32310509F0D8C00197CB
:102DB000F2CFD9018D929D0126173707D1F730E068
:102DC00020E0DA016D917D91AD016032710569F10C
:102DD0006E32710551F12115310509F01360D701EB
:102DE0005E914E914E32510511F00197C9F748E0BE
:102DF00050E0712C612C00E0B9016F5F7F4F220F12
:102E0000331F2E0F3F1FD9012D913C912115310504
:102E1000F9F02032310531F02E32310549F48617B0
:102E2000970761F013609B01E7CF2F5F3F4FC9CF3A
:102E30006416750638F486179707D1F54B3051059F
:102E400071F503C04B30510519F513604BE050E0AC
:102E5000EC89FD898081853E09F4908248305105D6
:102E600011F4000F000F802F8C708C3021F0902F08
:102E70009370933009F4126011FD07C003700130A4
:102E800009F41061843009F41860EC89FD8953CF8E
:102E90008617970721F0136086179707C8F2000F6F
:102EA000000FBC014BE050E0B8E06B2E712CBBCFA3
:102EB0002038310548F020553F4FD9012C9130E0A2
:102EC00012602115310581F0AAECCA2EA1E0DA2E9C
:102ED000D601ED906D01EE2009F450C00E2C000CCF
:102EE000FF082E153F05A1F713602FE530E0EC88B1
:102EF000FD88E60CF71CD7012C9393012F5F3F4F01
:102F0000390191CF0260F3CF3111D2CE85E090E04C
:102F1000CFCE22FD32CF4A895B89DA011B968C9194
:102F20001B9784FFF3CF5A968D919C91B0E0A0E05F
:102F300028813981F9012081233061F4FA01448923
:102F4000558970E060E0BA0155274427842B952B02
:102F5000A62BB72B8E839F83A887B98756CEDC011B
:102F6000AA0FBB1F7D01EE0EFF1ED7011D921C9202
:102F70002C893D89B901655F7F4F1ECF7901B1E48E
:102F8000EB1AF108AAE1EA16F10408F4BBCF7901C3
:102F9000B1E6EB1AF108AAE1EA16F10408F0A7CFAE
:102FA000016020523109A3CFCF93DF93CDB7DEB7B5
:102FB00060970FB6F894DEBF0FBECDBF988B8F879A
:102FC00040E0BE01615F7F4FCE010D960E943E083A
:102FD000009741F58D859E8590939F0580939E0572
:102FE000CE0101969093B3058093B20588ED95E0EC
:102FF0009093B5058093B4056F8578898EE995E047
:103000000E94DE15009709F04CC04091B005509128
:10301000B1054115510549F1FA01838584FD07C0C9
:1030200085E090E010929F0510929E0531C0828D40
:10303000938DB0E0A0E02D853E85F90120812330FD
:1030400061F4FA014489558970E060E0BA015527BE
:103050004427842B952BA62BB72B8093A405909304
:10306000A505A093A605B093A705ED85FE858681ED
:1030700097819093A1058093A00570E060E08EE9B0
:1030800095E00E94A90D8430910551F2009751F608
:1030900060960FB6F894DEBF0FBECDBFDF91CF9123
:1030A00008958430910509F4BBCFBCCF0F931F93D3
:1030B000CF93DF93CDB7DEB7A8970FB6F894DEBFF6
:1030C0000FBECDBF98A78FA340E0BE01695D7F4FC3
:1030D000CE0101960E943E08009761F5CE014B9605
:1030E0009E8B8D8B88ED95E0988F8F8B6FA178A547
:1030F000CE0101960E94DE15009709F03FC02B8992
:103100003C892115310579F4E981FA818F8198850F
:10311000A985BA85828B938BA48BB58B84ED91E0C6
:103120000E94D41707C0D9011B968C9184FD0DC055
:1031300085E090E0A8960FB6F894DEBF0FBECDBF35
:10314000DF91CF911F910F91089509811A81F901A3
:10315000828D938DB0E0A0E0F8014081433061F4AE
:10316000F9014489558970E060E0BA015527442788
:10317000842B952BA62BB72BF801CCCF843091054F
:10318000C9F6D6CF4F925F926F927F928F929F92A5
:10319000AF92BF92CF92DF92EF92FF920F931F9365
:1031A000CF93DF93CDB7DEB764970FB6F894DEBF49
:1031B0000FBECDBF8C01DC015496CD90DC905597AD
:1031C00056966C90569757967C904CE050E0B6011E
:1031D000CE0101960E94CE048C8585FDCAC080FF79
:1031E000D8C0F6011386D80157961C921E925697A6
:1031F000812C912C540183949EE7592E74014BE04D
:1032000050E0BE016F5F7F4FC6010E94CE04F30104
:10321000B501A401B6E08B16910408F08EC0FE0142
:103220003D9627E030E0AF019E2D9F7080E3890F2F
:103230008A3310F087E3890F21503109878384E0B6
:10324000F694E7948A95E1F73197E114F10461F778
:10325000FA01E20FF31F5082F60190E080E0281798
:10326000390739F0A191BC016F5F7F4FA03209F09F
:103270006AC0F601E80FF91F80E22830310530F40A
:10328000DA01A20FB31F8C912F5F3F4F8193CF01C3
:103290008C199D09089780F370E060E0C8010E94D6
:1032A000A90D7C01892B09F068C0C8010E94F614A1
:1032B0007C01892B09F061C0BFEF8B1A9B0AAB0A16
:1032C000BB0AE4E68E169104A104B10409F096CF7E
:1032D00017E0E12EF12CC70164960FB6F894DEBF1B
:1032E0000FBECDBFDF91CF911F910F91FF90EF9057
:1032F000DF90CF90BF90AF909F908F907F906F9016
:103300005F904F90089520E130E0440F551F661FF5
:10331000771FDC01A170BB274A0F5B1F611D711D68
:103320009695879560FF06C0A1E24A27A0E15A273B
:10333000A1E06A272150310941F7819191910097CD
:1033400011F77A016CCFCB018ACF01962BC0B12C3B
:10335000A12C61E070E0C8010E94E5117C01892B7D
:10336000A9F1E4E0EE16F10409F4B2CFB4CF119262
:10337000EBC086E0E82EF12CAECFB4E0EB16F10402
:1033800009F0A9CF8C85D6011B968C93F801668A2B
:10339000778A8C85CC24C394D12C81FF0DC0F30196
:1033A00090E080E021913191232B79F649966DE0F0
:1033B00070E00E9442366B0170E060E0C8010E943C
:1033C000A90D7C01892B69F6B12CA12CD8011E9680
:1033D0004D915D916D917C9151978D919C910E9441
:1033E000DF067C01892B09F0BCCFD8015296ED9104
:1033F000FC918081853E11F08111A9CFBFEFAB1AFE
:10340000BB0ACA14DB0409F0A4CFE1E0CE1AD1084C
:1034100009F487C0D80114966D917C916C197D09CF
:10342000C8010E94A90D7C01892B09F054CFF80135
:10343000848995890E949804982EEFE06E2EFDE015
:103440007F2EA1ECAA2EA1E0BA2E88248394D80165
:103450001E964D915D916D917C9151978D919C91AE
:103460000E94DF067C01892B09F035CFFC2CD801A6
:103470005296ED91FC91539756964D915C9195869D
:1034800063861486138E128E8C2D8150990B9C01AD
:10349000729EC001739E900D112474EB472E71E053
:1034A000572E30E020E02F3F320749F09C01220FD9
:1034B000331F240F351FD9012D913C910196D20164
:1034C0006D912D016E0F7F2F711DDB012D933C93AC
:1034D0002115310511F42FEF3FEFA414B50419F7AE
:1034E0002F3F3F4F49F0880F991F840F951FDC0134
:1034F0008D919C91892B11F46894F6F8F082D80193
:10350000ED91FC91848270E060E0C8010E94E511B9
:103510007C01892B09F0DFCEB1E0CB1AD10809F08C
:1035200096CFF801468557856089718980819181A0
:103530000E94DF067C01892B09F0CDCED80152967E
:10354000ED91FC91CF0180968E179F0709F00FCF68
:10355000F801648975894BE050E0828993890E9463
:10356000CE04D80152962D913C91539754960D90CC
:10357000BC91A02D1B968C918871F9018487D8018C
:10358000ED91FC9181E08483A6CE4F925F926F9281
:103590007F928F929F92AF92BF92FF920F931F9351
:1035A000CF93DF93CDB7DEB7A8970FB6F894DEBF01
:1035B0000FBECDBF98A78FA3F62E1092B90510921B
:1035C000B805462F4E71BE01695D7F4FCE01019651
:1035D0000E943E08009729F5CE014B969E8B8D8B5D
:1035E00088ED95E0988F8F8B6FA178A5CE0101961D
:1035F0000E94DE150B891C89009729F4011511051D
:1036000011F486E090E02F2D2C7139F10097E9F04C
:103610008430910531F4CE0101960E94C2180097C2
:1036200081F1A8960FB6F894DEBF0FBECDBFDF9133
:10363000CF911F910F91FF90BF90AF909F908F906F
:103640007F906F905F904F900895D8011B968C915A
:10365000817189F087E090E0E4CF009711F7D801FD
:103660001B968C9184FD0AC0F1FE02C080FDF2CF52
:10367000F3FE63C060C088E090E0D3CF84E090E0C8
:10368000D0CF0B891C8980E090E0A1ECB4E4F80174
:1036900086879787A08BB18B1386D801148E158EE1
:1036A000168E178EE981FA815A968D909C90B12CD6
:1036B000A12C8081833069F4D80154964D915C919E
:1036C00070E060E0BA0155274427842A952AA62A8B
:1036D000B72A6894F3F8D8015B961C921E925A9709
:1036E00055961C921E92549781E084838114910414
:1036F000A104B10409F4BCCF46A457A460A871A8E2
:10370000B501A401CF010E945E11009709F089CF95
:1037100089819A81B1E08B1A9108A108B108FC0156
:1037200082869386A486B586B301A2010E94DF0635
:10373000009709F076CF6894F5F8A980BA80F50172
:1037400086A597A5A0A9B1A98093D2059093D3058A
:10375000A093D405B093D5051093D7050093D60553
:10376000F092BC051092BD05D8015A968D919C919E
:10377000B0E0A0E02081233061F4F801448955894C
:1037800070E060E0BA0155274427842B952BA62BC7
:10379000B72B8093C6059093C705A093C805B09337
:1037A000C905F801848D958DA68DB78D8093C205CE
:1037B0009093C305A093C405B093C5051092BE05B0
:1037C0001092BF051092C0051092C1051092CE054F
:1037D0001092CF051092D0051092D105B092B90584
:1037E000A092B805D50116968D919C919093BB053A
:1037F0008093BA0590E080E014CF0F931F93CF938E
:10380000DF93EC018881833009F04BC08D818130DA
:1038100009F047C0BE016E5C7F4FFB01CE018E5C9C
:103820009D4FE817F90709F055C085E59AEAFE01B2
:10383000E05DFD4F9183808382E592E5A1E6B1E4EE
:103840008AAB9BABACABBDAB82E792E7A1E4B1E640
:103850007A9780839183A283B3838E859F85A8897D
:10386000B989349680839183A283B3838A859B85AB
:10387000AC85BD85349680839183A283B3832E8DDE
:103880003F8D48A159A12F5F3F4F4F4F5F4F2EA74C
:103890003FA748AB59AB01E010E089810E94F705D2
:1038A0001D828981811118C080910B0180FD14C097
:1038B00081E090E00E944703D1E0C0E0892B09F04D
:1038C000D0E00E9443038D2F9C2FDF91CF911F9159
:1038D0000F9108951192A5CFD1E0C0E0F4CFCF931E
:1038E000DF9388EB95E00E945304009759F4809190
:1038F000BC0585FD0AC088EB95E00E945304009743
:1039000009F454C0DF91CF9108954091D2055091B0
:10391000D3056091D4057091D5058091B80590913B
:10392000B9050E94DF06009769F7E091D605F0918E
:10393000D7058385806283878091C2059091C305F6
:10394000A091C405B091C505848F958FA68FB78FC0
:103950008091C6059091C705A091C805B091C90591
:10396000938F828FB58BA48B80E090E0A1ECB4E4C0
:10397000868B978BA08FB18F138A128A8091BC059A
:103980008F7D8093BC05C091B805D091B90581E0C9
:103990008C83CE010E947806009709F0B3CFCE0148
:1039A0000E94FD1B009709F4A6CFACCF1092B90579
:1039B0001092B805A7CF0F931F93CF93C42F609396
:1039C000130270931402809315029093160260E024
:1039D00089E00E94730547E050E060E270E08FEDFF
:1039E00091E00E94AF36C53690F462E0CA3020F014
:1039F00061E0C43608F060E070E061527E4F4AE05A
:103A00008C2F90E00E94ED3085E28093E20180915E
:103A10003002811122C04C9922C08DE48093E401D0
:103A2000E091DE01C1E0CE0FC093DE01F0E0E05591
:103A3000FE4F80818093E5011092E6010FED11E0C9
:103A4000F80181918F0181110CC0C43010F01092E7
:103A5000DE01CF911F910F91089580E5DFCF8DE6B4
:103A6000DDCF0E943905ECCFCF92DF92EF92FF922B
:103A7000C12CD12C760145E6C701B6010E94DB1CA2
:103A80002FEF89EF90E0215080409040E1F700C097
:103A900000002FEFC21AD20AE20AF20A84E6C81620
:103AA000D104E104F10439F7FF90EF90DF90CF905B
:103AB00008950F931F93CF93DF93EC01062F142FDC
:103AC00040E150E060E270E08FED91E00E94AF369F
:103AD0001092EF01602F80E00E9473051123C1F066
:103AE000CE010E94E4308131910514F080E190E034
:103AF000AC01BE018FED91E00E94D430CFEDD1E05A
:103B00008991811119C0DF91CF911F910F91089573
:103B1000FE0101900020E9F7AF01415051094C1B13
:103B20005D0B4131510514F040E150E0BE018FEDD5
:103B300091E00E94A636E2CF0E943905E1CF41E034
:103B400061E070E00C94591D40E061E070E00C947D
:103B5000591DCF93DF93EC018E899F89FC01208151
:103B6000211102C0CE01099690930D0280930C02A0
:103B70000E94A41D888584FF07C061E08FE00E9439
:103B800073058EE70E943905A0910C02B0910D02D9
:103B9000FD0101900020E9F73197EA1BFB0B81E062
:103BA000709708F480E08093120210920B0210923A
:103BB0001302109214021092150210921602109223
:103BC0000E0210920F021092100210921102DF9159
:103BD000CF91089541E070E060E00C94591D4F9240
:103BE0005F926F927F928F929F92AF92BF92CF928D
:103BF000DF92EF92FF920F931F93CF93DF934B01CE
:103C00005A018901FB01C081D1816E01F12CE12CA7
:103C10000E94EA1DCC0FDD1FC00FD11F8881998142
:103C20000E949F1D2501712C612CF1E0AF1AB10893
:103C30000E941204833009F442C0B8F48130C1F705
:103C4000F401D182C08281E0DF91CF911F910F9169
:103C5000FF90EF90DF90CF90BF90AF909F908F90AC
:103C60007F906F905F904F900895853089F08630F7
:103C7000F9F681E0C81AD108E108F108EFEFCE1695
:103C8000DE06EE06FE0689F46501F12CE12C0DC07E
:103C9000FFEFCF1ADF0AEF0AFF0AC414D504E604C7
:103CA000F7041CF0C12CD12C7601F601EE0FFF1F9A
:103CB000E00FF11F808191810E949F1DB9CF80E0AC
:103CC000C3CF2F923F924F925F926F927F928F92CB
:103CD0009F92AF92BF92CF92DF92EF92FF920F939B
:103CE0001F93CF93DF93CDB7DEB765970FB6F894E8
:103CF000DEBF0FBECDBF1B014901DB01CD90DC90C3
:103D00002A01712C612CC416D50628F0F12CE12C67
:103D10002C153D0510F4730162010E94EA1D4AE072
:103D2000BE016F5F7F4FC6010E94F830CE01019641
:103D30000E94A41D980150E040E02A8B3B8B4C8BE5
:103D40005D8BB12CA12C0E941204833009F453C066
:103D5000F8F48130C1F7D101CD92DC9281E0659613
:103D60000FB6F894DEBF0FBECDBFDF91CF911F918C
:103D70000F91FF90EF90DF90CF90BF90AF909F900A
:103D80008F907F906F905F904F903F902F9008950D
:103D90008530F9F08630B9F6D701C6012A893B890A
:103DA0004C895D89821B930BA40BB50B73016201D7
:103DB000481659066A067B06DCF04AE0BE016F5FD2
:103DC0007F4FC6010E94F830CE0101960E94A41DCB
:103DD000BACF8A899B89AC89BD898C0D9D1DAE1D8A
:103DE000BF1D7501640188159905AA05BB052CF74F
:103DF0006C017D01E2CF80E0B2CF4F925F926F9273
:103E00007F928F929F92AF92BF92CF92DF92EF926A
:103E1000FF920F931F93CF93DF9300D000D000D079
:103E2000CDB7DEB78C0180EB93E00E94EA1D84EAF7
:103E300093E00E949F1D0E9412048130C9F08330DC
:103E4000D1F726960FB6F894DEBF0FBECDBFDF9137
:103E5000CF911F910F91FF90EF90DF90CF90BF9087
:103E6000AF909F908F907F906F905F904F9008954C
:103E700010923802109232021092330210923402E1
:103E8000109235020E94B5020115110549F51A82FA
:103E9000198207E913E055E9E52E54E0F52E8A81F1
:103EA0008F9389818F931F930F93FF92EF920E94BC
:103EB000123161E085E994E00E94C51A0F900F90DD
:103EC0000F900F900F900F90892B41F40E946F1C60
:103ED00089819A8101969A838983E1CF05E914E06B
:103EE00066E0C8010E94C51A892B39F08BE194E085
:103EF0000E949F1D0E94341DA4CF5A988DE893E024
:103F00000E94EA1DC8010E94A41DE5E9F4E080E0DA
:103F100091E0DF019C011D9221503040E1F780913A
:103F20009204823009F081C043E451E366E37DE20C
:103F3000409395045093960460939704709398046B
:103F40008093A20484E591E4A0E5B5E4809399040C
:103F500090939A04A0939B04B0939C048DE292E505
:103F6000A1E4B7E580939D0490939E04A0939F04E1
:103F7000B093A00481E08093A104AE014F5F5F4F36
:103F800064E170E085E994E00E945B0FE5E9F4E00C
:103F900080E091E0DF019C011D9221503040E1F76B
:103FA00010923702109236021092320210923302AF
:103FB0001092340210923502109231025D98809076
:103FC000130290901402A0901502B09016024C9922
:103FD00039C0289A109280001092810010926F00D0
:103FE00010928500109284001092F1011092F2015B
:103FF0001092F3011092F40181E880938100809186
:104000009004811105C080918100806480938100BB
:1040100081E280936F00C12CD12C760111E0809158
:104020003802882309F462C08DC083E496E3A4E3D8
:10403000BDE28093950490939604A0939704B09367
:10404000980480CF80912B02833019F260912C026A
:1040500070912D0280912E0290912F0220910701E4
:10406000309108016B017C01C818D908EA08FB08E7
:10407000890130E020E0C016D106E206F30608F41C
:10408000A6CF4FEF0E94DB1C9ACFC0902C02D0909D
:104090002D02E0902E02F0902F0260912C02709180
:1040A0002D0280912E0290912F02209107013091D4
:1040B00008018090130290901402A0901502B09015
:1040C00016022B013C01481859086A087B0849016F
:1040D000B12CA12C481459046A047B0418F04FEF4A
:1040E0000E94DB1C80912B02833029F180913602E3
:1040F00090913702892787FD20C04C9BC6CF8091C5
:104100000201882311F240912C0250912D026091FE
:104110002E0270912F0280910301909104014C199D
:104120005D096E097F09B0E0A0E084179507A60736
:10413000B70708F0B2CF1093380280913802882375
:1041400009F44DC09091370280913602981771F0B2
:1041500060913602809137026F7770E090E0AE0197
:104160004F5F5F4F8B569B4F0E945B0F10926F000B
:104170005D9A88EB95E00E945304892B09F008C1F1
:104180008091BD05811104C1C090C205D090C305C6
:10419000E090C405F090C50530E1C316D104E104F8
:1041A000F10478F58091BC0581FD2BC04090BE05DF
:1041B0005090BF056090C0057090C1051092BE057B
:1041C0001092BF051092C0051092C105C114D10410
:1041D000E104F104E1F480E090E0DC01A0C0809112
:1041E000370290E0AE014F5F5F4F60E870E08B56A2
:1041F0009B4F0E945B0F809137028058809337025B
:104200000ECF40E1C42ED12CE12CF12CCFCF009168
:10421000B8051091B905D80112968C90912CB12C4B
:10422000A12C39E0880C991CAA1CBB1C3A95D1F72B
:10423000411451046104710409F48CC0B1E04B1ABB
:10424000510861087108C701B601615071098109FF
:104250009109A50194010E946A362B833C834D830A
:104260005E83C301B201A50194010E946A368B816D
:104270009C81AD81BE8182179307A407B50708F41E
:1042800069C088279927DC0188199909AA09BB09FF
:1042900084219521A621B7218093BE059093BF0567
:1042A000A093C005B093C105C81AD90AEA0AFB0A4F
:1042B0004091CA055091CB056091CC057091CD0518
:1042C000411551056105710509F0ECC0C12CD12CD7
:1042D00076018091BE059091BF05A091C005B09177
:1042E000C105AC01BD01517066277727452B462BD0
:1042F000472BA9F04091CE055091CF056091D00594
:104300007091D1054C155D056E057F0541F0C09299
:10431000CE05D092CF05E092D005F092D105409124
:10432000C2055091C3056091C4057091C505481739
:1043300059076A077B0760F58093C2059093C30510
:10434000A093C405B093C5058091BC05806280939D
:10435000BC051EC04091C6055091C7056091C805B7
:104360007091C905411551056105710509F03FC0FE
:1043700040E050E0BA01C8010E945D0EAB01BC01F3
:10438000413051056105710511F582E08093BD054D
:10439000AE014F5F5F4F64E070E082E392E00E9405
:1043A0005B0F0E946F1C80912B02833009F0B6C016
:1043B000809102018111B2C086E494E00E94EA1D5E
:1043C00010922B020E94341D28985A9A3ACD4F3FE2
:1043D0009FEF59076907790711F481E0D7CF409320
:1043E000C6055093C7056093C8057093C9054093EF
:1043F000CA055093CB056093CC057093CD0560CF73
:104400008091B8059091B9052091BC0521FF0CC0A1
:104410000E945D0EAB01BC0141155105610571059E
:1044200039F47501640144C00E94620BAB01BC0108
:104430004F3FAFEF5A076A077A0779F242305105CA
:104440006105710508F4A1CFE091B805F091B905B7
:1044500086899789A08DB18D481759076A077B0710
:1044600008F093CF4093CA055093CB056093CC05D9
:104470007093CD058091BE059091BF05A091C005B8
:10448000B091C105880D991DAA1DBB1D8093BE0565
:104490009093BF05A093C005B093C105C818D90873
:1044A000EA08FB088C149D04AE04BF0408F4A8CFEE
:1044B0008091BE059091BF05A091C005B091C10546
:1044C0008C0D9D1DAE1DBF1D8093BE059093BF0535
:1044D000A093C005B093C105D701C6019170AA276A
:1044E000BB27892B8A2B8B2B09F4F0CE8091B80542
:1044F0009091B9050E94A604611571058105910589
:1045000009F443CF29E0F694E794D794C7942A9509
:10451000D1F7C60ED71EE81EF91EDBCE86E294E068
:104520004DCFDF92EF92FF920F931F93CF93DF93C4
:10453000FC017B01D42FC22F042F10E0822F90E0CA
:104540000196B8010E945636D82ECF010E94EA1D6E
:1045500001501109D150CD1551F0EC2FF0E0EE0FC4
:10456000FF1FEE0DFF1D808191810E949F1D0E9403
:104570001204833089F030F4813079F09C2FDC2EE6
:10458000C92FE9CF853091F08630C1F79D2FCC231C
:10459000B1F39FEF9C0FF3CFCFEF8C2FDF91CF9133
:1045A0001F910F91FF90EF90DF90089591E0C01759
:1045B000110681F790E0E3CF1F920F920FB60F9292
:1045C00011242F933F938F939F93AF93BF93809129
:1045D0009A0590919B05A0919C05B0919D05309105
:1045E000990523E0230F2D3758F50196A11DB11D24
:1045F0002093990580939A0590939B05A0939C0521
:10460000B0939D058091950590919605A091970591
:10461000B09198050196A11DB11D809395059093C9
:104620009605A0939705B0939805BF91AF919F9180
:104630008F913F912F910F900FBE0F901F90189563
:1046400026E8230F0296A11DB11DD2CF1F920F9213
:104650000FB60F9211242F933F934F935F936F9355
:104660007F938F939F93AF93BF93EF93FF9380912B
:104670000102882319F08150809301028091D807AC
:10468000882319F081508093D80786B120910702C2
:104690008095282790910602322F39233095309348
:1046A000060280910502422F4823342730930502E9
:1046B000892B809582239091070298279093070277
:1046C00020910702909104028223892B8093040297
:1046D000809107028F7019F482E380930302809126
:1046E000030281508093030281110EC08091090161
:1046F00090910A0180930302809107029091020237
:104700008F70892B8093020280910702909104029E
:1047100080958870892390910402982790930402D1
:10472000882319F081E080932B02809107029091F9
:1047300004028095847089239091040298279093B5
:104740000402882319F083E080932B0288E00E9402
:10475000BE05882319F082E080932B0284E00E943A
:10476000BE05882319F084E080932B028091040217
:104770008270909104029827909304028823A1F1FB
:1047800086E080932B028091040281709091040254
:10479000982790930402882391F185E080932B025F
:1047A00080912C0290912D02A0912E02B0912F02A7
:1047B0000196A11DB11D80932C0290932D02A09310
:1047C0002E02B0932F02FF91EF91BF91AF919F9175
:1047D0008F917F916F915F914F913F912F910F90AA
:1047E0000FBE0F901F9018958091020282709091D9
:1047F00002029827909302028111C2CFC4CF809108
:104800000202817090910202982790930202811116
:10481000C4CFC6CF1F920F920FB60F9211240F93E1
:104820001F932F933F934F935F936F937F938F9338
:104830009F93AF93BF93CF93EF93FF932091880003
:104840003091890080911B0290911C02A0911D0261
:10485000B0911E02820F931FA11DB11D80931B02F8
:1048600090931C02A0931D02B0931E024C9959C054
:1048700080913002811155C0209131028091FD015B
:104880009091FE01A091FF01B0910002222369F1F5
:10489000009721E0A207B105C8F08F5F9F4FA109E3
:1048A000B1098093FD019093FE01A093FF01B093A5
:1048B00000028FEF9FEF9093890080938800809192
:1048C0009004882309F4F3C05B982BC0909389006F
:1048D000809388001092FD011092FE011092FF015A
:1048E0001092000210923102EACF0097A105B105A3
:1048F00009F443C0009721E0A207B10530F18F5FB2
:104900009F4FA109B1098093FD019093FE01A093EF
:10491000FF01B09300028FEF9FEF90938900809387
:104920008800FF91EF91CF91BF91AF919F918F91AF
:104930007F916F915F914F913F912F911F910F91B7
:104940000F900FBE0F901F90189590938900809341
:1049500088008091F9019091FA01A091FB01B0913A
:10496000FC018093FD019093FE01A093FF01B093A1
:10497000000281E080933102D4CF10921B0210928A
:104980001C0210921D0210921E02409123025091AF
:10499000240260912502709126028091320290914A
:1049A0003302A0913402B091350284179507A6070F
:1049B000B70720F081E080933802B3CFE091360250
:1049C00081E08E0F80933602F0E0EB56FB4F608162
:1049D00070E090E080E0009132021091330220916B
:1049E0003402309135020F5F1F4F2F4F3F4F00931E
:1049F0003202109333022093340230933502C09177
:104A00001F02C11156C0611571058105910509F498
:104A1000A6C00E941E352091F5013091F60140910B
:104A2000F7015091F8010E94B1350E94EF34609374
:104A3000FD017093FE018093FF019093000280912D
:104A4000FD019091FE01A091FF01B0910002C230E2
:104A500009F48AC08093F9019093FA01A093FB01B5
:104A6000B093FC018091FD019091FE01A091FF01A6
:104A7000B0910002009721E0A207B10508F415C12A
:104A80008F5F9F4FA109B1098093FD019093FE01B3
:104A9000A093FF01B09300028FEF9FEF90938900E6
:104AA0008093880080919004882309F40DCF5B9A4D
:104AB00038CF611571058105910509F0AACFE09104
:104AC000360281E08E0F80933602F0E0EB56FB4F0A
:104AD0002081E091360281E08E0F80933602F0E073
:104AE000EB56FB4F3081E091360281E08E0F8093D0
:104AF0003602F0E0EB56FB4F608170E090E080E022
:104B0000CB0177276627732B622B0E941E352091DD
:104B10001702309118024091190250911A020E9416
:104B2000B1350E94EF346093FD017093FE018093D4
:104B3000FF01909300028091320290913302A09184
:104B40003402B09135020396A11DB11D809332024B
:104B500090933302A0933402B093350270CF60E09B
:104B600071E080E090E055CF880F991FAA1FBB1F0E
:104B70008093FD019093FE01A093FF01B09300028A
:104B8000E091360281E08E0F80933602F0E0EB5622
:104B9000FB4F60818091320290913302A0913402E8
:104BA000B09135020196A11DB11D80933202909300
:104BB0003302A0933402B0933502662331F170E0E2
:104BC00090E080E00E941E352091F5013091F601C1
:104BD0004091F7015091F8010E94B1350E94EF34E5
:104BE0006093F9017093FA018093FB019093FC01AB
:104BF0008091F9019091FA01A091FB01B091FC0123
:104C0000880F991FAA1FBB1F25CFE091360281E0B4
:104C10008E0F80933602F0E0EB56FB4F2081E0913F
:104C2000360281E08E0F80933602F0E0EB56FB4FA8
:104C30003081E091360281E08E0F80933602F0E001
:104C4000EB56FB4F608170E090E080E0CB0177276E
:104C50006627732B622B0E941E352091170230911C
:104C600018024091190250911A020E94B1350E9417
:104C7000EF346093F9017093FA018093FB019093F4
:104C8000FC018091320290913302A0913402B091E4
:104C900035020396A11DB11D809332029093330219
:104CA000A0933402B0933502A3CF909389008093F0
:104CB00088008091F9019091FA01A091FB01B091D7
:104CC000FC018093FD019093FE01A093FF01B0933E
:104CD000000281E080933102E5CE1F920F920FB661
:104CE0000F9211248F939F93AF93BF934C9913C04E
:104CF0008091F1019091F201A091F301B091F40142
:104D00000196A11DB11D8093F1019093F201A09332
:104D1000F301B093F401BF91AF919F918F910F90E8
:104D20000FBE0F901F9018951F920F920FB60F9203
:104D30001124CF92DF92EF92FF922F933F934F93E4
:104D40005F936F937F938F939F93AF93BF93EF93F3
:104D5000FF9380913102882309F4C2C0209186001C
:104D6000309187006091F1017091F2018091F3011F
:104D70009091F401CB0177276627620F731F811D85
:104D8000911D54E096958795779567955A95D1F73B
:104D90006093FD017093FE018093FF0190930002E8
:104DA0001092F1011092F2011092F3011092F401AD
:104DB00010928500109284000E941E356B017C01C8
:104DC0002091F5013091F6014091F7015091F801E1
:104DD0000E947D340E94EF346115710581059105B3
:104DE000C1F16F3F71058105910509F0B8F5E091BA
:104DF000360221E02E0F20933602F0E0EB56FB4FF7
:104E000060838091320290913302A0913402B0917C
:104E100035020196A11DB11D809332029093330299
:104E2000A0933402B0933502FF91EF91BF91AF91FF
:104E30009F918F917F916F915F914F913F912F91B2
:104E4000FF90EF90DF90CF900F900FBE0F901F90CC
:104E5000189561E070E080E090E0C9CF20911702E2
:104E6000309118024091190250911A02C701B601FF
:104E70000E947D340E94EF34E091360291E09E0F53
:104E800090933602F0E0EB56FB4F1082E091360231
:104E900091E09E0F90933602F0E0EB56FB4F60835B
:104EA000E091360291E09E0F90933602F0E0EB56CF
:104EB000FB4F7083E091360291E09E0F9093360293
:104EC000F0E0EB56FB4F80838091320290913302E9
:104ED000A0913402B09135020496A11DB11D9CCF62
:104EE00081E0809331021092F1011092F201109250
:104EF000F3011092F401109285001092840094CF77
:104F0000CF93DF93CDB7DEB7C655D1090FB6F8946E
:104F1000DEBF0FBECDBF789484B5826084BD84B5FA
:104F2000816084BD85B5826085BD85B5816085BDA4
:104F300080916E00816080936E001092810080915C
:104F400081008260809381008091810081608093E4
:104F50008100809180008160809380008091B10009
:104F600084608093B1008091B00081608093B00034
:104F700080917A00846080937A0080917A008260C8
:104F800080937A0080917A00816080937A0080918A
:104F90007A00806880937A001092C10085E994E0DD
:104FA0009AAB89AB80E091E09CAB8BAB90E080E06A
:104FB0000E94C333863B09F03FC081E090E00E942D
:104FC000C3338093920482E090E00E94C3338093C5
:104FD000910483E090E00E94C33390E09093080135
:104FE0008093070184E090E00E94C33390E09093A7
:104FF00006018093050185E090E00E94C33390E0B4
:10500000909301018093000186E090E00E94C333F9
:1050100090E090930A018093090187E090E00E945C
:10502000C33390E0909304018093030188E090E003
:105030000E94C33380930201449A459A559A5D9A1F
:10504000539A5B982098289854985C9A8AB1806CFF
:105050008AB98BB18F738BB9529A5A9A3B98439AFB
:105060003A98429A3998419A3898409A1092B000EA
:105070001092B1008BE98093B30082E08093B0007E
:105080008091B10087608093B10080917000826050
:10509000809370008CE38093080210928F0410922A
:1050A0008E0410926D041092B90088E18093B800CC
:1050B0002FEF31EE44E0215030404040E1F700C096
:1050C000000009EB13E095EDE92E93E0F92EF801CD
:1050D000D4900E94F5048D2D0E9418040E9429048A
:1050E0000F5F1F4FE016F10691F710EB0E94F504D9
:1050F000812F0E94180480E00E94180480E10E9421
:1051000018040E94ED0400E080E00E9418040F5F84
:105110000038D1F70E9429041F5F183B39F740E29D
:1051200050E060E270E08EE694E00E94AF368DEED3
:1051300093E00E94EA1D1F921F921F9288E08F93B6
:105140001F9282E08F9381EE93E09F938F9385E986
:1051500094E09F938F930E94123185E994E00E941E
:10516000A41DFFEF27EA31E6F15020403040E1F77F
:1051700000C000000FB6F894DEBF0FBECDBF1AE02E
:10518000D12E05ED11E089E3E82E82E0F82E2F966E
:105190001FAF0EAF2F972D96FFAEEEAE2D971A8351
:1051A0000983CE0101960E94780497FF11C05FEF3A
:1051B00083EC99E0515080409040E1F700C000003E
:1051C000DA94D110E4CF8EE195E00E94EA1DFDC093
:1051D000880F991FFC01E75FFD4F0190F081E02DE2
:1051E000309709F010822D96EEADFFAD2D973097D8
:1051F00009F01082875F9D4FDC01ED93FC93EF2B4C
:1052000009F0EFC0BFEFE3ECF9E0B150E040F0404F
:10521000E1F700C0000080E58CBD8DB581608DBDDB
:105220006EE874E085E994E00E94DD3085E994E061
:105230000E94D417892B09F446C185E994E02B9686
:105240009FAF8EAF2B9741E0BE01675B7F4FCE01D2
:1052500001960E943E08892B09F0ADC0CE01C5968B
:105260009E8B8D8B88ED95E0988F8F8B2B966EADF6
:105270007FAD2B97CE0101960E94DE15009709F4B1
:105280009AC0049709F097C0ED89FE89838585FD52
:1052900092C040E050E0BA0189819A810E945D0E7F
:1052A0006B017C01DC01CB010297A109B1098D3FA3
:1052B0009F4FAF4FBF4F08F078C089819A810E94FD
:1052C000D706892B09F071C009811A81B701A6019F
:1052D000C8010E94A6042B013C01580182E3A80EDC
:1052E000B11CC8018E5C9D4F45018815990509F0D8
:1052F0008EC0C5010B96F50120E2E817F90709F009
:105300008AC07EE2372EF80132AA80E185AF80E0C4
:1053100090E0A1ECB4E4E85BFF4F80839183A2832B
:10532000B3833496D182C082970144275527639670
:105330002CAF3DAF4EAF5FAF63973697318320837D
:1053400040E250E0B501C8018E5A9F4F0E94CE0442
:10535000F801ED5AFF4F30824F81588569857A8573
:10536000E981FA818081833061F486A197A1A0A5AB
:10537000B1A5481759076A077B0719F440E050E0C8
:10538000BA01D801A459BF4F11965C934E9316975A
:105390006D937C93128101E011113FC0CE01019603
:1053A0000E94C218892B09F461C0B701A601898146
:1053B0009A810E945E118EE195E00E94EA1D85EDC2
:1053C00093E00E949F1D0E94341D8EE195E00E9493
:1053D000EA1D00E010E001151105E9F30E9400004C
:1053E000FACF40E0BE01635B7F4FCE01855B9F4FEC
:1053F0000E943E082FEF33EC49E0215030404040FE
:10540000E1F700C00000892B09F0DACE04CFD40107
:105410001D924D016ACF219370CFD301C201019635
:10542000A11DB11D67968CAF9DAFAEAFBFAF6797A3
:1054300089819A81DC019E964D925D926D927C925B
:10544000D19714960C930E947806892B09F0ADCF62
:10545000F501E815F90541F4115067964CAC5DACC7
:105460006EAC7FAC679798CF1192F3CFEB89FC8934
:1054700080E1838780E090E0A1ECB4E4868B978B99
:10548000A08FB18FD38EC28E6196CEACDFAC619708
:10549000D58AC48A09811A8181E0D80114968C9337
:1054A000C8010E947806892B09F085CFC8010E94A7
:1054B000FD1B892B09F07FCF85E994E00E94D4176A
:1054C000892B09F078CF81ED91E00E94D417892BC8
:1054D00009F07BCF86E0ECE0F1E0DE01AF5BBF4F8F
:1054E00001900D928A95E1F7CE014B960E94D1145E
:1054F0009093940480939304892BF1F48EE095E0CB
:1055000066CF60961FAE609760962FAD609743E0C0
:10551000BE016F5B7F4F81E095E00E949122609613
:105520008FAF6097813009F461C3D0F0823009F405
:105530003DC48F3F31F3E8CF60961FAE6097409037
:105540001201509013016090140170901501809029
:10555000160190901701A0901801B0901901D4CFB6
:1055600081ED91E00E945618CE014B960E94D11415
:105570009093940480939304892B39F48EE095E002
:105580000E94EA1D0E94341DBFCF10926C0410923D
:105590006B0470E060E0CE014B960E94A114892B51
:1055A00069F389E394E00E94EA1DCE014B960E94C4
:1055B000A91D6FE1262E62E0362E0E941204833070
:1055C00009F4D4C208F0BAC0813009F4D2C04091C5
:1055D0002C0250912D0260912E0270912F02809129
:1055E0001202882351F38091130290911402A0912A
:1055F0001502B0911602892B8A2B8B2B41F4409314
:105600001302509314026093150270931602809156
:10561000070190910801009113021091140220914A
:105620001502309116026A017B01C01AD10AE20A02
:10563000F30A97018601B0E0A0E0081719072A07CE
:105640003B0708F4BACF40931302509314026093BF
:1056500015027093160280910E0290910F02A09194
:105660001002B0911102892B8A2B8B2B41F44093AD
:105670000E0250930F0260931002709311028091FA
:105680000E0290910F02A0911002B09111028A01B6
:105690009B01081B190B2A0B3B0B80910501909174
:1056A0000601B0E0A0E0081719072A073B0708F435
:1056B00084CFA0910C02B0910D02FD010190002059
:1056C000E9F73197EA1BFB0B80910B02E81BF1090C
:1056D000709708F071C28091050190910601880FC2
:1056E000991FAC0170E060E0041715072607370723
:1056F00008F463CF10920B0210920E0210920F0268
:1057000010921002109211021092130210921402C1
:10571000109215021092160280910B028A0F9B2F95
:10572000911D0E94A41D8BA184FF47CF61E08FE0F3
:105730000E9473058EE70E9439053FCF853009F43A
:1057400025C2863009F043CF80916B0490916C04A0
:10575000019790936C0480936B0497FF4EC08091E7
:10576000930490919404019790936C0480936B043C
:1057700044C08BA184FF22C0CE0184960E9456189B
:10578000892BB9F4CE014B960E94D11490939404C6
:105790008093930410926C0410926B0470E060E0AC
:1057A000CE014B960E94A114CE014B960E94A91DDA
:1057B0000ECF82E894E00E949F1D09CFCE014B9648
:1057C0000E94A91D109238020E94B502F1015CE00E
:1057D000C52E1192CA94E9F761E0CE0184960E9429
:1057E000C51A892B79F08BE194E00E94EA1D0E9492
:1057F000341D89E394E00E94EA1D60916B0470916E
:105800006C04CECFAE014F5F5F4F6CE070E085E976
:1058100094E00E94260C892B19F080E194E0E5CFFA
:10582000AE014F5F5F4F68E070E08FE192E00E9451
:10583000260C892B91F7409123025091240260910C
:105840002502709126028B8D9C8DAD8DBE8D449767
:10585000A109B109481759076A077B07A9F082E037
:1058600094E00E94EA1D8B8D9C8DAD8DBE8D44977A
:10587000A109B1098093230290932402A0932502E9
:10588000B09326020E94341D8091990490919A044D
:10589000A0919B04B0919C0484359144A045B544EB
:1058A00069F480919D0490919E04A0919F04B09111
:1058B000A0048D329245A144B74519F085EF93E0DD
:1058C00094CF8091950490919604A0919704B09103
:1058D0009804833446E3940744E3A4074DE2B407F5
:1058E00029F083349143A643BD4241F7AE014F5F97
:1058F0005F4F60E071E085E994E00E94260C892BFF
:1059000009F08BCF109237021092360210923202B9
:10591000109233021092340210923502109231022A
:105920001092300280E394E00E94EA1D809190047E
:10593000811102C05B9A01C05B985D981092800053
:105940001092810010926F001092850010928400D6
:1059500010921B0210921C0210921D0210921E0245
:10596000809181008A60809381008FEF9FEF9093F8
:1059700089008093880080916F00826080936F001F
:1059800010E089819A81892B09F044C08091380206
:1059900081112AC060912C0270912D0280912E02FB
:1059A00090912F02E0910701F0910801C09013023D
:1059B000D0901402E0901502F09016029B01AC0109
:1059C0002C193D094E095F096F01F12CE12C2C15B2
:1059D0003D054E055F0518F0412F0E94DB1C8091AC
:1059E0002B02833009F07FC010926F000E946F1C61
:1059F000809190048111A7C05B9AA6C080912B0270
:105A0000813041F410922B0290913002911180E08C
:105A1000809330028091360290913702892787FD6A
:105A200033C060912C0270912D0280912E029091D2
:105A30002F02E0910701F0910801C0901302D0906D
:105A40001402E0901502F09016029B01AC012C1993
:105A50003D094E095F0969017A019F0150E040E06C
:105A6000C216D306E406F50618F0412F0E94DB1C8F
:105A700080913802811105C080912B02833009F09A
:105A8000BDCF31E0309338028091380281117ECF52
:105A90008091370290E0AE014F5F5F4F60E870E0A9
:105AA0008B569B4F0E94260C809137028058809322
:105AB00037022091320230913302409134025091EA
:105AC0003502E0902302F09024020091250210910B
:105AD0002602A4E6B0E00E948C36A80197010E943D
