:1000000024C119C118C117C116C115C114C113C12A
:1000100012C111C110C10FC10EC10DC10CC10BC164
:100020000AC109C108C1A9C122C229C270C16FC1D8
:1000300031C230C23DC23CC254C24CC257C2B1C12F
:10004000B5C1B9C1BAC18BC185C18FC176C175C1F6
:1000500074C173C175C174C1B3C16FC16EC16DC1CB
:100060006CC16BC16AC1B0C1C2C1CDC1D8C165C1CB
:1000700064C163C162C161C160C15FC15EC15DC174
:100080005CC15BC15AC159C158C157C156C155C1A4
:1000900054C153C152C151C150C14FC14EC14DC1D4
:1000A0004CC14BC14AC149C148C147C146C145C104
:1000B00044C143C142C141C140C13FC13EC13DC134
:1000C0003CC13BC13AC139C138C137C136C135C164
:1000D00034C133C132C131C130C12FC12EC12DC194
:1000E0002CC12BC12AC129C128C127C126C125C1C4
:1000F00024C123C122C121C120C11FC11EC11DC1F4
:100100001CC11BC11AC119C118C117C116C115C123
:1001100014C113C112C111C110C10FC10EC10DC153
:100120000CC10BC10AC109C108C107C106C105C183
:1001300004C103C102C101C100C1FFC0FEC0FDC0B6
:10014000FCC0FBC0FAC0F9C0F8C0F7C0F6C0F5C0EB
:10015000F4C0F3C0F2C0F1C0F0C0EFC0EEC0EDC01B
:10016000ECC0EBC0EAC0E9C0E8C0E7C0E6C0E5C04B
:10017000E4C0E3C0E2C0E1C0E0C0DFC0DEC0DDC07B
:10018000DCC0DBC0DAC0D9C0D8C0D7C0D6C0D5C0AB
:10019000D4C0D3C0D2C0D1C0D0C0CFC0CEC0CDC0DB
:1001A000CCC0CBC0CAC0C9C0C8C0C7C0C6C0C5C00B
:1001B000C4C0C3C0C2C0C1C0C0C0BFC0BEC0BDC03B
:1001C000BCC0BBC0BAC0B9C0B8C0B7C0B6C0B5C06B
:1001D000B4C0B3C0B2C0B1C0B0C0AFC0AEC0ADC09B
:1001E000ACC0ABC0AAC0A9C0A8C0A7C0A6C0A5C0CB
:1001F000A4C0A3C0A2C0A1C0A0C09FC09EC09DC0FB
:100200009CC09BC09AC099C098C097C096C095C02A
:1002100094C093C092C091C090C08FC08EC08DC05A
:1002200014C109C117C10008040C1018141C20289F
:10023000242C3038343CE4CEFB01DC0102C00190B8
:100240000D9241505040D8F708954AD4919A08959C
:10025000919820916000223081F0233038F02330D3
:10026000A9F0243081F080E090E012C0222341F018
:100270002130C9F7FAD499270BC078D5992708C03F
:1002800052D4992705C023D6992702C0D3D59927E0
:10029000919A0895919820916000223081F0233046
:1002A00038F02330A9F0243081F080E090E012C0D3
:1002B000222341F02130C9F797D499270BC015D5D7
:1002C000992708C05AD4992705C0DBD5992702C0C1
:1002D0008AD59927919A0895EF92FF920F931F93D1
:1002E000CF93DF93DC018B0182E0E82EF12CEA0E44
:1002F000FB1EFD019281ED0121968181E82FFF27F0
:10030000EF3FF10509F0C8F4ED5EFF4F09948881D5
:1003100020E0833009F4FAC0F7019081222309F02C
:10032000F1C080E2892BF7018083FD018381806623
:10033000838341E062E0C701DDD380E090E0ECC060
:1003400085E080936000F70180818823B1F38FEF0F
:1003500090E0E2C0FD016381F7018081BDD174D1DD
:10036000F801808381E090E0D7C0FD016381F7014F
:1003700080817CD180E090E0CFC081E0FB01808370
:1003800088E1818387EF90E09383828380EF9FE110
:10039000FC0125913491FB013583248386E090E0B4
:1003A000BBC0892F3BD180E090E0B6C0CB0144D1E7
:1003B00082E090E0B1C067D1D3CF892F77D1BDCF94
:1003C00018DE80E090E0A8C0F7018081813039F02C
:1003D000813008F490C0823009F0AFCF81E0809383
:1003E0006000FD018481882309F0B1CFA6CFF70119
:1003F0008081813009F488C0813008F47CC082306B
:1004000009F09BCFECCFF7018081813031F0813052
:1004100008F471C0823009F090CF83E0E0CFF7019B
:100420008081813031F0813008F465C0823009F07C
:1004300084CF84E0D4CF80E4FB018083892F78D5FA
:10044000F801818382E090E067C0892FE1D080E0ED
:1004500090E062C0F70180819181A281B381FB01AC
:1004600080839183A283B38384E090E055C010928F
:100470006000F7018081882309F069CF5ECF109278
:100480006000F7018081D0D0F7018081882309F0D6
:100490005ECF53CF88818530D9F18FE3F701808318
:1004A00020E041E061E0C70125D380E090E034C066
:1004B000F7018081806280839D012D5F3F4FFD01A8
:1004C00093818881873031F180EE892BF901808317
:1004D00020E02FCF80916100882309F441CF81E093
:1004E0003FCF919ACAD280E090E016C0109261008E
:1004F00080E090E011C081E0F8018083118282E009
:1005000090E00AC080E40ECF82E069CF21E004CF02
:100510008FE5C4CF80EFD9CFDF91CF911F910F919D
:10052000FF90EF900895A89582BF88B7816088BF3B
:1005300008B600FEFDCF089592E093BFF4DF089562
:1005400095E093BFF0DF0895E82FFF27E7FDF095D2
:10055000EA5DFD4FE4918E2F9927089582E08A95F8
:10056000F1F783B39927089592E09A95F1F795B33F
:10057000282F2095922395BB94B3982B94BB089574
:1005800092E09A95F1F794B3282F2095922394BB8B
:1005900095B3982B95BB089592E09A95F1F795B392
:1005A000282F2095922395BB94B3982B862F809566
:1005B000892384BB85B3862B85BB089592E09A95E9
:1005C000F1F793B320E030E0982311F421E030E01C
:1005D000C90108950F931F93182F062F86E085BD3C
:1005E00083EA84BD88B7806488BF08B606FC04C06F
:1005F000B5DF81230817C9F3B1DF20E030E018230D
:10060000101711F021E030E0C9011F910F910895FA
:1006100095E09093A3008093A40008958093260111
:1006200081E08093A300089593E09093A30010923B
:100630002501809326010895FC018091A300808309
:1006400080912401818308951F9388DF182F1695C8
:10065000169516951095117081DF82FF12607EDF6E
:1006600084FF1460812F99271F9108950F931F9382
:10067000182F862F69DF082F812F66DF602F8CDF10
:100680001F910F91089581B3877081BB87B3887FD5
:1006900087BB82B3877082BB88B3887F88BB90B3E7
:1006A00086B38770987F892B9927089591B3986FA7
:1006B00091BB97B3976097BB92B3977092BB98B377
:1006C000987F98BB92B3282F287F922B92BB98B328
:1006D0008770982B98BB0895EF92FF920F931F930A
:1006E000CF93DF93162F30DFE82E112301F1F82E80
:1006F00000E010E0C0E0D0E031DF8E21F81679F4A0
:1007000083E0083E180770F087E0C13DD80788F401
:10071000219600E010E022DF8E21F81689F380E0B8
:1007200090E00BC00F5F1F4F81EF06DFE5CFFF2486
:10073000DFCF8DE0EDD38FEF90E0DF91CF911F9170
:100740000F91FF90EF900895AF92BF92CF92DF92FA
:10075000EF92FF920F931F93CF93DF936C01F62ECE
:10076000B42EA22E1092610088E00ADFBB2009F0AF
:1007700088C084E0F9DE68E088E02CDF882309F493
:1007800085C0FF2009F490C0EF2C85EBD5DE88E012
:1007900015DF882309F443C084E0F2DE00E010E0B6
:1007A00088E00CDF8823C1F0E7E0003D1E07A1F0E0
:1007B000C0E0D0E007C083E0C83ED80739F081EF41
:1007C000BBDE219688E0FADE8823A9F70F5F1F4F72
:1007D00088E0F4DE882341F788E0F0DE882309F022
:1007E0005CC0F1E0FF16E9F181EFA6DE84E0BCDE3B
:1007F000F60111916F0100E00BC084E0C1DE82EED2
:100800009BDE68E084E0C8DE0F5F0830F9F01695E3
:1008100087E992DE10FDF1CF88E0A6DEEECF8AE018
:1008200077D3EE24FF2019F0EE2009F0AECFAA20F6
:1008300051F188E099DE84E1A3DE84E0BFDE882305
:10084000E1F38AE679DE8E2D992730C068E088E0F2
:10085000C1DE882379F0882381F489E059D3EE241E
:10086000E1CFBB2009F668E088E0B4DE60E088E014
:10087000B1DEBACF86E04CD3F0CFFA948AE65CDEE4
:10088000D1CF84E177CF80E17BDEDBCF84E178DEFE
:1008900088E03ED380E090E009C087E039D384E16E
:1008A0006FDE80E090E002C0EE24C1CFDF91CF91F7
:1008B0001F910F91FF90EF90DF90CF90BF90AF907E
:1008C0000895EF92FF920F931F93CF93DF93809140
:1008D000A300853009F487C0873009F49CC08430B8
:1008E00009F4AFC0813009F0C1C010922501919880
:1008F000EE24C0E0D0E008C083ECC035D80709F48E
:1009000081C0219682EE18DE84E058DE8823A1F7AC
:1009100080916100882309F04AC088E031DE83E0DD
:1009200085BD14BC88B7806488BF84B5863938F427
:1009300008B606FC04C084E041DE8823B1F384E0FD
:100940003DDE8823D9F1F89464E084E043DE182F7B
:10095000882309F481C000E0FF2405C00F5F083040
:10096000B1F01123A1F060E084E034DE182F882379
:10097000A9F3F69488E022DE882311F480E8F82AAF
:1009800064E084E027DE182F0F5F083051F7789479
:100990001123F1F480912601E81608F05FC01123BD
:1009A00009F45FC080916100882309F4A2CF82E03E
:1009B0008093A300E0922601919A58C081E0809331
:1009C000610088E0D1DD87E9B7DD88E0D9DDBBCF04
:1009D00088E0CADDEE2DFF27EC55FF4FF082E3944F
:1009E00085EBAADDD7CFF89402C08AEAA9DD809111
:1009F000A40081508093A4008F3FB9F7789410929F
:100A0000A30034C08BE084D282E08093A3001092D4
:100A10002601919A2BC091982091A5004091A400A5
:100A20006091260186EA90E08FDE109224018823EF
:100A300019F481E080932401919A86E08093A300C9
:100A400015C0919820E040E06091260184EA90E092
:100A50007BDE80932401F0CFFF2499CF112309F08E
:100A6000A6CF8CE055D210922601A1CFDF91CF9175
:100A70001F910F91FF90EF900895CF93DF938CE13A
:100A80007FDD80E271DD85E55BDD80E279DDC1E05F
:100A9000D0E009C08CE374DD219687E0C03DD80723
:100AA000D1F087EF4DDDA8958CE36ADD8AE644DD61
:100AB00080E15ADD8AE640DD88E080DD882351F35D
:100AC00080E15EDD8AE638DD88E078DD882311F795
:100AD0008CE356DD02C085E01BD2DF91CF910895F3
:100AE000109226011092A3008CE34ADD8AE624DDF1
:100AF000C4DF0895FF920F931F93162F042FF22E39
:100B000027E02093A300462F5527BC0186EA90E0FA
:100B100093DB109326010093A400F092A5001F918F
:100B20000F91FF9008951F93CF93DF939C01162F91
:100B30008091A300833019F040E050E019C080910B
:100B400025019927C62FDD27AE01B9018C559F4F8E
:100B500073DB80912501810F8093250190912601FF
:100B6000891710F4AE0104C084E08093A300AE01A5
:100B7000CA01DF91CF911F9108951F93CF93DF9307
:100B80009C018091A300823019F040E050E027C022
:100B900080912601882329F440E050E01092A300C0
:100BA0001EC0182F681708F4162FC12FDD2760917B
:100BB000250177276C557F4FAE01C9013DDB809140
:100BC0002501810F8093250180912601811B80934F
:100BD0002601882311F0AE0102C0AE01DFCFCA01A9
:100BE000DF91CF911F910895DF92EF92FF920F93C3
:100BF0001F93CF93DF93EC01D62E662361F1EE2491
:100C0000A89587E0F82E00E088E0D8DC8823E1F79B
:100C100084E0B6DC84E0D2DC182F8823D1F480E0B5
:100C20000695082B88E0A0DC84E0C8DC1817E1F307
:100C300088E0A6DC88E0C2DC8823E1F384E094DC71
:100C4000FA94F7FEE1CF0883E394DE1421F02196B5
:100C5000D7CF80E8E5CF8D2D9927DF91CF911F91D8
:100C60000F91FF90EF90DF900895EF92FF920F9316
:100C70001F93CF93DF93EC01E62E662369F1FF24E7
:100C80001991A89500E017FD1EC088E079DC84E08A
:100C900077DC84E093DC8823E1F317FD17C088E05C
:100CA00063DC84E08BDC8823E1F788E069DC84E0A6
:100CB0005BDC88E083DC8823E1F30F5F083049F0D8
:100CC000110F17FFE2CF88E04FDCE1CF88E058DC5E
:100CD000E8CFF394EF14A1F68E2D9927DF91CF91F1
:100CE0001F910F91FF90EF900895DF92EF92FF9286
:100CF0000F931F93CF93DF93EC01D62E662361F100
:100D0000EE24A89510E004E084E058DC8823E1F7A5
:100D100088E054DC8823F1F080E8F82E80E130DCB4
:100D200084E04CDC8823E1F388E048DC882381F010
:100D300080E816951F291695182B80E115DC0150C7
:100D4000101614F31883E394DE1431F02196D9CFF2
:100D500080E0EFCFFF24E2CF8D2D9927DF91CF9157
:100D60001F910F91FF90EF90DF900895EF92FF9207
:100D70000F931F93CF93DF93EC01E62E662351F17F
:100D8000FF241991A89500E010FF19C088E0ECDB62
:100D9000169580E1F5DB84E011DC8823E1F710FF94
:100DA00011C088E0E1DB80E1DFDB84E007DC882341
:100DB000E1F30F5F043049F0169510FDE7CF88E0AE
:100DC000DFDBE6CF88E0DCDBEECF88E0D9DBF39435
:100DD000EF14B9F68E2D9927DF91CF911F910F91C6
:100DE000FF90EF900895EF92FF921F93CF93DF93C0
:100DF0007C01162F6623B1F0EC0188E0DFDB88234D
:100E0000E1F341DC888384E0BBDB88E0D7DB882327
:100E1000E1F739DC898384E0A7DB22969E012E1955
:100E2000211758F3812F9927DF91CF911F91FF90C0
:100E3000EF900895EF92FF921F93CF93DF937C0181
:100E4000162F6623B1F0EC0188E0B8DB8823E1F3CC
:100E500088812CDC84E094DB88E0B0DB8823E1F738
:100E6000898124DC84E080DB22969E012E192117E3
:100E700058F3812F9927DF91CF911F91FF90EF9029
:100E80000895FF920F931F93CF93DF93EC01F62EFB
:100E90006623A9F000E084E073DB88E08FDB882321
:100EA000E1F7F1DB182F84E05FDB88E087DB882344
:100EB000E1F318830F5FF01611F02196ECCF8F2D20
:100EC0009927DF91CF911F910F91FF9008950F9374
:100ED0001F93CF93DF93EC01062F662391F010E070
:100EE0008991E4DB84E04CDB88E068DB8823E1F770
:100EF00084E03ADB88E062DB8823E1F31F5F0117BF
:100F000079F7802F9927DF91CF911F910F91089545
:100F10009091A200E92FFF27EE59FF4F80839F5F3A
:100F20009093A200903409F008951092A2000895C1
:100F3000E091A200E80FF12DF11DEF73F070EE5972
:100F4000FF4F80819927089580E4E2E6F0E0119256
:0A0F50008A95E9F71092A2000895B7
:0C16F0000118ABC5E6C8F0C5CDC5AAC501
:10170000F89481E180935700E89581E080936F031E
:1017100008959C0180916F03882319F480E090E084
:101720000895C901E9DF9927089583E291E890932C
:10173000FF018093FE0188E190E029E00FB6F89464
:10174000A89581BD0FBE21BDFFCFC49ABC98109251
:101750006F0380E090E0FC01259134912F5F3F4FB3
:1017600039F487E493EF9093FF018093FE0119C051
:101770008091FE019091FF0121E88332920789F068
:101780008754934F71F0B49B0CC0F89481E180931F
:101790005700E89581E080936F03899A9198A9DFBB
:1017A00002C0899A919885B38C7F85BB84B383608E
:1017B00084BB80E395E70197F1F784B38C7F84BB0A
:1017C00081E08BBF82E08BBF80D0789480D380E0B3
:0417D00090E0089508
:101800003AC0AEC153C052C051C050C04FC04EC00C
:101810004DC04CC04BC04AC049C048C047C046C07C
:1018200045C044C043C0040309041A036F0070009C
:1018300065006E00630062006D00200074006500AA
:1018400061006D000E037800750031003500340032
:10185000310012011001FF000008030432C600012C
:101860000102000109021200010100800F090400B9
:1018700000000000000011241FBECFE5D4E0DEBF51
:10188000CDBF13E0A0E6B3E0EEEAFFE102C00590B1
:101890000D92A236B107D9F713E0A2E6B3E001C07A
:1018A0001D92AA39B107E1F750DF80C3A9CF80911B
:1018B00060038F3F19F080E090E00895809161030C
:1018C00082958F7081709927089585B7836085BF51
:1018D0008BB780648BBF08950F931F93CF93DF93D3
:1018E0006091800316160CF0A7C0635080917D03B1
:1018F000C0E9D3E0C81BD10980917C038D3209F087
:101900007FC08AE580936103683009F08DC08881CB
:10191000807609F062C029E733E01092790389816B
:10192000882341F410927A0330937F0320937E033F
:1019300092E05DC0853021F48A8180938103E3C009
:10194000863099F58B81813019F482E598E104C0E5
:10195000823041F484E698E190937F0380937E0384
:1019600092E1D4C0833009F0D0C08A81882341F449
:1019700086E298E190937F0380937E0394E0C6C053
:10198000813041F48AE298E190937F0380937E0353
:101990009AE1BCC0823009F0B8C084E498E1909329
:1019A0007F0380937E039EE0B1C0883039F483E8E2
:1019B00093E090937F0380937E030DC0893021F4E0
:1019C0008A81809383039FC08A3009F09CC0309342
:1019D0007F0320937E0391E00AC0CE0183D2982F2B
:1019E0008F3F29F4888187FF19C09E8117C020E8A6
:1019F0008F818823D9F48E818917C0F4982F16C05F
:101A00008091620387FD10C0CE01FAD18F3F41F46F
:101A1000809360038EE1809361039FEF20E006C016
:101A20008823D9F390E0FACF90E020E82093620376
:101A300090936003109280038091610384FF58C0EB
:101A4000809160038F3F09F453C0682F893008F0FC
:101A500068E0861B809360038091620380FF02C070
:101A600003EC01C00BE48F5F8093620387FF23C008
:101A700020917E0330917F0386FD05C0962FF901EA
:101A8000A1E7B3E00DC0962FF901A1E7B3E003C0D1
:101A900084918D9331969150D8F704C081918D93A4
:101AA0009150E0F7C901860F911D90937F038093B9
:101AB0007E03772707C0662359F181E793E029DE8B
:101AC000682F7727162F693058F481E793E044D0C8
:101AD000912F9C5F183040F48FEF8093600304C017
:101AE0008FEF809360039EE10093700390936103F6
:101AF0009AE083B3837091F49150D9F710928103E7
:101B000010927B030BC090E072CF90E020EC70CF7E
:101B100060E081E793E020D094E0DECFDF91CF91C9
:101B20001F910F910895A82FB92F8FEF9FEF41E0DC
:101B300050EA615070F02D9138E0722F7827969519
:101B40008795269570FF02C0842795273A95A9F7B7
:101B5000F0CF809590950895E6DF8D939D9308953D
:101B6000CF93CFB7CF93989BFECF989B09C0989BFC
:101B700007C0989B05C0989B03C0989B01C0A1C05B
:101B8000DF93C0917D03DD27CC57DC4F989B02C0CB
:101B9000DF91EBCF2F930F931F9303B32FEF00FB36
:101BA00020F94F933F9313B34FEF012700FB21F927
:101BB0003BE031C04E7F012F13B3216028C0102FAE
:101BC0004D7F2260000003B329C04B7F2460012FAA
:101BD000000013B32BC013B3477F28602AC04F7E89
:101BE00003B320612CC04F7D13B320622FC04F7B05
:101BF00003B3206432C0422703B349934FEF000080
:101C0000102710FB20F913B31370C9F1297F91F24B
:101C1000012700FB21F903B3237F89F2315058F1EA
:101C2000102710FB22F913B3277E79F2012700FB5E
:101C300023F92F7C81F203B3102710FB24F92F79AD
:101C400071F200C013B3012700FB25F92F7359F27D
:101C500000C003B3102710FB26F9223040F200C069
:101C600013B3012700FB27F9243028F64F772068AB
:101C700013B30000F9CF10E41ABF002717C03B5080
:101C80003195C31BD04010E41ABF0881033CE9F032
:101C90000B34D9F020917B031981110F1213EDCF72
:101CA000093641F10D3211F0013E39F700938203FC
:101CB0003F914F911F910F912F91DF91CAB7C6FDB0
:101CC00052CFCF91CFBFCF911895009182030023BF
:101CD00079F310918003112349F534304AF13093A0
:101CE000800300937C0310917D033BE0311B309314
:101CF0007D031EC0009180030130C4F40AE53091D9
:101D0000610334FD17C000936103C0E7D3E016C040
:101D1000052710E005BB1FC0052722C0052727C0E7
:101D200005272CC0052710E005BB33C04AE503C0DA
:101D300042ED01C0432FC4E1D0E032E014B31360A0
:101D4000A89A05B314BB5F9353E020E820FF052752
:101D500005BB279517951C3FD8F620FF052727952B
:101D600005BB17951C3FC0F620FF05272795179543
:101D700005BB1C3F98F620FF0527279517951C3FAC
:101D800005BB70F600C0499120FF052705BB2795CC
:101D900017951C3F38F620FF0527279505BB17959B
:101DA0001C3F40F520FF05272795179505BB1C3FD5
:101DB00018F520FF0527279517951C3F05BBF0F464
:101DC000242F3A9519F60C7F5F9105BB0000109106
:101DD0008103110FC651D04011F010937B0310E422
:101DE0001ABF016014B31C7F402F4C7F05BB14BB8E
:101DF00045BB5ECF0527D2CF0527D7CF0527DCCF40
:101E0000FF920F931F93CF93DF93EC01162F8091D6
:101E10006F03882321F0CE0170DC992742C08091A6
:101E20006303813019F08FEF90E03BC0A0916C0309
:101E3000B0916D0370916E0360E001E0F5E0FF2E5C
:101E40002AC0F894FE01E60FF11D20818181AD01C9
:101E5000470F511D33279927982F8827282B392B77
:101E60000901FA0100935700E895112478947E5FE8
:101E7000703480F070936E03F894FD01F092570077
:101E8000E895789407B600FCFDCF1092630381E0DB
:101E900090E007C06E5F6117A0F270936E0380E060
:101EA00090E0DF91CF911F910F91FF9008950A016B
:101EB000FB0180935700E8951124813039F007B673
:101EC00000FCFDCF81E180935700E8950895A89527
:101ED00003DD80916F038823D1F3E9DC8823B9F314
:101EE00009DCF5CFFC0164E673E070937F03609337
:101EF0007E0380916F03882321F0CF01FCDB9927BB
:101F0000089581818823A1F48FEF809364038093E7
:101F1000650380E090E4909367038093660381E01B
:101F20008093680385E18093690386E090E00895DB
:101F3000813081F48EED9CEB9093FF018093FE0144
:101F400088E190E029E00FB6F894A89581BD0FBE16
:101F500021BDFFCF8230E9F481E080936303838168
:101F600022819927982F88273327822B932B9093B0
:101F70006D0380936C0310926E03F89423E0FC01D0
:101F800020935700E895789407B600FCFDCF8FEFBB
:101F90000BC0833041F41092640380E480936503A6
:0E1FA00082E090E0089580E099270895FFCF39
:021FAE00FF5AD8
:061FF00001159BCB5CCF44
:0400000300001800E1
:00000001FF
