:1000000024C119C118C117C116C115C114C113C12A
:1000100012C111C110C10FC10EC10DC10CC10BC164
:100020000AC109C108C1A9C122C229C270C16FC1D8
:1000300031C230C23DC23CC254C24CC257C2B1C12F
:10004000B5C1B9C1BAC18BC185C18FC176C175C1F6
:1000500074C173C175C174C1B3C16FC16EC16DC1CB
:100060006CC16BC16AC1B0C1C2C1CDC1D8C165C1CB
:1000700064C163C162C161C160C15FC15EC15DC174
:100080005CC15BC15AC159C158C157C156C155C1A4
:1000900054C153C152C151C150C14FC14EC14DC1D4
:1000A0004CC14BC14AC149C148C147C146C145C104
:1000B00044C143C142C141C140C13FC13EC13DC134
:1000C0003CC13BC13AC139C138C137C136C135C164
:1000D00034C133C132C131C130C12FC12EC12DC194
:1000E0002CC12BC12AC129C128C127C126C125C1C4
:1000F00024C123C122C121C120C11FC11EC11DC1F4
:100100001CC11BC11AC119C118C117C116C115C123
:1001100014C113C112C111C110C10FC10EC10DC153
:100120000CC10BC10AC109C108C107C106C105C183
:1001300004C103C102C101C100C1FFC0FEC0FDC0B6
:10014000FCC0FBC0FAC0F9C0F8C0F7C0F6C0F5C0EB
:10015000F4C0F3C0F2C0F1C0F0C0EFC0EEC0EDC01B
:10016000ECC0EBC0EAC0E9C0E8C0E7C0E6C0E5C04B
:10017000E4C0E3C0E2C0E1C0E0C0DFC0DEC0DDC07B
:10018000DCC0DBC0DAC0D9C0D8C0D7C0D6C0D5C0AB
:10019000D4C0D3C0D2C0D1C0D0C0CFC0CEC0CDC0DB
:1001A000CCC0CBC0CAC0C9C0C8C0C7C0C6C0C5C00B
:1001B000C4C0C3C0C2C0C1C0C0C0BFC0BEC0BDC03B
:1001C000BCC0BBC0BAC0B9C0B8C0B7C0B6C0B5C06B
:1001D000B4C0B3C0B2C0B1C0B0C0AFC0AEC0ADC09B
:1001E000ACC0ABC0AAC0A9C0A8C0A7C0A6C0A5C0CB
:1001F000A4C0A3C0A2C0A1C0A0C09FC09EC09DC0FB
:100200009CC09BC09AC099C098C097C096C095C02A
:1002100094C093C092C091C090C08FC08EC08DC05A
:1002200014C109C117C10008040C1018141C20289F
:10023000242C3038343CE4CEFB01DC0102C00190B8
:100240000D9241505040D8F708954AD4919A08959C
:10025000919820916000223081F0233038F02330D3
:10026000A9F0243081F080E090E012C0222341F018
:100270002130C9F7FAD499270BC078D5992708C03F
:1002800052D4992705C023D6992702C0D3D59927E0
:10029000919A0895919820916000223081F0233046
:1002A00038F02330A9F0243081F080E090E012C0D3
:1002B000222341F02130C9F797D499270BC015D5D7
:1002C000992708C05AD4992705C0DBD5992702C0C1
:1002D0008AD59927919A0895EF92FF920F931F93D1
:1002E000CF93DF93DC018B0182E0E82EF12CEA0E44
:1002F000FB1EFD019281ED0121968181E82FFF27F0
:10030000EF3FF10509F0C8F4ED5EFF4F09948881D5
:1003100020E0833009F4FAC0F7019081222309F02C
:10032000F1C080E2892BF7018083FD018381806623
:10033000838341E062E0C701DDD380E090E0ECC060
:1003400085E080936000F70180818823B1F38FEF0F
:1003500090E0E2C0FD016381F7018081BDD174D1DD
:10036000F801808381E090E0D7C0FD016381F7014F
:1003700080817CD180E090E0CFC081E0FB01808370
:1003800088E1818387EF90E09383828380EF9FE110
:10039000FC0125913491FB013583248386E090E0B4
:1003A000BBC0892F3BD180E090E0B6C0CB0144D1E7
:1003B00082E090E0B1C067D1D3CF892F77D1BDCF94
:1003C00018DE80E090E0A8C0F7018081813039F02C
:1003D000813008F490C0823009F0AFCF81E0809383
:1003E0006000FD018481882309F0B1CFA6CFF70119
:1003F0008081813009F488C0813008F47CC082306B
:1004000009F09BCFECCFF7018081813031F0813052
:1004100008F471C0823009F090CF83E0E0CFF7019B
:100420008081813031F0813008F465C0823009F07C
:1004300084CF84E0D4CF80E4FB018083892F78D5FA
:10044000F801818382E090E067C0892FE1D080E0ED
:1004500090E062C0F70180819181A281B381FB01AC
:1004600080839183A283B38384E090E055C010928F
:100470006000F7018081882309F069CF5ECF109278
:100480006000F7018081D0D0F7018081882309F0D6
:100490005ECF53CF88818530D9F18FE3F701808318
:1004A00020E041E061E0C70125D380E090E034C066
:1004B000F7018081806280839D012D5F3F4FFD01A8
:1004C00093818881873031F180EE892BF901808317
:1004D00020E02FCF80916100882309F441CF81E093
:1004E0003FCF919ACAD280E090E016C0109261008E
:1004F00080E090E011C081E0F8018083118282E009
:1005000090E00AC080E40ECF82E069CF21E004CF02
:100510008FE5C4CF80EFD9CFDF91CF911F910F919D
:10052000FF90EF900895A89582BF88B7816088BF3B
:1005300008B600FEFDCF089592E093BFF4DF089562
:1005400095E093BFF0DF0895E82FFF27E7FDF095D2
:10055000EA5DFD4FE4918E2F9927089582E08A95F8
:10056000F1F783B39927089592E09A95F1F795B33F
:10057000282F2095922395BB94B3982B94BB089574
:1005800092E09A95F1F794B3282F2095922394BB8B
:1005900095B3982B95BB089592E09A95F1F795B392
:1005A000282F2095922395BB94B3982B862F809566
:1005B000892384BB85B3862B85BB089592E09A95E9
:1005C000F1F793B320E030E0982311F421E030E01C
:1005D000C90108950F931F93182F062F86E085BD3C
:1005E00083EA84BD88B7806488BF08B606FC04C06F
:1005F000B5DF81230817C9F3B1DF20E030E018230D
:10060000101711F021E030E0C9011F910F910895FA
:1006100095E09093A3008093A40008958093260111
:1006200081E08093A300089593E09093A30010923B
:100630002501809326010895FC018091A300808309
:1006400080912401818308951F9388DF182F1695C8
:10065000169516951095117081DF82FF12607EDF6E
:1006600084FF1460812F99271F9108950F931F9382
:10067000182F862F69DF082F812F66DF602F8CDF10
:100680001F910F91089581B3877081BB87B3887FD5
:1006900087BB82B3877082BB88B3887F88BB90B3E7
:1006A00086B38770987F892B9927089591B3986FA7
:1006B00091BB97B3976097BB92B3977092BB98B377
:1006C000987F98BB92B3282F287F922B92BB98B328
:1006D0008770982B98BB0895EF92FF920F931F930A
:1006E000CF93DF93162F30DFE82E112301F1F82E80
:1006F00000E010E0C0E0D0E031DF8E21F81679F4A0
:1007000083E0083E180770F087E0C13DD80788F401
:10071000219600E010E022DF8E21F81689F380E0B8
:1007200090E00BC00F5F1F4F81EF06DFE5CFFF2486
:10073000DFCF8DE0EDD38FEF90E0DF91CF911F9170
:100740000F91FF90EF900895AF92BF92CF92DF92FA
:10075000EF92FF920F931F93CF93DF936C01F62ECE
:10076000B42EA22E1092610088E00ADFBB2009F0AF
:1007700088C084E0F9DE68E088E02CDF882309F493
:1007800085C0FF2009F490C0EF2C85EBD5DE88E012
:1007900015DF882309F443C084E0F2DE00E010E0B6
:1007A00088E00CDF8823C1F0E7E0003D1E07A1F0E0
:1007B000C0E0D0E007C083E0C83ED80739F081EF41
:1007C000BBDE219688E0FADE8823A9F70F5F1F4F72
:1007D00088E0F4DE882341F788E0F0DE882309F022
:1007E0005CC0F1E0FF16E9F181EFA6DE84E0BCDE3B
:1007F000F60111916F0100E00BC084E0C1DE82EED2
:100800009BDE68E084E0C8DE0F5F0830F9F01695E3
:1008100087E992DE10FDF1CF88E0A6DEEECF8AE018
:1008200077D3EE24FF2019F0EE2009F0AECFAA20F6
:1008300051F188E099DE84E1A3DE84E0BFDE882305
:10084000E1F38AE679DE8E2D992730C068E088E0F2
:10085000C1DE882379F0882381F489E059D3EE241E
:10086000E1CFBB2009F668E088E0B4DE60E088E014
:10087000B1DEBACF86E04CD3F0CFFA948AE65CDEE4
:10088000D1CF84E177CF80E17BDEDBCF84E178DEFE
:1008900088E03ED380E090E009C087E039D384E16E
:1008A0006FDE80E090E002C0EE24C1CFDF91CF91F7
:1008B0001F910F91FF90EF90DF90CF90BF90AF907E
:1008C0000895EF92FF920F931F93CF93DF93809140
:1008D000A300853009F487C0873009F49CC08430B8
:1008E00009F4AFC0813009F0C1C010922501919880
:1008F000EE24C0E0D0E008C083ECC035D80709F48E
:1009000081C0219682EE18DE84E058DE8823A1F7AC
:1009100080916100882309F04AC088E031DE83E0DD
:1009200085BD14BC88B7806488BF84B5863938F427
:1009300008B606FC04C084E041DE8823B1F384E0FD
:100940003DDE8823D9F1F89464E084E043DE182F7B
:10095000882309F481C000E0FF2405C00F5F083040
:10096000B1F01123A1F060E084E034DE182F882379
:10097000A9F3F69488E022DE882311F480E8F82AAF
:1009800064E084E027DE182F0F5F083051F7789479
:100990001123F1F480912601E81608F05FC01123BD
:1009A00009F45FC080916100882309F4A2CF82E03E
:1009B0008093A300E0922601919A58C081E0809331
:1009C000610088E0D1DD87E9B7DD88E0D9DDBBCF04
:1009D00088E0CADDEE2DFF27EC55FF4FF082E3944F
:1009E00085EBAADDD7CFF89402C08AEAA9DD809111
:1009F000A40081508093A4008F3FB9F7789410929F
:100A0000A30034C08BE084D282E08093A3001092D4
:100A10002601919A2BC091982091A5004091A400A5
:100A20006091260186EA90E08FDE109224018823EF
:100A300019F481E080932401919A86E08093A300C9
:100A400015C0919820E040E06091260184EA90E092
:100A50007BDE80932401F0CFFF2499CF112309F08E
:100A6000A6CF8CE055D210922601A1CFDF91CF9175
:100A70001F910F91FF90EF900895CF93DF938CE13A
:100A80007FDD80E271DD85E55BDD80E279DDC1E05F
:100A9000D0E009C08CE374DD219687E0C03DD80723
:100AA000D1F087EF4DDDA8958CE36ADD8AE644DD61
:100AB00080E15ADD8AE640DD88E080DD882351F35D
:100AC00080E15EDD8AE638DD88E078DD882311F795
:100AD0008CE356DD02C085E01BD2DF91CF910895F3
:100AE000109226011092A3008CE34ADD8AE624DDF1
:100AF000C4DF0895FF920F931F93162F042FF22E39
:100B000027E02093A300462F5527BC0186EA90E0FA
:100B100093DB109326010093A400F092A5001F918F
:100B20000F91FF9008951F93CF93DF939C01162F91
:100B30008091A300833019F040E050E019C080910B
:100B400025019927C62FDD27AE01B9018C559F4F8E
:100B500073DB80912501810F8093250190912601FF
:100B6000891710F4AE0104C084E08093A300AE01A5
:100B7000CA01DF91CF911F9108951F93CF93DF9307
:100B80009C018091A300823019F040E050E027C022
:100B900080912601882329F440E050E01092A300C0
:100BA0001EC0182F681708F4162FC12FDD2760917B
:100BB000250177276C557F4FAE01C9013DDB809140
:100BC0002501810F8093250180912601811B80934F
:100BD0002601882311F0AE0102C0AE01DFCFCA01A9
:100BE000DF91CF911F910895DF92EF92FF920F93C3
:100BF0001F93CF93DF93EC01D62E662361F1EE2491
:100C0000A89587E0F82E00E088E0D8DC8823E1F79B
:100C100084E0B6DC84E0D2DC182F8823D1F480E0B5
:100C20000695082B88E0A0DC84E0C8DC1817E1F307
:100C300088E0A6DC88E0C2DC8823E1F384E094DC71
:100C4000FA94F7FEE1CF0883E394DE1421F02196B5
:100C5000D7CF80E8E5CF8D2D9927DF91CF911F91D8
:100C60000F91FF90EF90DF900895EF92FF920F9316
:100C70001F93CF93DF93EC01E62E662369F1FF24E7
:100C80001991A89500E017FD1EC088E079DC84E08A
:100C900077DC84E093DC8823E1F317FD17C088E05C
:100CA00063DC84E08BDC8823E1F788E069DC84E0A6
:100CB0005BDC88E083DC8823E1F30F5F083049F0D8
:100CC000110F17FFE2CF88E04FDCE1CF88E058DC5E
:100CD000E8CFF394EF14A1F68E2D9927DF91CF91F1
:100CE0001F910F91FF90EF900895DF92EF92FF9286
:100CF0000F931F93CF93DF93EC01D62E662361F100
:100D0000EE24A89510E004E084E058DC8823E1F7A5
:100D100088E054DC8823F1F080E8F82E80E130DCB4
:100D200084E04CDC8823E1F388E048DC882381F010
:100D300080E816951F291695182B80E115DC0150C7
:100D4000101614F31883E394DE1431F02196D9CFF2
:100D500080E0EFCFFF24E2CF8D2D9927DF91CF9157
:100D60001F910F91FF90EF90DF900895EF92FF9207
:100D70000F931F93CF93DF93EC01E62E662351F17F
:100D8000FF241991A89500E010FF19C088E0ECDB62
:100D9000169580E1F5DB84E011DC8823E1F710FF94
:100DA00011C088E0E1DB80E1DFDB84E007DC882341
:100DB000E1F30F5F043049F0169510FDE7CF88E0AE
:100DC000DFDBE6CF88E0DCDBEECF88E0D9DBF39435
:100DD000EF14B9F68E2D9927DF91CF911F910F91C6
:100DE000FF90EF900895EF92FF921F93CF93DF93C0
:100DF0007C01162F6623B1F0EC0188E0DFDB88234D
:100E0000E1F341DC888384E0BBDB88E0D7DB882327
:100E1000E1F739DC898384E0A7DB22969E012E1955
:100E2000211758F3812F9927DF91CF911F91FF90C0
:100E3000EF900895EF92FF921F93CF93DF937C0181
:100E4000162F6623B1F0EC0188E0B8DB8823E1F3CC
:100E500088812CDC84E094DB88E0B0DB8823E1F738
:100E6000898124DC84E080DB22969E012E192117E3
:100E700058F3812F9927DF91CF911F91FF90EF9029
:100E80000895FF920F931F93CF93DF93EC01F62EFB
:100E90006623A9F000E084E073DB88E08FDB882321
:100EA000E1F7F1DB182F84E05FDB88E087DB882344
:100EB000E1F318830F5FF01611F02196ECCF8F2D20
:100EC0009927DF91CF911F910F91FF9008950F9374
:100ED0001F93CF93DF93EC01062F662391F010E070
:100EE0008991E4DB84E04CDB88E068DB8823E1F770
:100EF00084E03ADB88E062DB8823E1F31F5F0117BF
:100F000079F7802F9927DF91CF911F910F91089545
:100F10009091A200E92FFF27EE59FF4F80839F5F3A
:100F20009093A200903409F008951092A2000895C1
:100F3000E091A200E80FF12DF11DEF73F070EE5972
:100F4000FF4F80819927089580E4E2E6F0E0119256
:0A0F50008A95E9F71092A2000895B7
:0C16F0000118ABC5E6C8F0C5CDC5AAC501
:10170000F89481E180935700E89581E080936B0322
:1017100008959C0180916B03882319F480E090E088
:101720000895C901E9DF9927089583E291E890932C
:10173000FF018093FE0188E190E029E00FB6F89464
:10174000A89581BD0FBE21BDFFCFC49ABC98109251
:101750006B0380E090E0FC01259134912F5F3F4FB7
:1017600039F487E493EF9093FF018093FE0119C051
:101770008091FE019091FF0121E88332920789F068
:101780008754934F71F0B49B0CC0F89481E180931F
:101790005700E89581E080936B03899A9198A9DFBF
:1017A00002C0899A919885B38C7F85BB84B383608E
:1017B00084BB80E395E70197F1F784B38C7F84BB0A
:1017C00081E08BBF82E08BBF03D2789457D380E057
:0417D00090E0089508
:101800003AC06FC053C052C051C050C04FC04EC04C
:101810004DC04CC04BC04AC049C048C047C046C07C
:1018200045C044C043C01A036F00700065006E00DD
:10183000630062006D0020007400650061006D00AF
:101840000E037800750031003500340031001201BC
:101850000101FF000008030432C60002010200017A
:1018600009021200010100800F0904000000FF00BE
:1018700000000403090411241FBECFE5D4E0DEBF3D
:10188000CDBF13E0A0E6B3E0E0E4FFE102C00590C5
:101890000D92A236B107D9F713E0A2E6B3E001C07A
:1018A0001D92A339B107E1F750DF49C3A9CFDC018D
:1018B0009FEF8FEF662381F040EA31E02D9108948D
:1018C000279508F483279695879510F49427832706
:1018D0002695B9F76A9591F7809590958D939D938C
:1018E00008950F931F932F93DF93CF930FB70F9309
:1018F0009999FECF99990BC0999909C0999907C0F8
:10190000999905C0999903C000E40ABFA8C0C09185
:101910007B03DD27C458DC4F0BE013E022E0999BEA
:10192000E9CF3F934F936F9363B330E803C063B342
:10193000432B4993442763702627215023B32370F8
:10194000A9F137953C3FA0F56227615063B36370FE
:1019500037953C3F98F526272150379523B32370C0
:101960003C3F90F56227615037953C3F63B363700D
:10197000A0F52627215037953C3FC8F523B32370A7
:101980006227615037953C3FB0F50A9563B37AF012
:1019900063702627215037953C3F88F523B3237089
:1019A0006227615037953C3F10F22DC031C048C0CE
:1019B000612723B323703F774160C6CF3F774260F2
:1019C00063B363702127C7CF3F774460612723B398
:1019D0002370622761503795C8CF3F774860212731
:1019E000316063B36370262721503795C6CF3F77A8
:1019F00040616127C1CF3F7740622127C4CF3F7745
:101A000040646127C9CF3F774068212700C08FCF4E
:101A100030E43ABF0B500195033090F0C01B288191
:101A2000233CB1F12B34A1F119811F77409192032E
:101A3000141731F42936D9F02D3249F0213E39F00E
:101A40004427409362036F914F913F9108C02093C8
:101A500062036F914F913F910AB706FD49CF0F91F5
:101A60000FBFCF91DF912F911F910F91189500918A
:101A70006C03002311F140917A034423F1F4409365
:101A80006C034091780340939203CDE6D3E018C0F5
:101A9000209162032223A1F240917A03442369F446
:101AA00000937A032093790300917B034BE0401B62
:101AB00040937B03C0E6D3E002C0C1E6D3E001E07F
:101AC00025B32C7F216014B3136025BB14BB13E036
:101AD00030E830FF212725BB379547954C3FC0F5AF
:101AE00030FF2127379525BB47954C3FA8F530FFA0
:101AF00021273795000025BB47954C3F78F530FFEF
:101B000021273795000025BB47954C3F48F530FF0E
:101B10002127699125BB379547954C3F18F530FF34
:101B20002127379525BB47954C3F00F530FF2127EE
:101B30003795479525BB4C3FD8F430FF2127379583
:101B4000362F479525BB4C3FA8F40A9512F614C0D2
:101B50002127442725BBC2CF2127C5CF2127CBCFA3
:101B60002127D1CF2127442725BBD7CF2127DACF63
:101B70002127DFCF2127E5CF2C7F25BB6F914F9108
:101B80003F9100E40ABFDF91CF9114B3022F21608F
:101B900025BB1C7FDFBFDF912F91000014BB05BB6D
:101BA0001F910F91189580916303882371F48091A0
:101BB0006403882351F490E080916C03811191E0DB
:101BC00081E09827892F9927089580E090E0089573
:101BD00085B7836085BF8BB780648BBF7894089589
:101BE0001F93CF93DF9360917A03662309F477C044
:101BF00080917B039927CC27DD27C81BD90BC857B9
:101C0000DC4F91E090936303809179038D3209F06A
:101C100057C01E818F8181111FEF8881807609F066
:101C20003FC08981882321F41882198292E040C044
:101C3000853021F48A8180937803B2C0863031F5F3
:101C400082E0809363038B81813019F4CEE4D8E184
:101C500004C0823021F4C0E6D8E192E129C083308B
:101C600009F09EC08A81882321F4C2E7D8E194E07C
:101C70001FC0813021F4C6E2D8E19AE119C0823058
:101C800009F08EC0C0E4D8E19EE012C0883011F4A3
:101C9000988304C08A3009F083C0188291E008C09C
:101CA000CE01F7D0982F8F3F19F483E08093630320
:101CB000191708F0192FD0936603C093650305C068
:101CC000635011F0CE017AD010E01093640383ECDE
:101CD00080936D0310926C0310927A0305C080917B
:101CE0006C03882309F050C040916303442309F436
:101CF0004BC080916D0398E8892780936D03109104
:101D00006403193010F018E003C0112309F44AC02D
:101D1000433031F4612F8EE693E0FBDC182F23C0B3
:101D20002091650330916603413029F0F90190E07C
:101D3000AEE6B3E00FC0F90190E0AEE6B3E003C059
:101D400081918D939F5F9117D9F706C08491319649
:101D50008D939F5F9117D1F7C901810F911D9093CA
:101D600066038093650380916403811B8093640301
:101D7000612F8EE693E09BDD1D5F10936C03135083
:101D8000183010F4109263038AE002C0815019F0F9
:101D9000989BFCCF0FC010927803109292030AC058
:101DA00010E089CF60E08EE693E081DD83E08093F0
:101DB0006C03E8CFDF91CF911F910895FF920F93AD
:101DC0001F93CF93DF93EC01162F80916B03882331
:101DD00019F0CE0192DC3CC080916703813009F09C
:101DE00037C0A0916803B091690370916A0360E005
:101DF00001E0F5E0FF2E28C0F894FE01E60FF11D8A
:101E000020818181AD01470F511D33279927982FDC
:101E10008827282B392B0901FA0100935700E895F0
:101E2000112478947E5F703470F070936A03F89494
:101E3000FD01F0925700E895789407B600FCFDCFBD
:101E40001092670305C06E5F6117B0F270936A036A
:101E5000DF91CF911F910F91FF9008950A01FB012F
:101E600080935700E8951124813039F007B600FCC3
:101E7000FDCF81E180935700E8950895A895B0DEE5
:101E800080916B038823D1F38EDE8823B9F332DC93
:101E9000F5CFFC0180916B03882329F0BF01CF01AE
:101EA0002ADC992708958181882371F48FEF80833C
:101EB000818380E090E49383828382E0848385E160
:101EC000858386E090E00895813081F48EED9CEB6F
:101ED0009093FF018093FE0188E190E029E00FB626
:101EE000F894A89581BD0FBE21BDFFCF8230E1F4EB
:101EF00081E080936703838122819927982F882727
:101F00003327822B932B909369038093680310925D
:101F10006A03F89423E0FC0120935700E895789435
:101F200007B600FE09C0FCCF833031F4108280E494
:101F3000818382E090E0089580E090E00895FFCFF3
:021F4000D25A73
:061FF00002159BCB33CF6C
:0400000300001800E1
:00000001FF
