:1000000012C02CC02BC02AC029C028C027C026C0BF
:1000100025C024C023C022C021C020C01FC01EC0D4
:100020001DC01CC01BC011241FBECFE5D4E0DEBF25
:10003000CDBF10E0A0E6B0E0E6EBF3E002C0059033
:100040000D92A036B107D9F710E0A0E6B0E001C0EC
:100050001D92A23AB107E1F733D1ACC1D1CFAC01C7
:10006000892B61F020E030E0E8EBFBE0CF01019765
:10007000F1F72F5F3F4F42175307C1F70895282F1D
:100080008091600090916100892B29F0822FE0E23D
:10009000FCE009950895822FADDF089540E050E01F
:1000A000BC0183E0ECDF0895DF92EF92FF920F93A3
:1000B0001F937B018C01899A9198EE0CFF1C001F05
:1000C000111F82E0D82E06C08CE291E0C8DF82B317
:1000D0008D2582BBE114F10401051105A9F30894F3
:1000E000E108F10801091109E114F1040105110504
:1000F00059F788EE93E0B3DF1F910F91FF90EF90D7
:10010000DF900895CF92DF92EF92FF920F931F93AB
:10011000CF93DF936C018B01E199FECF07B600FC12
:10012000FDCFC601BBDF07B600FCFDCFEE24FF24E8
:10013000E601F801808141810E5F1F4F5527542F42
:100140004427480F511DBE0181E099DF82E090E015
:10015000E80EF91E229690E4E916F10451F740E00A
:1001600050E0B60185E08BDFDF91CF911F910F91B9
:10017000FF90EF90DF90CF900895DB0120E030E01A
:10018000FC0184918D932F5F3F4F319620343105D0
:10019000C1F70895AF92BF92CF92DF92EF92FF9294
:1001A0000F931F93CF93DF93CDB7DEB7C054D040EA
:1001B0000FB6F894DEBF0FBECDBF6C017B018A0184
:1001C0005E010894A11CB11C06C080E490E0C80E3A
:1001D000D91EE80EF91E62E670E0C701CEDFB50158
:1001E000C601CBDF90916200F5018081981749F438
:1001F0000134110518F00054104039F781E090E007
:1002000002C080E090E0C05CDF4F0FB6F894DEBF24
:100210000FBECDBFDF91CF911F910F91FF90EF9057
:10022000DF90CF90BF90AF9008957F928F929F9272
:10023000AF92BF92CF92DF92EF92FF920F931F93F4
:10024000CF93DF934C015B016A0133E0732E74019D
:100250008501E60106C080E490E0E80EF91E005C2E
:100260001F4F62E670E0C80188DF62E670E0C701F8
:1002700049DFC134D10518F0C054D04061F7A60160
:10028000B501C40187DF892B41F47A9401F760E05E
:1002900070E080E090E008DF02C07720C1F3DF91DA
:1002A000CF911F910F91FF90EF90DF90CF90BF9073
:1002B000AF909F908F907F90089580E090E0089598
:1002C0000F931F93CF93DF93F89462E070E080E088
:1002D00090E0EADE62E670E080E098E14EDF8FEFCA
:1002E0008093620083EC8093630062E670E080E0BC
:1002F00098E108DF09EC11E0000F111FC9EDD1E012
:10030000CC0FDD1FC01BD10BAE01B80180E498E11A
:1003100041DF892B29F4AE01B80180E498E185DF43
:1003200081E090E0909361008093600040E857E0A6
:1003300060E878E080E898E178DF40E051E060E054
:1003400077E080E097E171DF109261001092600029
:1003500040E051E060E478E080E498E166DF40E46A
:1003600050E060E078E080E098E15FDF61E070E01D
:1003700080E090E099DE80E090E090DE80EC96E115
:100380008DDE37DE80E090E0DF91CF911F910F91FD
:1003900008950A01FB0180935700E89511248130EC
:1003A00039F007B600FCFDCF81E180935700E89556
:0603B00008950895FFCF3F
:0C16F0000000E6C5E2C5E1C5E0C5DFC5AD
:00000001FF
