:10000000DEC0E8C3F7C0F6C0F5C0F4C0F3C0F2C06C
:10001000F1C0F0C0EFC0EEC0EDC0ECC0EBC0EAC074
:10002000E9C0E8C0E7C004030904420353007000BC
:100030006100630065006D0061006E0020005300E8
:10004000700069006600660020006800740074009B
:1000500070003A002F002F00730079006D006C00D3
:1000600069006E006B002E0064006B002A035300D1
:1000700070006900660066002700730020004300DE
:100080003600340020004B006500790062006F00EC
:1000900061007200640006033400320012010101A5
:1000A000000000084242BEBA9801010203010902A1
:1000B0002200010100403209040000010301010097
:1000C000092101010001223F000705810308000A00
:1000D000792022717375771E281A151C0C137A2942
:1000E0007D04070A0D0F8466812170727476786F23
:1000F0007E1D060510376B2C7F16090B0E837B685F
:1001000080081718128582147C671B191136386C09
:100110006A000000000000001F00340023002400DB
:100120002400348825002600260027002700278881
:100130002E022E8A2D002D883502358A4A804D8068
:100140002A004C88250225022E002E8851805280DC
:100150004F8050803A803B803C803D803E803F8095
:10016000408041802302230033022F8833003088EF
:100170001F8A1F8A01020408102040800501090619
:10018000A101050719E029E715002501750195086A
:10019000810295017508810395057501050819010E
:1001A00029059102950175039103950675081500BF
:1001B00025650507190029658100C0102008112454
:1001C0001FBECFE5D4E0DEBFCDBF10E0A0E6B0E0BB
:1001D000EEE9F3E102C005900D92AE36B107D9F712
:1001E00010E0AEE6B0E001C01D92AF3AB107E1F712
:1001F000C1D1D4C805CF85B7836085BF8BB7806474
:100200008BBF83EC8093850008950F931F93CF934A
:10021000DF936091950016160CF0D7C06350809163
:100220009200C5EAD0E0C81BD109809191008D32BF
:1002300009F0AFC08AE580936100683009F0BDC065
:100240009881892F807609F091C023E830E01092E0
:1002500083008981882369F49F7119F481E0809378
:10026000830010928400309394002093930092E0D6
:1002700087C0853021F48A8180939600FBC0863048
:1002800009F056C08B81813041F48CE990E0909365
:1002900094008093930092E1F0C0823041F48EEAA2
:1002A00090E0909394008093930092E2E6C08330B4
:1002B00051F58A81882341F486E290E0909394007E
:1002C0008093930094E0D9C0813041F48AE290E0B9
:1002D000909394008093930092E4CFC0823041F4D5
:1002E0008CE690E090939400809393009AE2C5C0CE
:1002F000833009F0C1C086E990E090939400809328
:10030000930096E0BAC0813241F480EC90E0909383
:1003100094008093930099E0B0C0823209F0ACC0A1
:100320008CE791E090939400809393009FE3A5C0A5
:10033000883039F488E990E090939400809393009A
:100340000CC0893021F48A818093980093C08A3050
:1003500031F4309394002093930091E011C08B30DE
:1003600009F088C083EC8093850084C0CE01AED0B4
:10037000982F8F3F29F4888187FF19C09E8117C06D
:1003800020E88F818823D9F48E818917C0F4982FB3
:1003900016C080916E0087FD10C0CE01D7D08F3F70
:1003A00041F4809360008EE1809361009FEF20E034
:1003B00006C08823D9F390E0FACF90E020E820939C
:1003C0006E0090936000109295008091610084FF10
:1003D00046C0809160008F3F09F441C0682F89308A
:1003E00008F068E0861B8093600080916E0080FFBB
:1003F00002C003EC01C00BE48F5F80936E0020917C
:1004000093003091940086FD05C0962FF901ABE76B
:10041000B0E00DC0962FF901ABE7B0E003C08491C6
:100420008D9331969150D8F704C081918D9391505E
:10043000E0F7C901860F911D90939400809393007B
:100440007727162F8BE790E041D3183018F48FEF01
:100450008093600000937A001C5F109361009AE023
:1004600080B3857061F49150D9F710929600109284
:10047000900005C090E084CF90E020EC82CFDF9127
:10048000CF911F910F9108951F93DC01162F80913A
:10049000620084FF07C08091850098E889278093D7
:1004A000850003C08AE580936200912FE6E8F0E0C2
:1004B00002C08D9181939150E0F7612F86E890E022
:1004C00005D31C5F109362001F910895FC0181E722
:1004D00090E09093940080939300808180768032A6
:1004E00091F58181813019F488E090E00895893098
:1004F00051F486819781019731F581E080936F00F7
:100500008FEF90E00895823019F489E790E014C0ED
:100510008A3021F483818093790007C0833041F4CD
:100520008381882381F410926D0080E090E008952B
:100530008B3049F48DE690E0909394008093930083
:1005400081E090E0089580E090E00895FC018091C2
:100550006F00882351F0613041F4808180937000F6
:1005600081FF02C0919A01C0919810926F0081E0C2
:1005700090E00895CF92DF92EF92FF920F931F9336
:10058000CF93DF93CDB7DEB722970FB6F894DEBFD7
:100590000FBECDBF88E190E02FE00FB6F894A8958C
:1005A00081BD0FBE21BD8FE388BB17BA8FEF85BB1E
:1005B00014BA8AEF82BB87E081BB8CE28A95F1F79F
:1005C00082E081BB85E083BF16DE7894FF24EE24B1
:1005D000A8951BDE60916C0040E050E0A3E6B0E01F
:1005E0001FEF78E725EB31E0F4E7CF2EF1E0DF2EC7
:1005F00081B3877C81BB82B3886382BB463030F491
:10060000F601849187BB809588BB0BC017BA18BBD5
:10061000F901849191B3982B91BB92B38095982363
:1006200092BB872F8A95F1F793B380B39F73807C39
:10063000982B8C9198136AE09D934F5F5F4F0894BD
:10064000C11CD11C2F5F3F4F4930510589F6609383
:100650006C00613011F090E097C088E0E1E7F0E0D5
:1006600011928A95E9F780916700482F55274074C9
:10067000507080916A00282F33272270307011E06B
:1006800090E0A3E6B0E060E070E00C910F3F09F469
:100690005FC01A8281E057C08981802309F04EC073
:1006A0008A81FB01E80FF11DE053FF4F84918F36E3
:1006B00070F1E82FEF5641155105B9F021153105BC
:1006C00011F48C3790F0CE2EDD24CC0CDD1CCC0C3C
:1006D000DD1CC601885E9E4FFC018491E9E1F1E0DA
:1006E000CE0EDF1EF60194911FC0CE2EDD24CC0C61
:1006F000DD1CCC0CDD1CC601865E9E4FFC01849186
:10070000EBE1F1E0CE0EDF1EF60194910DC08636CE
:1007100058F0E82FFF27E25FFE4FE49180917100CF
:100720008E2B809371000AC0882341F01F5F183020
:1007300028F4E12FFF27EF58FF4F80838A818F5FD6
:100740008A838981880F89838A81883008F4A4CFBD
:100750001196685F7F4F6834710509F096CF97FF57
:1007600005C0809171008F7D8093710093FF05C05B
:10077000809171008D7F80937100977780917100D7
:10078000892B8093710091E080916C00882319F08F
:10079000815080936C0008B600FE0FC081E088BFD6
:1007A00080917900882349F0F4E0FE1520F0E82ECE
:1007B00081E0F82E05C02BEFE20EF92A09F408CFEC
:1007C0008091620084FF04CF68E081E790E05CDE06
:1007D000FF24FECECF93CFB7CF93809BFECF809BDD
:1007E00009C0809B07C0809B05C0809B03C0809B85
:1007F00001C09EC0DF93C0919200DD27C756DF4F36
:10080000809B02C0DF91EBCF2F930F931F9300B318
:100810002FEF00FB20F94F933F9310B34FEF0127C9
:1008200000FB21F93BE031C04E7F012F10B3216066
:1008300028C0102F4D7F2260000000B329C04B7FDD
:100840002460012F000010B32BC010B3477F286035
:100850002AC04F7E00B320612CC04F7D10B32062B0
:100860002FC04F7B00B3206432C0422700B34993AE
:100870004FEF0000102710FB20F910B31570A9F1FD
:10088000297F91F2012700FB21F900B3237F89F230
:100890003150F0F1102710FB22F910B3277E79F2C6
:1008A000012700FB23F92F7C81F200B3102710FBF6
:1008B00024F92F7971F200C010B3012700FB25F94C
:1008C0002F7359F200C000B3102710FB26F9223015
:1008D00040F200C010B3012700FB27F9243028F6AE
:1008E0004F77206810B30000F9CF3B50319533307B
:1008F00010E41ABFB8F0C31BD0400881033C41F19B
:100900000B3431F11981412F1F772091900012177C
:1009100031F4093691F10D3279F0013E69F0222768
:10092000209397003F914F911F910F912F91DF914D
:10093000CF91CFBFCF911895009397003F914F91E2
:100940001F910F912F91DF91CAB7C6FD46CFF0CF0F
:1009500000919700002331F3109195001123A1F528
:100960003430A2F1309395000093910010919200E1
:100970003BE0311B3093920029C00091950001307B
:100980001CF50AE547FD09C03091610034FD20C027
:1009900000936100CAE7D0E01FC03091620034FDCF
:1009A00017C000936200C5E8D0E016C0052710E02C
:1009B00002BB1FC0052722C0052727C005272CC062
:1009C000052710E002BB33C04AE503C042ED01C079
:1009D000432FC4E1D0E032E011B31560909A02B326
:1009E00011BB5F9355E020E820FF052702BB279548
:1009F00017951C3FD8F620FF0527279502BB1795B2
:100A00001C3FC0F620FF05272795179502BB1C3F0A
:100A100098F620FF0527279517951C3F02BB70F617
:100A200000C0499120FF052702BB279517951C3F61
:100A300038F620FF0527279502BB17951C3F38F590
:100A400020FF05272795179502BB1C3F10F520FFB7
:100A50000527279517951C3F02BBE8F4242F3A95EC
:100A600019F60A7F5F9102BB00C010919600C65133
:100A7000D04011F01093900010E41ABF016011B340
:100A80001A7F402F4A7F02BB11BB42BB4BCF0527C9
:100A9000D3CF0527D8CF0527DDCFA82FB92F8FEFCC
:100AA0009FEF41E050EA615070F02D9138E0722FD5
:100AB000782796958795269570FF02C084279527FD
:100AC0003A95A9F7F0CF809590950895E6DF8D933C
:100AD0009D930895A1E1B0E0EFE6F5E006C41C01A6
:100AE000798B688B5A01FC0117821682838181FD04
:100AF00003C08FEF9FEF5DC1442447C1242D3327EE
:100B000020FF30C1852D80538A3008F439C1F7E6C3
:100B1000F51554F185E658160CF04DC093E55916BD
:100B200009F461C09515ACF0EBE25E1609F428C13A
:100B3000E5154CF0F0E25F1609F422C123E25216EB
:100B400009F009C11DC1852D8D52823008F003C105
:100B500017C183E6581691F185150CF44EC098E53F
:100B6000591609F0F8C021C0E0E75E16D1F0E5158E
:100B700064F0FCE65F16E1F08FE6581609F461C0F8
:100B800099E6591609F0E7C038C0E5E75E1609F4A2
:100B90005AC0F8E75F1649F023E7521609F0DBC0A8
:100BA00014C038E7532E80E14DC090E19F874BC0C1
:100BB000E4E04E2AE5C09FE3C92E8DC0F501C08058
:100BC00022E030E0A20EB31E86C085010E5F1F4FEB
:100BD000F501C080D180F60101900020E9F731973E
:100BE000EC19EF87E4C085010E5F1F4FF501C0804F
:100BF000D180C601A4D28F87DAC022FF08C0F501D8
:100C000080819181A281B38124E030E009C0F501A7
:100C100080819181AA2797FDA095BA2F22E030E02C
:100C2000A20EB31E6C017D01B7FF22C032E0432A41
:100C3000F094E094D094C094C11CD11CE11CF11C30
:100C400017C088E08F8722FF08C0F501808191815D
:100C5000A281B38124E030E007C0F5018081918159
:100C6000AA27BB2722E030E0A20EB31E6C017D0153
:100C700087017601CE0101969E878D879F85692E1B
:100C8000772488249924C801B701A40193010BD3C8
:100C90006A301CF0650D615201C0605DED85FE8516
:100CA0006193FE87ED87C801B701A4019301FBD2D0
:100CB00079018A01211531054105510521F7CC241F
:100CC000DD24760141FE04C0B1018DE290E083D2C3
:100CD000F3E65F1631F4B1018C2D992787FD9095CD
:100CE0003FC023E7521689F446011F8508C0F4016E
:100CF00081914F01B101992787FD90956CD21150D8
:100D0000B0F72FEF2F8744243BC033E5531619F07B
:100D10000D851E8518C086019F8407C0F801849147
:100D2000B101992758D20F5F1F4F9A94FFEF9F167A
:100D3000A9F7FF87E8CFF80182918F01B1019927C8
:100D400087FD909548D2CE0101960817190799F7AB
:100D50001E870D87D8CFB101852D992787FD9095E6
:100D60003AD2D1CFF5E25F1629F42AE02F8781E04D
:100D7000482E06C0B101852D992787FD90952BD26D
:100D8000888999890196998B888BF101838183FFEA
:100D900004C0E889F989549003C0E889F989508032
:100DA000552009F0ABCEF1018681978102C0580130
:100DB00098CFE2E16196B5C2A9E0B0E0E1EEF6E0DD
:100DC00094C22C01798768874A01FC011782168238
:100DD000838180FD05C02FEF3FEF3C832B83AAC1A9
:100DE0001E821D828FEF9FEF9C838B836624772466
:100DF0001A821982222472C120FE5EC1853219F442
:100E00009EEF292265C1992787FD9095B4D2382E8F
:100E1000ACE68A1769F1A817A4F0B4E68B1709F4B9
:100E20006EC0B8172CF0E3E68E1709F02BC123C073
:100E3000F8E68F1709F44CC129E6821709F022C1A0
:100E40005EC033E7831749F138174CF08FE6381648
:100E500009F44CC090E7391609F014C14CC0A5E75D
:100E60008A1709F44AC0B8E78B1709F00BC143C0D1
:100E7000E4E02E2A2DC1D4010D911C91C20168D14C
:100E80003C01BFEF8F3F9B0709F438C1E2E0F0E07F
:100E90008E0E9F1ED8018D93F5C084010E5F1F4FEB
:100EA000F401E080F180C20153D13C0155D2892B7D
:100EB000D1F7FFEF6F16FFEF7F0651F41FC1C3019B
:100EC0004BD2892B29F05701B201C301B1D10AC01D
:100ED000D7016D927D01C2013BD13C018F5F9F4FD5
:100EE00071F75701F50110824801CCC0E2E02E2ACB
:100EF000F8E0FF8304C020E12F8332E0232AC201FF
:100F000027D13C0129D2892BD1F78FEF68168FEFBB
:100F1000780609F4F1C0862D8D3219F08B3251F428
:100F200002C098E0292AC20113D13C018F5F9F4F74
:100F300009F4E2C0B0E36B1671F5AA24BB24650185
:100F4000C20106D13C01EFEF8F3F9E0709F46DC04F
:100F500012D28837D9F4FFE63F1631F024E6321674
:100F600019F035E7331621F4B201C30161D15DC038
:100F7000C201EED03C018FEF68168FEF780619F4AE
:100F800090E19F8352C0A0E1AF8305C0B9E63B1654
:100F900011F4E8E0EF83EE24FF248701C301EBD1D5
:100FA00020EDC22E2FEFD22EC80ED91EFAE0CF169A
:100FB000D1043CF0C601C19762F029ED3FEFC20EAB
:100FC000D31ED7FC06C03F81832F9927C816D906A8
:100FD00034F057016801B201C3012AD11DC08F81CD
:100FE000282F332744275527C801B7013DD17B015E
:100FF0008C01C601AA2797FDA095BA2FE80EF91E0D
:101000000A1F1B1FC201A4D03C019FEF69169FEF6E
:10101000790621F65701680123FE07C0AA24BB24E4
:101020006501AE18BF08C00AD10A222D3327C901B5
:1010300086709070069741F4D401ED91FC91A082E6
:10104000B182C282D38207C021FF0AC0D401ED91D0
:10105000FC91B182A082E2E0F0E08E0E9F1E12C0F1
:10106000C401029622FF08C0D401ED91FC91A08238
:10107000B182C282D38205C0D401ED91FC91B182CC
:10108000A0824C01F2018681978129813A8128173B
:10109000390744F48D819E8101969E838D831C8245
:1010A0001B8208C09EE6391639F5AFEF6A16AFEF1E
:1010B0007A0611F122240CC0853251F4F201068027
:1010C000F781E02DFA83E983FAE0FF8381E0282E9F
:1010D000288539852F5F3F4F39872887F201838123
:1010E00083FF04C0E885F985849103C0A885B9858C
:1010F0008C91882309F080CE20FE0FC0F2018681FA
:10110000978129813A81281739073CF48D819E8186
:1011100001969E838D831C821B829FEF69169FEF31
:10112000790621F4AD81BE81AB2B21F0ED81FE81EA
:10113000FC83EB838B819C81E2E12996F2C0FC0168
:1011400005900020E9F7809590958E0F9F1F0895D8
:10115000CF93DF93EC012B81822F992780FF15C05D
:1011600086FF0AC02F7B2B838E819F8101969F83F0
:101170008E838A8199272CC082FF12C0E881F98171
:101180008081882329F420622B838FEF9FEF20C07A
:10119000282F332727FD30953196F983E88311C036
:1011A000EA85FB85CE0109959C0197FF0AC08B81DA
:1011B0002F5F3F4F11F490E101C090E2892B8B83A8
:1011C000E4CF8E819F8101969F838E83822F992702
:1011D000DF91CF9108950F931F93CF93DF938C01ED
:1011E000EB018B81992781FF1BC082FF0DC02E81EF
:1011F0003F818C819D812817390764F4E881F9814A
:101200000193F983E88306C0E885F985802F099565
:10121000892B31F48E819F8101969F838E8302C03A
:101220000FEF1FEFC801DF91CF911F910F9108952C
:10123000AC01FB012381822F992780FF12C086FD1C
:1012400010C08FEF4F3F580761F0428320642F7D1D
:10125000238386819781019797838683842F99279B
:1012600008958FEF9FEF0895629FD001739FF00163
:10127000829FE00DF11D649FE00DF11D929FF00D26
:10128000839FF00D749FF00D659FF00D9927729F5D
:10129000B00DE11DF91F639FB00DE11DF91FBD01E8
:1012A000CF0111240895A1E21A2EAA1BBB1BFD0138
:1012B0000DC0AA1FBB1FEE1FFF1FA217B307E40735
:1012C000F50720F0A21BB30BE40BF50B661F771F8D
:1012D000881F991F1A9469F760957095809590956D
:1012E0009B01AC01BD01CF0108952F923F924F9217
:1012F0005F926F927F928F929F92AF92BF92CF92A6
:10130000DF92EF92FF920F931F93CF93DF93CDB7AE
:10131000DEB7CA1BDB0B0FB6F894DEBF0FBECDBF26
:1013200009942A88398848885F846E847D848C84F7
:101330009B84AA84B984C884DF80EE80FD800C8100
:101340001B81AA81B981CE0FD11D0FB6F894DEBFE3
:101350000FBECDBFED010895911113C0803251F041
:101360008A3041F08C3031F08D3021F0893011F02D
:101370008B3099F708958F9309D08F9109F080628F
:10138000089599278827089585FDFBCF80629111E4
:0E139000F8CF8136ECF38B37DCF70895FFCFF2
:0E139E00FF5A5AFFFFFFFFFFFFFFFFFF050191
:00000001FF
