:10170000F89481E180935700E89581E080936F031E
:1017100008959C0180916F03882319F480E090E084
:101720000895C901E9DF9927089583E291E890932C
:10173000FF018093FE0188E190E029E00FB6F89464
:10174000A89581BD0FBE21BDFFCFC49ABC98109251
:101750006F0380E090E0FC01259134912F5F3F4FB3
:1017600039F487E493EF9093FF018093FE0119C051
:101770008091FE019091FF0121E88332920789F068
:101780008754934F71F0B49B0CC0F89481E180931F
:101790005700E89581E080936F03899A9198A9DFBB
:1017A00002C0899A919885B38C7F85BB84B383608E
:1017B00084BB80E395E70197F1F784B38C7F84BB0A
:1017C00081E08BBF82E08BBF80D0789480D380E0B3
:0417D00090E0089508
:101800003AC0AEC153C052C051C050C04FC04EC00C
:101810004DC04CC04BC04AC049C048C047C046C07C
:1018200045C044C043C0040309041A036F0070009C
:1018300065006E00630062006D00200074006500AA
:1018400061006D000E037800750031003500340032
:10185000310012011001FF000008030432C600012C
:101860000102000109021200010100800F090400B9
:1018700000000000000011241FBECFE5D4E0DEBF51
:10188000CDBF13E0A0E6B3E0EEEAFFE102C00590B1
:101890000D92A236B107D9F713E0A2E6B3E001C07A
:1018A0001D92AA39B107E1F750DF80C3A9CF80911B
:1018B00060038F3F19F080E090E00895809161030C
:1018C00082958F7081709927089585B7836085BF51
:1018D0008BB780648BBF08950F931F93CF93DF93D3
:1018E0006091800316160CF0A7C0635080917D03B1
:1018F000C0E9D3E0C81BD10980917C038D3209F087
:101900007FC08AE580936103683009F08DC08881CB
:10191000807609F062C029E733E01092790389816B
:10192000882341F410927A0330937F0320937E033F
:1019300092E05DC0853021F48A8180938103E3C009
:10194000863099F58B81813019F482E598E104C0E5
:10195000823041F484E698E190937F0380937E0384
:1019600092E1D4C0833009F0D0C08A81882341F449
:1019700086E298E190937F0380937E0394E0C6C053
:10198000813041F48AE298E190937F0380937E0353
:101990009AE1BCC0823009F0B8C084E498E1909329
:1019A0007F0380937E039EE0B1C0883039F483E8E2
:1019B00093E090937F0380937E030DC0893021F4E0
:1019C0008A81809383039FC08A3009F09CC0309342
:1019D0007F0320937E0391E00AC0CE0183D2982F2B
:1019E0008F3F29F4888187FF19C09E8117C020E8A6
:1019F0008F818823D9F48E818917C0F4982F16C05F
:101A00008091620387FD10C0CE01FAD18F3F41F46F
:101A1000809360038EE1809361039FEF20E006C016
:101A20008823D9F390E0FACF90E020E82093620376
:101A300090936003109280038091610384FF58C0EB
:101A4000809160038F3F09F453C0682F893008F0FC
:101A500068E0861B809360038091620380FF02C070
:101A600003EC01C00BE48F5F8093620387FF23C008
:101A700020917E0330917F0386FD05C0962FF901EA
:101A8000A1E7B3E00DC0962FF901A1E7B3E003C0D1
:101A900084918D9331969150D8F704C081918D93A4
:101AA0009150E0F7C901860F911D90937F038093B9
:101AB0007E03772707C0662359F181E793E029DE8B
:101AC000682F7727162F693058F481E793E044D0C8
:101AD000912F9C5F183040F48FEF8093600304C017
:101AE0008FEF809360039EE10093700390936103F6
:101AF0009AE083B3837091F49150D9F710928103E7
:101B000010927B030BC090E072CF90E020EC70CF7E
:101B100060E081E793E020D094E0DECFDF91CF91C9
:101B20001F910F910895A82FB92F8FEF9FEF41E0DC
:101B300050EA615070F02D9138E0722F7827969519
:101B40008795269570FF02C0842795273A95A9F7B7
:101B5000F0CF809590950895E6DF8D939D9308953D
:101B6000CF93CFB7CF93989BFECF989B09C0989BFC
:101B700007C0989B05C0989B03C0989B01C0A1C05B
:101B8000DF93C0917D03DD27CC57DC4F989B02C0CB
:101B9000DF91EBCF2F930F931F9303B32FEF00FB36
:101BA00020F94F933F9313B34FEF012700FB21F927
:101BB0003BE031C04E7F012F13B3216028C0102FAE
:101BC0004D7F2260000003B329C04B7F2460012FAA
:101BD000000013B32BC013B3477F28602AC04F7E89
:101BE00003B320612CC04F7D13B320622FC04F7B05
:101BF00003B3206432C0422703B349934FEF000080
:101C0000102710FB20F913B31370C9F1297F91F24B
:101C1000012700FB21F903B3237F89F2315058F1EA
:101C2000102710FB22F913B3277E79F2012700FB5E
:101C300023F92F7C81F203B3102710FB24F92F79AD
:101C400071F200C013B3012700FB25F92F7359F27D
:101C500000C003B3102710FB26F9223040F200C069
:101C600013B3012700FB27F9243028F64F772068AB
:101C700013B30000F9CF10E41ABF002717C03B5080
:101C80003195C31BD04010E41ABF0881033CE9F032
:101C90000B34D9F020917B031981110F1213EDCF72
:101CA000093641F10D3211F0013E39F700938203FC
:101CB0003F914F911F910F912F91DF91CAB7C6FDB0
:101CC00052CFCF91CFBFCF911895009182030023BF
:101CD00079F310918003112349F534304AF13093A0
:101CE000800300937C0310917D033BE0311B309314
:101CF0007D031EC0009180030130C4F40AE53091D9
:101D0000610334FD17C000936103C0E7D3E016C040
:101D1000052710E005BB1FC0052722C0052727C0E7
:101D200005272CC0052710E005BB33C04AE503C0DA
:101D300042ED01C0432FC4E1D0E032E014B31360A0
:101D4000A89A05B314BB5F9353E020E820FF052752
:101D500005BB279517951C3FD8F620FF052727952B
:101D600005BB17951C3FC0F620FF05272795179543
:101D700005BB1C3F98F620FF0527279517951C3FAC
:101D800005BB70F600C0499120FF052705BB2795CC
:101D900017951C3F38F620FF0527279505BB17959B
:101DA0001C3F40F520FF05272795179505BB1C3FD5
:101DB00018F520FF0527279517951C3F05BBF0F464
:101DC000242F3A9519F60C7F5F9105BB0000109106
:101DD0008103110FC651D04011F010937B0310E422
:101DE0001ABF016014B31C7F402F4C7F05BB14BB8E
:101DF00045BB5ECF0527D2CF0527D7CF0527DCCF40
:101E0000FF920F931F93CF93DF93EC01162F8091D6
:101E10006F03882321F0CE0170DC992742C08091A6
:101E20006303813019F08FEF90E03BC0A0916C0309
:101E3000B0916D0370916E0360E001E0F5E0FF2E5C
:101E40002AC0F894FE01E60FF11D20818181AD01C9
:101E5000470F511D33279927982F8827282B392B77
:101E60000901FA0100935700E895112478947E5FE8
:101E7000703480F070936E03F894FD01F092570077
:101E8000E895789407B600FCFDCF1092630381E0DB
:101E900090E007C06E5F6117A0F270936E0380E060
:101EA00090E0DF91CF911F910F91FF9008950A016B
:101EB000FB0180935700E8951124813039F007B673
:101EC00000FCFDCF81E180935700E8950895A89527
:101ED00003DD80916F038823D1F3E9DC8823B9F314
:101EE00009DCF5CFFC0164E673E070937F03609337
:101EF0007E0380916F03882321F0CF01FCDB9927BB
:101F0000089581818823A1F48FEF809364038093E7
:101F1000650380E090E4909367038093660381E01B
:101F20008093680385E18093690386E090E00895DB
:101F3000813081F48EED9CEB9093FF018093FE0144
:101F400088E190E029E00FB6F894A89581BD0FBE16
:101F500021BDFFCF8230E9F481E080936303838168
:101F600022819927982F88273327822B932B9093B0
:101F70006D0380936C0310926E03F89423E0FC01D0
:101F800020935700E895789407B600FCFDCF8FEFBB
:101F90000BC0833041F41092640380E480936503A6
:0E1FA00082E090E0089580E099270895FFCF39
:021FAE00FF5AD8
:061FF00001159BCB5CCF44
:0400000300001800E1
:00000001FF
