:10170000F89481E180935700E89581E080936B0322
:1017100008959C0180916B03882319F480E090E088
:101720000895C901E9DF9927089583E291E890932C
:10173000FF018093FE0188E190E029E00FB6F89464
:10174000A89581BD0FBE21BDFFCFC49ABC98109251
:101750006B0380E090E0FC01259134912F5F3F4FB7
:1017600039F487E493EF9093FF018093FE0119C051
:101770008091FE019091FF0121E88332920789F068
:101780008754934F71F0B49B0CC0F89481E180931F
:101790005700E89581E080936B03899A9198A9DFBF
:1017A00002C0899A919885B38C7F85BB84B383608E
:1017B00084BB80E395E70197F1F784B38C7F84BB0A
:1017C00081E08BBF82E08BBF03D2789457D380E057
:0417D00090E0089508
:101800003AC06FC053C052C051C050C04FC04EC04C
:101810004DC04CC04BC04AC049C048C047C046C07C
:1018200045C044C043C01A036F00700065006E00DD
:10183000630062006D0020007400650061006D00AF
:101840000E037800750031003500340031001201BC
:101850000101FF000008030432C60002010200017A
:1018600009021200010100800F0904000000FF00BE
:1018700000000403090411241FBECFE5D4E0DEBF3D
:10188000CDBF13E0A0E6B3E0E0E4FFE102C00590C5
:101890000D92A236B107D9F713E0A2E6B3E001C07A
:1018A0001D92A339B107E1F750DF49C3A9CFDC018D
:1018B0009FEF8FEF662381F040EA31E02D9108948D
:1018C000279508F483279695879510F49427832706
:1018D0002695B9F76A9591F7809590958D939D938C
:1018E00008950F931F932F93DF93CF930FB70F9309
:1018F0009999FECF99990BC0999909C0999907C0F8
:10190000999905C0999903C000E40ABFA8C0C09185
:101910007B03DD27C458DC4F0BE013E022E0999BEA
:10192000E9CF3F934F936F9363B330E803C063B342
:10193000432B4993442763702627215023B32370F8
:10194000A9F137953C3FA0F56227615063B36370FE
:1019500037953C3F98F526272150379523B32370C0
:101960003C3F90F56227615037953C3F63B363700D
:10197000A0F52627215037953C3FC8F523B32370A7
:101980006227615037953C3FB0F50A9563B37AF012
:1019900063702627215037953C3F88F523B3237089
:1019A0006227615037953C3F10F22DC031C048C0CE
:1019B000612723B323703F774160C6CF3F774260F2
:1019C00063B363702127C7CF3F774460612723B398
:1019D0002370622761503795C8CF3F774860212731
:1019E000316063B36370262721503795C6CF3F77A8
:1019F00040616127C1CF3F7740622127C4CF3F7745
:101A000040646127C9CF3F774068212700C08FCF4E
:101A100030E43ABF0B500195033090F0C01B288191
:101A2000233CB1F12B34A1F119811F77409192032E
:101A3000141731F42936D9F02D3249F0213E39F00E
:101A40004427409362036F914F913F9108C02093C8
:101A500062036F914F913F910AB706FD49CF0F91F5
:101A60000FBFCF91DF912F911F910F91189500918A
:101A70006C03002311F140917A034423F1F4409365
:101A80006C034091780340939203CDE6D3E018C0F5
:101A9000209162032223A1F240917A03442369F446
:101AA00000937A032093790300917B034BE0401B62
:101AB00040937B03C0E6D3E002C0C1E6D3E001E07F
:101AC00025B32C7F216014B3136025BB14BB13E036
:101AD00030E830FF212725BB379547954C3FC0F5AF
:101AE00030FF2127379525BB47954C3FA8F530FFA0
:101AF00021273795000025BB47954C3F78F530FFEF
:101B000021273795000025BB47954C3F48F530FF0E
:101B10002127699125BB379547954C3F18F530FF34
:101B20002127379525BB47954C3F00F530FF2127EE
:101B30003795479525BB4C3FD8F430FF2127379583
:101B4000362F479525BB4C3FA8F40A9512F614C0D2
:101B50002127442725BBC2CF2127C5CF2127CBCFA3
:101B60002127D1CF2127442725BBD7CF2127DACF63
:101B70002127DFCF2127E5CF2C7F25BB6F914F9108
:101B80003F9100E40ABFDF91CF9114B3022F21608F
:101B900025BB1C7FDFBFDF912F91000014BB05BB6D
:101BA0001F910F91189580916303882371F48091A0
:101BB0006403882351F490E080916C03811191E0DB
:101BC00081E09827892F9927089580E090E0089573
:101BD00085B7836085BF8BB780648BBF7894089589
:101BE0001F93CF93DF9360917A03662309F477C044
:101BF00080917B039927CC27DD27C81BD90BC857B9
:101C0000DC4F91E090936303809179038D3209F06A
:101C100057C01E818F8181111FEF8881807609F066
:101C20003FC08981882321F41882198292E040C044
:101C3000853021F48A8180937803B2C0863031F5F3
:101C400082E0809363038B81813019F4CEE4D8E184
:101C500004C0823021F4C0E6D8E192E129C083308B
:101C600009F09EC08A81882321F4C2E7D8E194E07C
:101C70001FC0813021F4C6E2D8E19AE119C0823058
:101C800009F08EC0C0E4D8E19EE012C0883011F4A3
:101C9000988304C08A3009F083C0188291E008C09C
:101CA000CE01F7D0982F8F3F19F483E08093630320
:101CB000191708F0192FD0936603C093650305C068
:101CC000635011F0CE017AD010E01093640383ECDE
:101CD00080936D0310926C0310927A0305C080917B
:101CE0006C03882309F050C040916303442309F436
:101CF0004BC080916D0398E8892780936D03109104
:101D00006403193010F018E003C0112309F44AC02D
:101D1000433031F4612F8EE693E0FBDC182F23C0B3
:101D20002091650330916603413029F0F90190E07C
:101D3000AEE6B3E00FC0F90190E0AEE6B3E003C059
:101D400081918D939F5F9117D9F706C08491319649
:101D50008D939F5F9117D1F7C901810F911D9093CA
:101D600066038093650380916403811B8093640301
:101D7000612F8EE693E09BDD1D5F10936C03135083
:101D8000183010F4109263038AE002C0815019F0F9
:101D9000989BFCCF0FC010927803109292030AC058
:101DA00010E089CF60E08EE693E081DD83E08093F0
:101DB0006C03E8CFDF91CF911F910895FF920F93AD
:101DC0001F93CF93DF93EC01162F80916B03882331
:101DD00019F0CE0192DC3CC080916703813009F09C
:101DE00037C0A0916803B091690370916A0360E005
:101DF00001E0F5E0FF2E28C0F894FE01E60FF11D8A
:101E000020818181AD01470F511D33279927982FDC
:101E10008827282B392B0901FA0100935700E895F0
:101E2000112478947E5F703470F070936A03F89494
:101E3000FD01F0925700E895789407B600FCFDCFBD
:101E40001092670305C06E5F6117B0F270936A036A
:101E5000DF91CF911F910F91FF9008950A01FB012F
:101E600080935700E8951124813039F007B600FCC3
:101E7000FDCF81E180935700E8950895A895B0DEE5
:101E800080916B038823D1F38EDE8823B9F332DC93
:101E9000F5CFFC0180916B03882329F0BF01CF01AE
:101EA0002ADC992708958181882371F48FEF80833C
:101EB000818380E090E49383828382E0848385E160
:101EC000858386E090E00895813081F48EED9CEB6F
:101ED0009093FF018093FE0188E190E029E00FB626
:101EE000F894A89581BD0FBE21BDFFCF8230E1F4EB
:101EF00081E080936703838122819927982F882727
:101F00003327822B932B909369038093680310925D
:101F10006A03F89423E0FC0120935700E895789435
:101F200007B600FE09C0FCCF833031F4108280E494
:101F3000818382E090E0089580E090E00895FFCFF3
:021F4000D25A73
:061FF00002159BCB33CF6C
:0400000300001800E1
:00000001FF
