:1000000019C028C027C026C025C024C070C022C087
:1000100021C020C01FC01EC01DC024C01BC01AC0EC
:1000200019C018C017C016C015C014C013C012C024
:1000300011C010C011241FBECFEFCDBFDFE3DEBF64
:100040002FE3A0E8BFE301C01D92A53CB207E1F792
:1000500065D053C1D5CF9091040895FFFCCF809314
:10006000020808951F920F920FB60F9211242F933A
:100070003F934F938F939F93EF93FF9380914C0AFD
:1000800090914D0A9C0120543109203C3F4308F5D2
:100090002091C33F21111DC026E0969587952A9592
:1000A000E1F7E091C13F91E09E0F9093C13FF0E0F6
:1000B000E058F04C80838091C13F8F738093C13FA3
:1000C0009091C13F8091C03F981303C081E080931D
:1000D000C23F1092C33FFF91EF919F918F914F913B
:1000E0003F912F910F900FBE0F901F9018951F9268
:1000F0000F920FB60F9211248F93EF93FF93E0E4CA
:10010000F1E081E0838310828093C43FFF91EF91FF
:100110008F910F900FBE0F901F90189588ED90E073
:1001200084BF90936100069A8BE890E08093080862
:100130009093090880EC8093060881E08093470142
:1001400080934201909112049860909312049091D0
:100150001304986090931304019A9CE09093820199
:1001600093E09093920122E02093400A9093410AF9
:1001700091E59093440A8093450A789400E018E250
:10018000DD24D394E12C84E6F82E8091040887FFC7
:10019000FCCF809100088237A9F0863749F0893674
:1001A000A1F7C2E0D3E88991882349F054DFFBCF5F
:1001B000CEEFD2E88991882311F04DDFFBCF8AE0A2
:1001C0004ADFE3CF809141018111FCCF10924801B9
:1001D0001092490100934A0110934B01D0924001C3
:1001E0001092C43F139B0FC08091C43F81110BC07C
:1001F000119A2FEF81EE94E0215080409040E1F77A
:1002000000C00000EFCF8091C43F882319F0099807
:1002100081E0D6CFD092C33F1092C23F1092C13F2F
:100220001092C03F10924A0A10924B0A80E013DFEE
:10023000099A2FEF81EE94E0215080409040E1F741
:1002400000C00000809141018111FCCF1092480153
:1002500010924901E0924A01F0924B01D092400184
:100260001092C43F8091400A81608093400AD0E0A0
:10027000C0E0139933C08091C43F81112FC0809199
:10028000C23F81112BC080914A0A90914B0A813064
:10029000904410F0D092C33F9091C13F8091C03FF5
:1002A000981739F38091040885FFE3CFE091C03FB0
:1002B00081E08E0F8093C03FF0E0E058F04C9081D9
:1002C0008091C03F8F738093C03F90930208C90F05
:1002D000D11D1092480110924901CBCF8091400A64
:1002E0008E7F8093400A099880E0B5DE8C2FB3DEC4
:0E02F0008D2FB1DE8091C23F63CFF894FFCF17
:0F02FE00312E30005461706544756D70363400D8
:00000001FF
