:1000000019C028C027C0EAC025C024C0F7C022C03C
:1000100040C020C01FC01EC01DC08DC01BC01AC064
:1000200019C018C017C016C015C014C013C012C024
:1000300011C010C011241FBECFEFCDBFDFE3DEBF64
:100040002FE3A0E0BFE301C01D92A738B207E1F79C
:10005000ECD03CC3D5CF909141019111FCCF1092CF
:1000600048011092490190E0982F8827990F990F25
:1000700080934A0190934B0181E08093400110925C
:10008000863F08959091040895FFFCCF8093020865
:1000900008951F920F920FB60F9211242F933F9342
:1000A0008F939F93EF93FF93E091043FF0E0EA5F1B
:1000B000F04C8081E091043FF0E0E95FF04C20815A
:1000C00030E0322F2227820F932F911D8093380A20
:1000D0009093390A9C01220F331F2150310920933C
:1000E000360A3093370A892B29F48091000A8E7FD3
:1000F0008093000A9091053F8091043F981303C0BC
:1001000081E08093033F8091043F8E5F8093043FA2
:100110008091043F8F778093043F81E080930B0AA6
:10012000FF91EF919F918F913F912F910F900FBE73
:100130000F901F9018951F920F920FB60F921124D7
:100140002F933F938F939F93EF93FF9380914C0A4C
:1001500090914D0A2091013F222331F08C3D2FEFE9
:10016000920710F48FEF9FEF9C013695279521158C
:10017000310521F1E091053F81E08E0F8093053F2D
:10018000F0E0EA5FF04C2083892F8695E091053FEF
:1001900091E09E0F9093053FF0E0EA5FF04C808382
:1001A0008091053F8F778093053F9091053F809127
:1001B000043F981303C081E08093003F1092013FF9
:1001C00081E08093023FFF91EF919F918F913F914A
:1001D0002F910F900FBE0F901F9018951F920F92A6
:1001E0000FB60F9211241B9A139B06C029980F90EB
:1001F0000FBE0F901F901895299AF9CF1F920F925A
:100200000FB60F9211248F93EF93FF93E0E4F1E088
:1002100081E0838310828093863FFF91EF918F91DD
:100220000F900FBE0F901F90189588ED90E084BF3F
:1002300090936100229A8BE890E080930808909355
:10024000090880EC8093060881E080934701809341
:100250004201209A069A079A90911104986090930F
:10026000110490911304986090931304029A219AB8
:10027000909113049160909313049BE090938201FA
:1002800033E0309392012AE02093830144E04093CD
:100290009A01909100029160909300024093400A6D
:1002A0003093410A91E59093440A8093450A209344
:1002B000000A83E18093010A7894FF24F394EE24EA
:1002C000EA944FE7D42E00E810E08091040887FFFD
:1002D000FCCF80910008823759F148F4C4EDD6E88C
:1002E000893699F78991882301F1CCDEFBCF8637D7
:1002F000A9F0873751F78AE0AEDE139BE9C0809101
:10030000863F8111E5C0179A3FEF41EE54E031502E
:1003100040405040E1F700C00000EFCFC0EDD6E80C
:100320008991882311F0AEDEFBCF8AE0ABDECDCF22
:100330008AE091DE139B0FC08091863F81110BC034
:10034000169A2FEF31EE44E0215030404040E1F763
:1003500000C00000EFCF8091863F882319F00E98EF
:1003600081E0E4CF1092023FF092013F1092003FF3
:100370001092053F1092043F10924A0A10924B0AC5
:1003800080E080DE0E9A5FEF81EE94E05150804075
:100390009040E1F700C0000089E15DDE8091000A35
:1003A00081608093000A8091400A81608093400AB6
:1003B00080E0D0E0C0E0139967C09091863F911132
:1003C00063C09091003F91115FC09091023F9923CB
:1003D00089F1F8949091013F20914A0A30914B0A9B
:1003E000992309F44BC02C3D3F4F18F5E091053F90
:1003F00091E09E0F9093053FF0E0EA5FF04CE082C1
:10040000E091053F91E09E0F9093053FF0E0EA5F99
:10041000F04CD0829091053F9F779093053F2091BB
:10042000053F9091043F291302C0F092003F1092C3
:10043000013F78942091053F9091043F291709F4DA
:10044000BACF9091040895FFB6CFE091043F91E0B8
:100450009E0F9093043FF0E0EA5FF04C2081909172
:10046000043F9F779093043F20930208C20FD11D51
:100470008F5F10924801109249019DCF2D3D3F4F53
:10048000C0F2F092013FD5CF9091400A9E7F9093A9
:10049000400A80FF02C081E0F5DD80E0F3DD80E00E
:1004A000F1DD8C2FEFDD8D2FEDDD8091003FEADD5A
:1004B000299813990BC0169A8FEF91EE24E0815082
:1004C00090402040E1F700C00000F3CF0E98FDCE31
:1004D0008091863F882321F081E0D4DD0F98F5CE0E
:1004E00080E0D0DD8EE7CEDD90E080E0D0E0C0E0BF
:1004F0002091040827FFFCCF20910008FC01EA5F4F
:10050000F04C2083C20FD11D01968E37910581F7E3
:100510008EE78093053F1092043F1092033F0F9A9D
:100520008FEF91EE24E0815090402040E1F700C031
:100530000000E091043F81E08E0F8093043FF0E0E3
:10054000EA5FF04C8081E091043F91E09E0F909330
:10055000043FF0E0EA5FF04C208130E0322F2227A8
:10056000820F932F911D1092200A1092210A8093DE
:10057000380A9093390A880F991F01978093360A99
:100580009093370AF0920A0A8091000A8160809362
:10059000000AB12CC12C3EE7A32E13995FC08091B5
:1005A000033F81115BC08091000A80FF57C080919A
:1005B000040887FF2DC0809100089091040897FFE0
:1005C000FCCF90910008E091053F21E02E0F209391
:1005D000053FF0E0EA5FF04C8083E091053F21E0C9
:1005E0002E0F2093053FF0E0EA5FF04C90832091BE
:1005F000053F2F772093053FCC2011F0CA94CA9471
:10060000482F490F5527551FC40FD51F892BF9F0C7
:10061000C110C3CFB110C1CF8091053F9091043F6D
:100620009817C0F4891B9801281B3109C12C21326D
:1006300031050CF4B2CF8091053F9091043F98179B
:1006400058F4891BCA2CC81A8C2D1CDDA6CFBB24DC
:10065000B394A3CF8058E6CF8058F3CF8091000A9F
:100660008E7F8093000A10920A0A80E00BDD8C2FA7
:1006700009DD8D2F07DD8091033F04DD82B1887095
:1006800001DD3FEF49E658E1315040405040E1F78D
:1006900000C00000299813990BC0179A8FEF91EEB4
:1006A00024E0815090402040E1F700C00000F3CFEB
:1006B0000F98809100088FE99FE00197F1F700C043
:1006C00000008091040887FDF4CFFFCDF894FFCFA0
:1006D000312E30005461706542756464793634009F
:00000001FF
